S02600006D33323870625F6E65775F636F6E74726F6C6C65725F74656D706C6174652E737265631B
S11300000C945A000C9474070C9477000C947700A9
S11300100C9477000C9477000C9477000C94770080
S11300200C9477000C9477000C9477000C94770070
S11300300C9477000C9477000C9477000C94770060
S11300400C9477000C9477000C9467060C9477005A
S11300500C94B1060C9479000C9477000C947700FE
S11300600C9477000C9477000C9477000C94770030
S11300700C9477000C9477000C9477000C94770020
S11300800C9477000C9477000C9477000C94770010
S11300900C9477000C9477000C9477000C94770000
S11300A00C94F4030C9477000C9477000C94770070
S11300B00C94770011241FBECFEFD8E0DEBFCDBF74
S11300C012E0A0E0B1E0EAE6FBE102C005900D9287
S11300D0AE31B107D9F722E0AEE1B2E001C01D9222
S11300E0AB3AB207E1F70E948C070C94B30D0C9461
S11300F000001F920F9200905F000F9211248F93C3
S1130100CF93DF93CDB7DEB781E080930001000089
S1130110DF91CF918F910F9000925F000F901F900D
S11301201895CF93DF93CDB7DEB78CE790E02CE73B
S113013030E0F9012081206CFC0120838AE790E003
S11301402AE730E0F90120812F68FC0120830000B8
S1130150DF91CF910895CF93DF931F92CDB7DEB790
S113016089838CE790E02CE730E0F9012081207F3F
S1130170FC0120838CE790E02CE730E0F90130812A
S11301802981232BFC01208300000F90DF91CF9164
S11301900895CF93DF9300D0CDB7DEB78AE790E020
S11301A02AE730E0F90120812068FC0120831982CC
S11301B01A82109200018AE790E02AE730E0F90100
S11301C020812064FC0120830000809100018823A9
S11301D0E1F388E790E0FC018081898389E790E07E
S11301E0FC0180818A838AE790E02AE730E0F90104
S11301F020812F77FC0120838A81882F90E0382F7B
S113020022278981882F90E0822B932B0F900F90C7
S1130210DF91CF910895CF93DF931F92CDB7DEB7CF
S1130220898389810E94AB000E94C900CC01A0E0AF
S1130230B0E0BC01CD010E943D09DC01CB012DECF5
S11302403EE148E95FE3BC01CD010E94CC09DC0139
S1130250CB01BC01CD010E940E09DC01CB010F9042
S1130260DF91CF910895CF93DF9300D01F92CDB744
S1130270DEB79A8389836B838B818823F1F089812C
S11302809A81FC018081918129813A81F90120813F
S11302903181F9012081622F29813A81F90122817A
S11302A0422F50E021E030E002C0220F331F4A9574
S11302B0E2F7262BFC0120831EC089819A81FC0170
S11302C08081918129813A81F90120813181F9016B
S11302D02081622F29813A81F9012281422F50E045
S11302E021E030E002C0220F331F4A95E2F7209547
S11302F02623FC01208300000F900F900F90DF91C4
S1130300CF910895CF93DF9300D000D01F92CDB743
S1130310DEB79C838B836D838B819C81FC01808100
S1130320918101979A8389838D81882F90E0813010
S1130330910501F182309105B1F1892B09F06BC06F
S113034089819A81FC018081482F8B819C81FC01E9
S11303508281282F30E081E090E002C0880F991F4D
S11303602A95E2F780958423282F89819A81FC01BC
S1130370208351C089819A81FC018081482F8B811F
S11303809C81FC018281282F30E081E090E002C052
S1130390880F991F2A95E2F7842B282F89819A8147
S11303A0FC01208338C089819A81FC018081482F17
S11303B08B819C81FC018281282F30E081E090E0D8
S11303C002C0880F991F2A95E2F780958423282F6D
S11303D089819A81FC0120838B819C81FC0180812D
S11303E091812B813C81F90120813181F9012081A6
S11303F0622F2B813C81F9012281422F50E021E0C0
S113040030E002C0220F331F4A95E2F720952623DD
S1130410FC012083000000000F900F900F900F90BC
S11304200F90DF91CF910895CF93DF9300D000D048
S1130430CDB7DEB79A8389837C836B8380911F0257
S1130440806180931F0280911E02816180931E024D
S113045022E030E041E051E06BE082E30E94B80525
S113046021E030E04EE152E06DE082E30E94B80505
S113047021E030E04FE152E06FE082E30E94B805F2
S113048000000F900F900F900F90DF91CF9108957F
S1130490CF93DF93CDB7DEB729970FB6F894DEBFBD
S11304A00FBECDBF9987888727E030E0CE01019643
S11304B0AC0160E082E30E94120589810E949E02E1
S11304C0282F88859985FC0120838A810E949E02B9
S11304D0282F88859985FC0121838B810E949E02A7
S11304E0282F88859985FC0122832C81888599850C
S11304F0FC0127838D810E949E02282F888599857F
S1130500FC0123838E810E949E02282F8885998571
S1130510FC0124838F810E949E02282F30E088856D
S11305209985FC0136832583000029960FB6F8943B
S1130530DEBF0FBECDBFDF91CF910895CF93DF9380
S11305401F92CDB7DEB78983898182958F70880F1A
S1130550982F990F990F980F89818F70890F0F9099
S1130560DF91CF910895CF93DF93CDB7DEB76A972C
S11305700FB6F894DEBF0FBECDBF9A8F898F898DD9
S11305809A8DFC01858196818F83898D9A8DFC01DA
S113059084818887898D9A8DFC0183818987898DDF
S11305A09A8DFC0182818A87898D9A8DFC018181D3
S11305B08B87898D9A8DFC0180818C878CE0E4E4A3
S11305C0F1E0DE011D9601900D928A95E1F78F818D
S11305D08370882381F49F8189E2989F812D11245F
S11305E082958F7024E6829F802D1124F92FF81BA9
S11305F08F2F882351F48F81882F90E020E931E0F8
S1130600B9010E94710A892B11F48DE18E87198238
S11306101A821B821C828C85882F90E0A0E0B0E0B7
S113062029813A814B815C81820F931FA41FB51FDE
S113063089839A83AB83BC838B85282F30E04CE37A
S1130640429FC001439F900D1124092E000CAA0B58
S1130650BB0B29813A814B815C81820F931FA41FBC
S1130660B51F89839A83AB83BC838A85482F50E066
S113067020E13EE0429FC001439F900D529F900DA8
S11306801124092E000CAA0BBB0B29813A814B8142
S11306905C81820F931FA41FB51F89839A83AB8348
S11306A0BC831D8229C08D81882F90E09E01235F29
S11306B03F4F820F931FFC018081882F90E0A0E0C0
S11306C0B0E09C01AD0160E871E581E090E00E943A
S11306D0610ADC01CB019C01AD0189819A81AB8166
S11306E0BC81820F931FA41FB51F89839A83AB8398
S11306F0BC838D818F5F8D838D81282F30E0888529
S1130700882F90E00197281739076CF21E8239C0B0
S11307108E818370882381F49E8189E2989F812D44
S1130720112482958F7024E6829F802D1124F92F45
S1130730F81B8F2F882351F48E81882F90E020E9B5
S113074031E0B9010E94710A892B61F489819A818F
S1130750AB81BC819B57AD41BE4F89839A83AB83E8
S1130760BC830CC089819A81AB81BC8180589C4C2C
S1130770AE41BE4F89839A83AB83BC838E818F5FE6
S11307808E839E818F81981718F28985882F90E037
S11307900197092E000CAA0BBB0B9C01AD0160E86C
S11307A071E581E090E00E94610ADC01CB019C01CB
S11307B0AD0189819A81AB81BC81820F931FA41FF3
S11307C0B51F89839A83AB83BC8389819A81AB816A
S11307D0BC81BC01CD016A960FB6F894DEBF0FBE92
S11307E0CDBFDF91CF9108951F920F9200905F00CB
S11307F00F9211248F939F93EF93FF93CF93DF93E3
S1130800CDB7DEB789ED90E0FC018081887F8093CD
S113081003010000DF91CF91FF91EF919F918F91A0
S11308200F9000925F000F901F901895CF93DF9365
S113083000D0CDB7DEB71A8219828CED90E025EA9C
S1130840FC0120830CC089819A8101969A83898353
S113085089819A818034964010F081E005C08091AE
S11308600301883081F780E00F900F90DF91CF91E2
S11308700895CF93DF93CDB7DEB78CED90E025E9F3
S1130880FC0120830000DF91CF910895CF93DF9383
S113089000D0CDB7DEB71A8219828CED90E025EA3C
S11308A0FC0120830CC089819A8101969A838983F3
S11308B089819A818034964010F081E005C080914E
S11308C00301803181F780E00F900F90DF91CF9189
S11308D00895CF93DF9300D0CDB7DEB71A82198283
S11308E08CED90E025E8FC0120830CC089819A817D
S11308F001969A83898389819A818034964010F085
S113090081E005C080910301883181F780E00F9078
S11309100F90DF91CF910895CF93DF9300D0CDB79F
S1130920DEB71A8219828CED90E025E8FC01208361
S11309300CC089819A8101969A83898389819A81DD
S11309408034964010F081E005C080910301883224
S113095081F780E00F900F90DF91CF910895CF93AE
S1130960DF9300D0CDB7DEB71A8219828CED90E008
S113097025E8FC0120830CC089819A8101969A8321
S1130980898389819A818034964010F081E005C082
S113099080910301803481F780E00F900F90DF9104
S11309A0CF910895CF93DF9300D01F92CDB7DEB7D8
S11309B08B831A8219828B818823B9F08CED90E0A5
S11309C025ECFC0120830CC089819A8101969A83CD
S11309D0898389819A818034964010F081E01CC01B
S11309E080910301803581F716C08CED90E025E8F5
S11309F0FC0120830CC089819A8101969A838983A2
S1130A0089819A818034964010F081E005C08091FC
S1130A100301883581F780E00F900F900F90DF91EC
S1130A20CF910895CF93DF93CDB7DEB729970FB653
S1130A30F894DEBF0FBECDBF8C836D835F834E837E
S1130A40398728871A8219821B820E9416048B8395
S1130A508B81882321F00E9439048B8180C08BED27
S1130A6090E02C81220FFC0120830E9469048B8377
S1130A708B81882321F00E9439048B8170C08BED17
S1130A8090E02D81FC0120830E948C048B838B8158
S1130A90882321F00E9439048B8161C00E9446049E
S1130AA08B838B81882321F00E9439048B8157C06A
S1130AB08BED90E02C81222F30E0220F331F216038
S1130AC0FC0120830E94AF048B838B81882321F057
S1130AD00E9439048B8143C01A8219821CC081E0B0
S1130AE00E94D2048B838B81882321F00E943904D5
S1130AF08B8135C02E813F8189819A81820F931F1A
S1130B002BED30E0F9012081FC01208389819A8159
S1130B1001969A838983888599859C01215031099E
S1130B2089819A8182179307D0F280E00E94D204CF
S1130B308B838B81882321F00E9439048B810FC021
S1130B402E813F8189819A81820F931F2BED30E0A2
S1130B50F9012081FC0120830E9439048B812996AC
S1130B600FB6F894DEBF0FBECDBFDF91CF910895CD
S1130B70CF93DF93CDB7DEB729970FB6F894DEBFD6
S1130B800FBECDBF8C836D835F834E8339872887E7
S1130B901A8219821B820E9416048B838B818823FC
S1130BA021F00E9439048B8147C08BED90E02C81A9
S1130BB0220FFC0120830E9469048B838B8188238C
S1130BC021F00E9439048B8137C08BED90E02D8198
S1130BD0FC0120830E948C048B838B81882321F069
S1130BE00E9439048B8128C01A8219821BC08BEDA4
S1130BF090E04E815F8129813A81240F351FF901EC
S1130C002081FC0120830E948C048B838B818823A8
S1130C1021F00E9439048B810FC089819A81019649
S1130C209A83898329813A81888599852817390788
S1130C30F0F20E9439048B8129960FB6F894DEBF36
S1130C400FBECDBFDF91CF910895CF93DF93CDB782
S1130C50DEB728970FB6F894DEBF0FBECDBF6D8305
S1130C607E838F83988719821A821B821C8280E07C
S1130C7092E1AAE7B0E02D813E814F815885BC0105
S1130C80CD010E94850ADA01C9014097A109B10981
S1130C90B695A795979587959927AA27BB27898302
S1130CA09A83AB83BC8388ED90E02981FC01208387
S1130CB08CED90E025E0FC012083000028960FB61F
S1130CC0F894DEBF0FBECDBFDF91CF9108951F9280
S1130CD00F9200905F000F9211242F933F938F93F4
S1130CE09F93EF93FF93CF93DF93CDB7DEB78091BC
S1130CF020029091210226EC30E0F90120818E5DE2
S1130D009D4FFC01208380912002909121028E5DF1
S1130D109D4FFC0180818D3061F481E08093050159
S1130D20809120029091210201968E5D9D4FFC01DD
S1130D3010828091200290912102019690932102C9
S1130D40809320020000DF91CF91FF91EF919F915A
S1130D508F913F912F910F9000925F000F901F9001
S1130D6018951F920F9200905F000F9211248F9399
S1130D70CF93DF93CDB7DEB781E080930401000009
S1130D80DF91CF918F910F9000925F000F901F9091
S1130D901895CF93DF9300D000D000D0CDB7DEB745
S1130DA06A837B838C839D834E8380E189838E81D8
S1130DB0882359F088E0898380EC90E020EC30E0CF
S1130DC0F90120812260FC0120838981282F30E0F1
S1130DD040E050E08A819B81AC81BD81BC01CD01A2
S1130DE00E94610A9B01AC0180E092E1AAE7B0E0B5
S1130DF0BC01CD010E94850ADA01C9010197A1094C
S1130E00B1098A839B83AC83BD8325EC30E08A815E
S1130E109B81AC81BD8188279F70AA27BB27892F1E
S1130E209A2FAB2FBB27F901808384EC90E02A81B1
S1130E30FC01208381EC90E021EC30E0F901208179
S1130E40286DFC01208382EC90E026E8FC012083DD
S1130E50000026960FB6F894DEBF0FBECDBFDF911B
S1130E60CF910895CF93DF931F92CDB7DEB78983D7
S1130E700000809104018823E1F31092040186ECC0
S1130E8090E02981FC01208300000F90DF91CF9135
S1130E900895CF93DF9300D000D0CDB7DEB79C8305
S1130EA08B831A8219822B813C8189819A81820FDA
S1130EB0931FFC0180810E94320789819A810196E7
S1130EC09A8389832B813C8189819A81820F931F24
S1130ED0FC018081882339F700000F900F900F9058
S1130EE00F90DF91CF9108951F920F9200905F00B1
S1130EF00F9211248F93CF93DF93CDB7DEB781E0A8
S1130F008093A2020000DF91CF918F910F90009205
S1130F105F000F901F901895FF920F931F93CF932C
S1130F20DF93CDB7DEB7C259D1090FB6F894DEBF4F
S1130F300FBECDBF80919D0190919E019C8B8B8BA8
S1130F402EE7CE014596FC01322F11923A95E9F72E
S1130F5041E060E970ED83E090E00E94C90660E83A
S1130F607AE186E090E00E94250661E087E191E065
S1130F700E94820160E087E191E00E94330161E018
S1130F808AE191E00E94820160E08AE191E00E949E
S1130F90330161E08DE191E00E94820160E08DE126
S1130FA091E00E94330160E084E191E00E948201BB
S1130FB089E690E029E630E0F90120812260FC0115
S1130FC020838DE390E021E0FC012083789486E087
S1130FD091E09093A8028093A70260E070E080E221
S1130FE091E00E9414020E94910083E590E023E5C1
S1130FF030E0F90120812160FC01208383E590E049
S113100023E530E0F9012081217F2460FC01208365
S113101080E591E00E9449078091A202882309F4A7
S1131020F6C080E291E00E94480285E00E940B0134
S11310309093A4028093A3021092A2020091A302AF
S11310401091A40280912001A82FB0E08091210189
S1131050E82FF0E080912201682F70E04091250193
S11310605091260180912401282F30E080912301A2
S1131070882F90E0F12EFF92102F1F931B2F1F93A8
S1131080AF93AF2FAF93EF93E72FEF936F93652F4A
S11310906F934F93432F4F932F93292F2F938F9316
S11310A089E591E0892F8F9389E591E08F930E94E0
S11310B0D50A2DB73EB7205F3F4F0FB6F894DEBF79
S11310C00FBECDBF80E291E00E94B302DC01CB01F0
S11310D089839A83AB83BC838C818F938B818F9319
S11310E08A818F9389818F938DE891E0892F8F93E3
S11310F08DE891E08F930E94D50A0F900F900F9086
S11311000F900F900F9061E08AE191E00E9433010B
S11311108091A3029091A4028337914008F472C095
S113112080E090E0A0E4B0E48D839E83AF83B88731
S113113020E030E04AEF54E46D817E818F81988510
S11311400E94CC09DC01CB0189879A87AB87BC87D5
S113115020E030E040E85FE369857A858B859C85F3
S11311600E94090988232CF481E090E09E878D87F2
S11311703FC020E03FEF4FE757E469857A858B85D0
S11311809C850E94C70918164CF520E030E040E227
S113119051E46D817E818F8198850E94CC09DC01A8
S11311A0CB01BC01CD010E940E09DC01CB019E875D
S11311B08D870FC088EC90E0988B8F878F859889F6
S11311C00197F1F7988B8F878D859E8501979E8770
S11311D08D878D859E85892B69F714C069857A85ED
S11311E08B859C850E940E09DC01CB019E878D872F
S11311F08D859E859A8B898B89899A890197F1F7C8
S11312009A8B898B60E08AE191E00E943301889592
S113121003CF0E947A0908F481E008950E94A60988
S113122088F09F5798F0B92F9927B751B0F0E1F0A3
S1131230660F771F881F991F1AF0BA95C9F714C053
S1131240B13091F00E94C009B1E008950C94C00936
S1131250672F782F8827B85F39F0B93FCCF386958C
S113126077956795B395D9F73EF4909580957095E9
S113127061957F4F8F4F9F4F0895E89409C097FB66
S11312803EF490958095709561957F4F8F4F9F4F59
S11312909923A9F0F92F96E9BB279395F69587959D
S11312A077956795B795F111F8CFFAF4BB0F11F460
S11312B060FF1BC06F5F7F4F8F4F9F4F16C0882307
S11312C011F096E911C0772321F09EE8872F762F3D
S11312D005C0662371F096E8862F70E060E02AF07E
S11312E09A95660F771F881FDAF7880F969587956A
S11312F097F90895990F0008550FAA0BE0E8FEEF3F
S113130016161706E807F907C0F012161306E407C5
S1131310F50798F0621B730B840B950B39F40A26BE
S113132061F0232B242B252B21F408950A2609F49C
S1131330A140A6958FEF811D811D089557FD9058FA
S1131340440F551F59F05F3F71F04795880F97FB85
S1131350991F61F09F3F79F087950895121613063F
S11313601406551FF2CF4695F1DF08C0161617066E
S11313701806991FF1CF86957105610508940895A3
S1131380E894BB2766277727CB0197F908950E9435
S11313907A0908F48FEF08950E94DF090C94500A2B
S11313A00E94420A38F00E94490A20F0952311F065
S11313B00C94390A0C943F0A11240C94C1090E941C
S11313C09E0970F3959FC1F3950F50E0551F629FDE
S11313D0F001729FBB27F00DB11D639FAA27F00D8A
S11313E0B11DAA1F649F6627B00DA11D661F829FB1
S11313F02227B00DA11D621F739FB00DA11D621F96
S1131400839FA00D611D221F749F3327A00D611DB2
S1131410231F849F600D211D822F762F6A2F112494
S11314209F5750409AF0F1F088234AF0EE0FFF1FC7
S1131430BB1F661F771F881F91505040A9F79E3F1E
S1131440510580F00C94390A0C94C1095F3FE4F310
S1131450983ED4F3869577956795B795F795E79574
S11314609F5FC1F7FE2B880F911D9695879597F97D
S1131470089597F99F6780E870E060E008959FEF12
S113148080EC089500240A94161617061806090617
S1131490089500240A9412161306140605060895E6
S11314A0092E0394000C11F4882352F0BB0F40F46E
S11314B0BF2B11F460FF04C06F5F7F4F8F4F9F4FAE
S11314C00895DB018F939F930E94A70ABF91AF9168
S11314D0A29F800D911DA39F900DB29F900D11248A
S11314E0089597FB072E16F4009407D077FD09D0D2
S11314F00E94B20A07FC05D03EF4909581959F4F57
S11315000895709561957F4F0895A1E21A2EAA1B44
S1131510BB1BFD010DC0AA1FBB1FEE1FFF1FA2179F
S1131520B307E407F50720F0A21BB30BE40BF50B9C
S1131530661F771F881F991F1A9469F76095709525
S1131540809590959B01AC01BD01CF0108950E9447
S1131550C60AA59F900DB49F900DA49F800D911D68
S113156011240895AA1BBB1B51E107C0AA1FBB1F6E
S1131570A617B70710F0A61BB70B881F991F5A951B
S1131580A9F780959095BC01CD010895A29FB00163
S1131590B39FC001A39F700D811D1124911DB29FA3
S11315A0700D811D1124911D0895A0E0B0E0EBEDB4
S11315B0FAE00C948C0DAE014B5F5F4FFA01619120
S11315C07191AF018091A7029091A8020E94EB0A49
S11315D0E2E00C94A80DABE0B0E0E1EFFAE00C948B
S11315E07C0D6C017B018A01FC01178216828381C8
S11315F081FFCCC1CE0101963C01F6019381F70134
S113160093FD859193FF81917F01882309F4BAC1E9
S1131610853239F493FD859193FF81917F01853261
S113162029F4B60190E00E94E20CE7CF912C212C22
S1131630312CFFE1F315D8F08B3279F038F4803295
S113164079F08332A1F4232D20611DC08D3261F025
S1131650803369F4232D216016C0832D8260382ED7
S1131660E32DE4603E2E2AC0F32DF8601DC037FC44
S11316702DC020ED280F2A3040F08E32B9F436FC0C
S113168081C1232D2064322E19C036FE06C08AE0A3
S1131690989E200D1124922E11C0EAE02E9E200D5A
S11316A01124222EF32DF0623F2E08C08C3621F433
S11316B0832D8068382E02C0883641F4F70193FDEB
S11316C0859193FF81917F018111B3CF982F9F7DE5
S11316D09554933028F40C5F1F4F9FE399830DC0FA
S11316E0833631F0833771F0833509F059C021C056
S11316F0F801808189830E5F1F4F88248394912C85
S1131700530113C02801F2E04F0E511CF801A080D0
S1131710B18036FE03C0692D70E002C06FEF7FEF29
S1131720C5010E94D70C4C018201F32DFF773F2E97
S113173016C0280122E0420E511CF801A080B1809D
S113174036FE03C0692D70E002C06FEF7FEFC50164
S11317500E94CC0C4C01F32DF0683F2E820133FC27
S11317601BC0822D90E088169906B0F4B60180E281
S113177090E00E94E20C2A94F4CFF50137FC8591A5
S113178037FE81915F01B60190E00E94E20C2110C6
S11317902A9421E0821A91088114910471F7E8C017
S11317A0843611F0893641F5F80137FE07C06081AF
S11317B07181828193810C5F1F4F08C060817181A8
S11317C0072E000C880B990B0E5F1F4FF32DFF762D
S11317D03F2E97FF09C090958095709561957F4F36
S11317E08F4F9F4FF0683F2E2AE030E0A3010E9404
S11317F01E0D882E861845C0853731F4232D2F7E83
S1131800B22E2AE030E025C0932D997FB92E8F3671
S1131810C1F018F4883579F0B5C0803719F08837ED
S113182021F0B0C0E92FE061BE2EB4FE0DC0FB2D47
S1131830F460BF2E09C034FE0AC0292F2660B22EE0
S113184006C028E030E005C020E130E002C020E11D
S113185032E0F801B7FE07C0608171818281938113
S11318600C5F1F4F06C06081718180E090E00E5FC5
S11318701F4FA3010E941E0D882E8618FB2DFF7793
S11318803F2E36FE0DC0232D2E7FA22E891458F430
S113189034FE0BC032FC09C0832D8E7EA82E05C0F9
S11318A0B82CA32C03C0B82C01C0B92CA4FE0FC0C3
S11318B0FE01E80DF11D8081803321F49A2D997E7B
S11318C0A92E09C0A2FE06C0B394B39404C08A2D05
S11318D0867809F0B394A3FC11C0A0FE06C0B2142C
S11318E088F4280C922C9B180EC0B21460F4B60134
S11318F080E290E00E94E20CB394F7CFB21418F4A3
S11319002B1802C0982C212CA4FE10C0B60180E331
S113191090E00E94E20CA2FE17C0A1FC03C088E77D
S113192090E002C088E590E0B6010CC08A2D86786C
S113193059F0A1FE02C08BE201C080E2A7FC8DE257
S1131940B60190E00E94E20C891438F4B60180E3F9
S113195090E00E94E20C9A94F7CF8A94F301E80D88
S1131960F11D8081B60190E00E94E20C8110F5CF58
S1131970222009F442CEB60180E290E00E94E20CFB
S11319802A94F6CFF6018681978102C08FEF9FEFEC
S11319902B96E2E10C94980DFC0105906150704087
S11319A00110D8F7809590958E0F9F1F0895FC0124
S11319B06150704001900110D8F7809590958E0F7A
S11319C09F1F08950F931F93CF93DF93FB012381F0
S11319D021FD03C08FEF9FEF2CC022FF16C046816C
S11319E05781248135814217530744F4A081B18182
S11319F09D012F5F3F4F318320838C932681378154
S1131A002F5F3F4F3783268314C08B01EC01FB010A
S1131A100084F185E02D0995892BE1F6D80116960D
S1131A208D919C911797019617969C938E93169778
S1131A30CE01DF91CF911F910F910895FA01AA274A
S1131A40283051F1203181F1E8946F936E7F6E5FFD
S1131A507F4F8F4F9F4FAF4FB1E03ED0B4E03CD0AB
S1131A60670F781F891F9A1FA11D680F791F8A1F8E
S1131A70911DA11D6A0F711D811D911DA11D20D0F5
S1131A8009F468943F912AE0269F11243019305DAF
S1131A903193DEF6CF010895462F4770405D4193A0
S1131AA0B3E00FD0C9F7F6CF462F4F70405D4A33ED
S1131AB018F0495D31FD4052419302D0A9F7EACFB5
S1131AC0B4E0A6959795879577956795BA95C9F7E4
S1131AD000976105710508959B01AC010A2E0694D7
S1131AE05795479537952795BA95C9F7620F731F90
S1131AF0841F951FA01D08952F923F924F925F92CD
S1131B006F927F928F929F92AF92BF92CF92DF9209
S1131B10EF92FF920F931F93CF93DF93CDB7DEB76E
S1131B20CA1BDB0B0FB6F894DEBF0FBECDBF099402
S1131B302A88398848885F846E847D848C849B8459
S1131B40AA84B984C884DF80EE80FD800C811B8167
S1131B50AA81B981CE0FD11D0FB6F894DEBF0FBE96
S10D1B60CDBFED010895F894FFCF06
S1131B6A014000F8010100000002000000003207F1
S1131B7A000000002B00022800032B0005250005A5
S1131B8A001200120A17000153756E004D6F6E00A1
S1131B9A5475650057656400546875004672690097
S1131BAA536174001F1C1F1E1F1E1F1F1E1F1E1F92
S1131BBA0D52656164790A0D0054696D653A2025F0
S1131BCA3032642D253032642D3230253032643B74
S1131BDA20253032643A253032643A253032643B67
S1131BEA204241543A20253033640D0A00554E49A7
S1131BFA582074696D6520256C750D0A0000000073
S1131C0A00000000000000000000000000000000C6
S1131C1A00000000000000000000000000000000B6
S1131C2A00000000000000000000000000000000A6
S1131C3A0000000000000000000000000000000096
S1131C4A0000000000000000000000000000000086
S1131C5A0000000000000000000000000000000076
S1131C6A0000000000000000000000000000000066
S1111C7A000000000000000000000000000058
S9030000FC
