S02600006D33323870625F6E65775F636F6E74726F6C6C65725F74656D706C6174652E737265631B
S11300000C9407050C948F090C9424050C94240576
S11300100C9424050C9424050C9424050C942405B8
S11300200C9424050C9424050C9424050C942405A8
S11300300C9424050C9424050C9424050C94240598
S11300400C9424050C9424050C9400090C942405A8
S11300500C9437090C9426050C9424050C9424055F
S11300600C9424050C9424050C9424050C94240568
S11300700C9424050C9424050C9424050C94240558
S11300800C9424050C9424050C9424050C94240548
S11300900C9424050C9424050C9424050C94390721
S11300A00C94AB070C9424050C9424050C9424059F
S11300B00C942405BF0203020304010204060A008F
S11300C0FE07FE0700017602F9093C2007D6F8F97D
S11300D02300210AD6F891B43B985300220BD6F89A
S11300E0932CC9929C37002310D6F8932C890629A7
S11300F0890629C9929C00240DD6F891704AC23110
S113010089C69C02250DD6F8A3A429092B51D294A3
S113011013260ED6F8C3244BC24A53A6E430002754
S113012009D6F891B4CE23002809D6F8A1B05AAE66
S1130130132909D6F8E36AB14E022A0ED6F8D12C57
S11301404AA2414AA22CA7022B0AD6F8F1341BB4C6
S113015034672C09D6F87913EB18002D09D6F8D991
S1130160069D1B002E09D6F8790BC71C022F0AD650
S1130170F8B134EC9AD3003010D6F8913089B22417
S11301804BB22809730A00310CD6F891504BD2B601
S1130190418701320CD6F8A72CCDB4301D74183326
S11301A00CD6B807350CE5248B7602340DD6F8A1AD
S11301B0504BA2D220A63901350DD6B807254D24BF
S11301C0294DB26827360DD6F8112D4C13494AB281
S11301D06827370BD6B807354CC36A4E02380DD69C
S11301E0F8A72CC9A2294BB26827390DD6F8A72C39
S11301F0892C6998E914003A0CD6F8F170CCC170D6
S1130200CC21003B0BD6F8F170CC41B18E013C09F6
S1130210D6F8B1B0B91D063D0AD6F889833EE88CFC
S1130220003E09D6F8E3C67612003F0BD6F8A72C99
S1130230ACE6604E01400CD6F8A72C89942E52BC33
S1130240134110D6F8913089B2244B06254BB21CC9
S113025006420CD6B8872C6ADAA2962127430BD61D
S1130260F8A72C49DBA29D00440BD6B8872CEA5F83
S1130270869C00450DD6B807254D87284D071D06D9
S1130280460CD6B807254D8728ADD300470CD6F8C1
S1130290A72C494B4A16ED044810D6B8B3244BB2E8
S11302A06450B2244BB21C064908D6F8C7B4E34ED6
S11302B04A0BD6F891316DAAE914004B0ED6B8B3A7
S11302C024AA64629245B51C064C09D6B8D35E07CD
S11302D01D064D0ED6B8B3244B2CDD922CC97218D2
S11302E04E0FD6B8B3244BA4A4939225590E034FB2
S11302F00ED6F8A72CC9922CC9922CDA09500DD627
S1130300B887284BB26488D23A0D510ED6F8A72C80
S1130310C9922CC992A639075210D6B887284BB275
S11303206488922CAAE53000530CD6F8A72C89E7F0
S1130330248B76025409D6B8072DED9D02550FD6AD
S1130340B8B3244BB2244BB2248B76025610D6B8E1
S1130350B3244BB228C9922C09730A00570ED6B89D
S1130360B3244BB2A42F962C8701580FD6B8B324CC
S11303708B92B012654996C300590CD6B8B3248B3E
S113038092306DA7005A0BD6B80735EC3AE8300026
S11303905B08D6F8B7B4EB4E5C09D6B8D3B86B0E8D
S11303A0035D08D6F8D7DE76025E0BD6F891308965
S11303B0B29C27005F08D6F8F93CE8006008D6B87C
S11303C0E29C5F00610DD6F8A97334245934E430FB
S11303D000620DD6B8D38A2425592225894E630B91
S11303E0D6F8A95396A459B413640ED6F8B134526E
S11303F04A4A9644961C06650BD6F8A953960C4AAD
S1130400BC13660CD6F8112D2A0E595A2701670F12
S1130410D6F8A94392255934A449164D00680ED63E
S1130420B8D38A2425599225590E03690AD6F8911E
S11304301C531B77026A0BD6F8B11C539BBA4900B4
S11304406B0DD6B8D35A12455B54CB61006C08D6F9
S1130450F8D51E77026D0BD6F8894A94F46F390CDF
S11304606E0ED6F889892425599225590E036F0CEE
S1130470D6F8A95396644916ED04700FD6F8898905
S113048024255922258994A600710DD6F8A94A4934
S1130490C992C8925600720BD6F889892425699DA1
S11304A006730AD6F8A9533C27434E740BD6F8D3E7
S11304B070C8D252A613750DD6F8895992255912CF
S11304C0597218760DD6F88959924549968439059A
S11304D0770CD6F8895992257D4A7202780DD6F8A0
S11304E0895994849528CB6100790ED6F88959925C
S11304F02591254DB268027A0BD6F88983D838E85D
S113050030007B0CD6F8212DCEE430D661007C0976
S1130510D6F891B4EF14007D0BD6F8E530D6E24C52
S1130520A7007E0AD6F8A3A453CE1B00A007D6F8D2
S1130530F92300A10AD6F8911C4CBB5300A20FD694
S1130540F8F170486A49968443964300A30DD6F89F
S1130550112D2A8E6994243A01A40DD6F88959B430
S113056025D994E53000A50ED6B8B3248B92301B60
S1130570B4B40E01A60BD6F891B40EA6750A00A762
S11305800DD6F8A7748BB2285BA31D01A807D678F3
S1130590EAFC01A90CD6F8A72C6991926ED14EAA57
S11305A00DD6F891A9454B7264C8A900AB0ED6F8D4
S11305B0C9511225511665518E02AC09D6F8198716
S11305C0346704AD09D6F819879C1B00AE0ED6F823
S11305D0A72C59122991922CDA09AF08D638069D16
S11305E09F01B00AD6F8913009731E01B10CD6F8F8
S11305F0F1341BB4341B7418B20BD6B8B4282C0EC7
S1130600393700B30AD678E64C8E768E00B408D615
S1130610F8C29C9F00B50FD6F88959922559222516
S113062089948300B610D6F88764499648C9922CF9
S1130630C9921C06B708D6F85973AE00B808D6F8A4
S1130640F929CC00B909D6B842B5B87304BA0CD6A6
S1130650F8112D6AD3A121A702BB0DD6F889511632
S113066065511225514EBC0DD67842B538855A12C3
S11306700D690CBD0DD67842B5B884491A8633008D
S1130680BE0ED638E430CEA4504BA221CD01BF0B10
S1130690D6F8911C4CC35AB413C00FD678E270CA72
S11306A0922C19942CC97218C10FD6F8C270CA9230
S11306B02C19942CC97218C210D6B8C2249BB22427
S11306C04B06254BB21C06C311D678A224D1A62C06
S11306D0C99241C9922C8701C410D678EAD09425D6
S11306E05932285992E53000C510D6B8C2249BB2BD
S11306F0244B06254BB21C06C60ED6F8912129358B
S11307000D43D4B4A300C70BD6F8A72C49DBA2B180
S113071008C80ED678C24149D3214AD3418701C9BA
S11307200ED6F8A24149D3214AD3418701CA0ED635
S1130730B8B24149D3214AD3418701CB0ED6784A76
S11307408392A64394A6830E03CC0AD678E2704C17
S11307501B7702CD0AD6F8C2704C1B7702CE0BD69B
S1130760B8C2241BD3C69D00CF0AD678EAD09836E7
S1130770EE04D00CD6B8872C6A59A22E434ED11160
S1130780D6B8922889B2444A3A295992E53000D21F
S11307900ED678E270CA922CC9922CDA09D30ED6FE
S11307A0F8C270CA922CC9922CDA09D40FD6B8C2F6
S11307B0249BB2244BB2248B7602D510D6B892284F
S11307C0C9A62CC9922CC9A29D00D60ED678EAD00F
S11307D0942559922559B413D70DD6F88959948480
S11307E09528CB6100D80ED6F8A74889941629918C
S11307F0A29D00D90ED678E2AC922559922559B41F
S113080013DA0ED6F8C2AC922559922559B413DBEB
S11308100FD6B8C22447B2244BB2248B7602DC0F25
S1130820D678EA4896644996644916ED04DD0DD6F7
S1130830F8C2AC92454998D62900DE0DD6B8D3212A
S1130840CA92214AEB3400DF0ED6F8A72C892A5924
S1130850544B129D00E00ED678E21C9BA321C9A242
S1130860218701E10ED6F8C21C9BA321C9A22187CE
S113087001E20FD6B8C22487E66848B268C86100AE
S1130880E30FD6B89228C9A1391A922C1A7218E427
S11308900ED6F8931C9AA321C9A2218701E50FD68D
S11308A0B8C2240CE76848B268C86100E60DD6F8FF
S11308B0A9439824C3940D3A0AE70CD6F8A9539691
S11308C0A459341601E80DD678E21C9BB26450E2B8
S11308D09D00E90DD6F8C21C9BB26450E29D00EA6B
S11308E00DD6B8C22487A62C19947827EB0DD6F818
S11308F0931C9AB26450E29D00EC0AD678E21C5331
S11309001B7702ED0AD6B8C21C541B7702EE0BD635
S1130910B8C22487D4C69D00EF0AD6F8931C521B94
S11309207702F00CD6B86D5396644916ED04F111B4
S1130930D6B89228C9914492922CC9922C8701F27C
S11309400DD678E21C9BB2244BB26827F30DD6F87F
S1130950C21C9BB2244BB26827F40ED6B8C22487BB
S1130960A62CC9922CDA09F50FD6B89228C9A12968
S11309704BB2248B7602F60DD6F8931C9AB2244B14
S1130980B26827F70AD6F8F11C1A742867F80DD64E
S1130990F8A94312292D5232E404F90FD678E21C47
S11309A0CA922CC992C892C300FA0FD6F8C21CCAC4
S11309B0922CC992C892C300FB10D6B8C22447B285
S11309C0244BB224B2E43000FC0FD6F8931CC99235
S11309D02CC992C892C300FD0FD6F8A130AB64496C
S11309E06449932C9A00FE0FD6F8D17488B2244B34
S11309F0B26488D214FF10D6F8931CC9922C892CA7
S1130A00699245130000000004FFFF000000112458
S1130A101FBECFEFD8E0DEBFCDBF12E0A0E0B1E053
S1130A20ECE3F3E302C005900D92A838B107D9F7BF
S1130A3025E0A8E8B2E001C01D92AE3EB207E1F79E
S1130A400E949E090C949C190C9400001F920F9212
S1130A500FB60F9211248F9381E0809300018F9140
S1130A600F900FBE0F901F901895ECE7F0E0808177
S1130A70806C8083EAE7F0E080818F68808308954A
S1130A80ECE7F0E09081907F90839081892B8083C4
S1130A900895EAE7F0E08081806880831092000185
S1130AA0808180648083809100018823E1F38091B8
S1130AB0780020917900EAE7F0E090819F779083B5
S1130AC090E0922B08950E9440050E944905BC01C4
S1130AD080E090E00E9444152DEC3EE148E95FE39C
S1130AE00E94AA150E941515CB01089561E081E0CA
S1130AF091E00E94C00561E087E091E00E94C0059A
S1130B0061E084E091E00E94C00561E081E091E051
S1130B100E94970561E087E091E00E94970561E0FB
S1130B2084E091E00E949705089580E0089566238B
S1130B3099F0DC01ED91FC91119721E030E0A901DD
S1130B4012960C9002C0440F551F0A94E2F7CA0192
S1130B509081892B80830895DC01ED91FC9111979C
S1130B6021E030E0A90112960C9002C0440F551FF9
S1130B700A94E2F7CA0180959081892380830895BD
S1130B80FC0190818181613099F018F06230F1F0BC
S1130B900895A92FB82F81E090E0028002C0880F49
S1130BA0991F0A94E2F780959E9189238C93089566
S1130BB0A92FB82F81E090E0028002C0880F991F0E
S1130BC00A94E2F79E91892B8C930895A92FB82F4C
S1130BD081E090E09C01028002C0220F331F0A943E
S1130BE0E2F720953E9123232C93A081B1810280CA
S1130BF002C0880F991F0A94E2F780959C9189237B
S1130C008C930895809188028061809388028091FA
S1130C10890281618093890222E030E04AE051E058
S1130C206BE082E30E945C0821E030E049E852E096
S1130C306DE082E30E945C0821E030E048E852E085
S1130C406FE082E30E945C080895982F92959F704C
S1130C50990F292F220F220F920F8F70890F089559
S1130C600F931F93CF93DF93CDB7DEB727970FB6BC
S1130C70F894DEBF0FBECDBF8C0127E030E0AE019B
S1130C804F5F5F4F60E082E30E94BC0789810E944E
S1130C902506F80180838A810E942506F801818354
S1130CA08B810E942506F80182838C8187838D8144
S1130CB00E942506F80183838E810E942506F8018F
S1130CC084838F810E94250690E0F80196838583B2
S1130CD027960FB6F894DEBF0FBECDBFDF91CF913C
S1130CE01F910F910895AF92BF92CF92DF92EF922E
S1130CF0FF920F931F93CF93DF93CDB7DEB72C975B
S1130D000FB6F894DEBF0FBECDBFFC01858196817E
S1130D10B82E0481A3803281C18020814CE0EAE3B3
S1130D20F1E0DE01119601900D924A95E1F7482F0A
S1130D30437069F449E2849F412D112442954F7018
S1130D40682F54E6459F60191124611107C0992743
S1130D5060E971E00E945316892B11F48DE18A83B6
S1130D608CE3C89E600111240D2C000CEE08FF08D2
S1130D7040E15EE0349FC001359F900D1124092E9F
S1130D80000CAA0BBB0BC80ED91EEA1EFB1EC20E1A
S1130D90D11CE11CF11C10E00150110910161106C0
S1130DA0DCF480E090E0E0E0A1E0B0E0AC0FBD1F37
S1130DB0A80FB91FAC91B0E020E831E541E050E064
S1130DC00E949816C60ED71EE81EF91EEF5F8E2FDE
S1130DD090E08017910744F3BB2069F120E030E0F4
S1130DE0E0E9F1E019E244E6822F837059F4219F8F
S1130DF0812D112482958F70922F849F9019112434
S1130E00911106C0C901BF010E945316892B39F400
S1130E105BE7D51A5DE1E50A5EEFF50A08C060E814
S1130E20C61A6CECD60A6EE1E60A6EEFF60A2F5F7C
S1130E303F4F2B15C8F2AA2DB0E0119720E831E5F9
S1130E4041E050E00E94A3166C0D7D1D8E1D9F1D78
S1130E502C960FB6F894DEBF0FBECDBFDF91CF91B5
S1130E601F910F91FF90EF90DF90CF90BF90AF90C4
S1130E7008951F920F920FB60F9211248F938091B1
S1130E80AD0086FF04C081E080938A0203C081E044
S1130E9080938A028F910F900FBE0F901F90189528
S1130EA061E082E191E00E94C00561E082E191E0AD
S1130EB00E94970561E08CE091E00E94C00561E02A
S1130EC08CE091E00E94970561E08FE091E00E9440
S1130ED0C00560E08FE091E00E949705ECEAF0E045
S1130EE08081806D808380818083EDEAF0E0808161
S1130EF081608083089585EA8093DC0080E496E035
S1130F0002C0019731F0209115012830D1F780E01B
S1130F10089581E0089585E88093DC0080E496E0FC
S1130F2002C0019731F0209115012831D1F780E0FA
S1130F30089581E0089585E88093DC0080E496E0DC
S1130F4002C0019731F0209115012832D1F780E0D9
S1130F50089581E008951F920F920FB60F92112405
S1130F608F938091D900887F809315018F910F9082
S1130F700FBE0F901F901895CF92DF92EF92FF92C1
S1130F800F931F93CF93DF93F82EE62E6A01890106
S1130F900E947B07882321F095E99093DC0083C0AD
S1130FA08F2D880F8093DB000E948B07882321F00C
S1130FB095E99093DC0077C0E092DB000E949B07E8
S1130FC0882321F095E99093DC006DC085EA809335
S1130FD0DC0080E496E002C0019769F120911501DC
S1130FE02031D1F72DC0019709F43BC020911501A0
S1130FF02034C9F730C0F60140E050E0ACEDB0E079
S113100025ECCBEDD0E02C9380E496E002C0019770
S113101069F1309115013035D1F72DC085E8809301
S1131020DC0080E496E002C0019771F12091150183
S11310302835D1F72EC085E98093DC0081E033C0E8
S11310408F2D880F81608093DB0085E88093DC001E
S113105080E496E0CBCF0150110969F640E050E0FE
S1131060DDCF85E98093DC0081E01DC085E98093B4
S1131070DC0081E018C0888181934F5F5F4F401787
S1131080510708F4C0CFCACF85E98093DC0081E022
S11310900AC08091DB00E601C40FD51F888385E96F
S11310A08093DC0080E0DF91CF911F910F91FF903E
S11310B0EF90DF90CF900895EF92FF920F931F93DC
S11310C0CF93DF93C82FD62F7A0189010E947B0723
S11310D0882321F095E99093DC0033C0CC0FC093B2
S11310E0DB000E948B07882321F095E99093DC00B4
S11310F028C0D093DB000E949B07811104C0011516
S1131100110529F41AC095E99093DC001AC0E7018F
S11311100E0D1F1D0F2EFBEDEF2EF12CF02D8991DE
S1131120F70180830E949B07882321F095E990931F
S1131130DC0007C00C171D0791F785E98093DC00DC
S113114080E0DF91CF911F910F91FF90EF90089570
S1131150EF92FF920F931F93CF93DF93C82F7B01DE
S11311608A010E947B07882321F095E99093DC0093
S113117029C0CC0FC093DB000E948B07811104C0EF
S11311800115110529F41AC095E99093DC001AC0E1
S1131190E7010E0D1F1D0F2EFBEDEF2EF12CF02D90
S11311A08991F70180830E949B07882321F095E9A8
S11311B09093DC0007C00C171D0791F785E9809315
S11311C0DC0080E0DF91CF911F910F91FF90EF90B1
S11311D008959B01AC0160E072E18AE790E00E940F
S11311E06716DA01C9014097A109B109B695A79517
S11311F0979587958093D80085E08093DC000895C7
S11312001F920F920FB60F9211248F939F93EF9317
S1131210FF93E0910B03F0910C038091C600E55716
S1131220FD4F8083E0910B03F0910C03E557FD4FD4
S113123080818D3051F481E080931601E0910B039D
S1131240F0910C03E557FD4F118280910B039091AF
S11312500C03019690930C0380930B03FF91EF9181
S11312609F918F910F900FBE0F901F9018951F9212
S11312700F920FB60F9211248F9381E08093170180
S11312808F910F900FBE0F901F901895442339F043
S1131290E0ECF0E0208122602083A8E001C0A0E11E
S11312A0B0E09B01AC010E9498169B01AC0160E088
S11312B072E18AE790E00E946716BA01A9014150E1
S11312C0510961097109DB01CA0188279F70AA27A6
S11312D0BB27892F9A2FAB2FBB278093C500409340
S11312E0C400E1ECF0E08081886D808386E880931F
S11312F0C2000895909117019923E1F31092170108
S11313008093C6000895CF93DF93EC0189910E94E6
S11313107A0988818111FACFDF91CF9108951F92C4
S11313200F920FB60F9211248F9381E080930F03D5
S11313308F910F900FBE0F901F901895CF93DF934E
S1131340CDB7DEB7C058D1090FB6F894DEBF0FBED3
S1131350CDBF80914601909147019A838983FE0114
S113136033968EE7DF011D928A95E9F741E060E943
S113137070ED83E090E00E94460960E87AE186E03F
S113138090E00E94E90861E086E291E00E94C005D5
S113139060E086E291E00E94970561E083E291E0DB
S11313A00E94C00560E083E291E00E94970561E03D
S11313B080E291E00E94C00560E080E291E00E943A
S11313C0970560E089E291E00E94C005E9E6F0E05B
S11313D080818260808381E08DBB78948CE291E08F
S11313E09093EB058093EA0560E070E088E191E07A
S11313F00E9402060E9435050E9450070E9476054D
S113140025E935E045E352E16DE172E082E395E0E0
S11314100E94550B8CE38093480583B7816083BF9A
S113142083B7817F846083BF86EC91E00E94830947
S113143082E395E00E94FA1360E082E395E00E9463
S1131440051461E082E395E00E94101468E782E3EA
S113145095E00E941B1482E395E00E942E0B64EB3E
S113146070E082E395E00E948C0F2FEC31E04AE0BB
S113147050E061E070E082E395E00E94360F82E381
S113148095E00E94440B0F2EF9ED8F2EF1E09F2E74
S1131490F02D8E010F5F1F4F0F2EF0EFAF2EF1E0F6
S11314A0BF2EF02D0F2EF5E0CF2EF2E0DF2EF02D23
S11314B00F2EFFE06F2EF2E07F2EF02D80910F03B0
S11314C0882309F47DC088E191E00E94300685E01C
S11314D00E94630590930E0380930D0310920F03F3
S11314E00F2EF8E1EF2EF1E0FF2EF02DF7018681AB
S11314F08F9385818F9384811F928F9383811F9211
S11315008F939F928F921F930F930E94B21698010C
S113151048E050E061E070E082E395E00E94360F1D
S1131520D7018C911F928F9311968C9111971F92D2
S11315308F9312968C911F928F93BF92AF921F93A9
S11315400F930E94B216980141E150E061E070E00F
S113155082E395E00E94360F80910E038F93809171
S11315600D038F93DF92CF921F930F930E94B216B5
S1131570980149E150E061E070E082E395E00E9467
S1131580360FC7010E9473069F938F937F936F93C7
S11315907F926F921F930F930E94B2160FB6F89426
S11315A0DEBF0FBECDBF980140E250E061E070E0C5
S11315B082E395E00E94360F82E395E00E94440B9B
S11315C088957CCFAF92BF92CF92DF92EF92FF9239
S11315D00F931F93CF93DF937C01DC019496BC900F
S11315E094979596DC919597ED91FC91A188CD2FD8
S11315F0C12CD12CD701ED91FC91119720899296A1
S11316000D911C919397422F50E0440F551F440FA6
S1131610551F440F551F4C9DC0014D9D900D5C9D61
S1131620900D1124080F191F4C2F60E0C7010E9470
S1131630CC13CF5F8C2F8D1B8B1528F4BFEFCB1AE7
S1131640DB0ACA15B8F2DF91CF911F910F91FF9079
S1131650EF90DF90CF90BF90AF900895FC01A081F0
S1131660B18150969C9144A1949FA0011124440FF0
S1131670551F440F551F440F551F60E070E082A1B1
S113168093A10E94AB160895CF93DF93EC010E94BF
S1131690E20ACE010E942614DF91CF91089524E03E
S11316A0FC01208380E193E00895CF92DF92EF92D2
S11316B0FF920F931F93CF93DF931F92CDB7DEB7A3
S11316C07C016B0189019A0141E153E162EC74E10F
S11316D00E94EF14CE0101960E944F0B860128E868
S11316E030E14981BC01C7010E94C5110F90DF910F
S11316F0CF911F910F91FF90EF90DF90CF900895BD
S1131700FC01E60FF11D849190E0982F8827319613
S1131710E4918E0F911D089580E090E008950F9359
S11317201F93CF93DF93EC018B01FB01849188839A
S11317303196E491E983FB013296E491EA83FB015B
S11317403396E491EB83FB013496E491EC83FB0143
S11317503596E491ED83FB013696E491EE83FB012B
S11317603796E491EF83FB013896E491E887FB0117
S11317703996E491E987FB013A96E491EA87FB0103
S11317803B96E491EB87FB013C96E491EC87FB01EB
S11317903D96E491ED87FB013E96E491EE87FB01D3
S11317A03F96E491EF87FB017096E491E88B61E149
S11317B0C8010E94800B9A8B898B63E1C8010E9447
S11317C0800B9C8B8B8B65E1C8010E94800B9E8BE8
S11317D08D8BDF91CF911F910F910895DC011A96A3
S11317E09C911A97ED91FC911197249130E0092E68
S11317F002C0359527950A94E2F7892F860F883021
S113180010F4E22F0FC031961196FC93EE93E491FD
S1131810F0E038E0391B02C0EE0FFF1F3A95E2F703
S1131820E22B88501A968C9381E090E002C0880FD6
S1131830991F6A95E2F781508E2308950F931F93A1
S1131840CF93DF938C01EC01C85BDF4F798368830E
S11318501A86FC01E55AFF4F6081CE010E94EE0B0F
S11318608887F801E45AFF4F6081CE010E94EE0B95
S11318708987F801EC58FF4F80818C8791E08111B2
S113188090E09D87DF91CF911F910F910895CF93A1
S1131890C62F0E94EE0BC15021E030E002C0220F9F
S11318A0331FCA95E2F7821BCF910895213049F086
S11318B018F0223059F00FC0840F911D47FD9A95FE
S11318C00895860F911D67FD9A950895841B9109CB
S11318D047FD93950895861B910967FD9395089597
S11318E0213049F018F0223059F00FC0860F911DB5
S11318F067FD9A950895841B910947FD9395089572
S1131900861B910967FD93950895840F911D47FDEA
S11319109A9508952F923F924F925F926F927F9281
S11319208F929F92AF92BF92CF92DF92EF92FF92EB
S11319300F931F93CF93DF934C01D62F342EFC01CA
S1131940E85BFF4F568017817F013C01E4E76E0E90
S1131950711CF701C085C5192D2ECD1708F42C2E46
S1131960F701C480D5800685412E202F412F652D97
S1131970828193810E94700C5C01202F412F652D80
S1131980C6010E94560C332061F0F7012485F3014F
S11319902083222D30E0AC01B501C4010E94B20FB6
S11319A00EC0F701238521110AC02585F301208388
S11319B0222D30E0AC01B501C4010E94B20FDC1746
S11319C020F0DC1B1F5F512CC4CFF401E85BFF4FF8
S11319D0D50DD6834782DF91CF911F910F91FF9050
S11319E0EF90DF90CF90BF90AF909F908F907F90BB
S11319F06F905F904F903F902F9008956F927F92D9
S1131A008F929F92AF92BF92CF92DF92EF92FF920A
S1131A100F931F93CF93DF93EC017C0188E4E80ECE
S1131A20F11CCE010E941E0CFE01EF5AFF4F608094
S1131A303C966081C7010E94470C982EFE01E25A31
S1131A40FF4F6081C7010E94470C182FFE01E15A25
S1131A50FF4F6081C7010E94470C782EF7018084F4
S1131A6018140CF0A4C00685160D1195202F412FD3
S1131A70692D828193810E94700C6C01F70193831C
S1131A808283202F412F692D848195810E94560CD9
S1131A90F70195838483013089F028F00230F9F04E
S1131AA0033099F143C09601280D311D87FC3A9506
S1131AB08C01060D111D67FC1A953AC041E050E0F7
S1131AC04619510967FC539596012F5F3F4F8C01CE
S1131AD0080D111D87FC1A95C40ED51E29C041E0BE
S1131AE050E0BA016819710987FC739596012F5F5C
S1131AF03F4F4619510967FC53958C010F5F1F4FE7
S1131B00840F951FC60ED71E13C09601260D311DD6
S1131B1067FC3A9541E050E04819510987FC539518
S1131B208C010F5F1F4F840F951F02C08C0196011B
S1131B30AC01B601CE010E9463108823C1F1FE01FD
S1131B40E85BFF4F168217824E01F9E58F0E911C58
S1131B505E018AE5A80EB11C6E01E8E4CE0ED11C2C
S1131B60F4016081C7010E94EE0B082FF50160812A
S1131B70C7010E94EE0B182F40E0602FCE010E9497
S1131B808A0C41E0612FCE010E948A0C61E0C701FA
S1131B900E94EE0B8111F0CFF6018781861504F3C4
S1131BA0FE01EC58FF4FC85BDF4F8C858083872D87
S1131BB0DF91CF911F910F91FF90EF90DF90CF9025
S1131BC0BF90AF909F908F907F906F900895EF9209
S1131BD0FF920F931F93CF93DF93FC01EC5BFF4FB6
S1131BE0C081D18167966F3F710511F008F035C04F
S1131BF06136710530F0B69680819181C80FD91F86
S1131C000AC06134710538F0FC01E859FF4F808146
S1131C109181C80FD91FCE010196FC012491222382
S1131C2009F45AC0FE01249130E06217730751F49D
S1131C3006C0FE01249130E06217730719F4CE0147
S1131C40029652C0FC018491C80FD11DCE010196A9
S1131C50FC0124912111EDCF42C08B01FC01E45918
S1131C60FF4F80819181C80FD91F7E0160E0C701B9
S1131C700E94800BC80FD91F62E0C7010E94800B2D
S1131C80F4E0EF0EF11C8017910780F3FE018491BC
S1131C9090E0982F88273196E4918E2B009711F1CC
S1131CA00817190739F403C00817190719F4CE01E6
S1131CB003961AC0FE013296E491CE0FD11DFE01A7
S1131CC0849190E0982F88273196E4918E2B009789
S1131CD059F780E090E008C080E090E005C080E023
S1131CE090E002C080E090E0DF91CF911F910F91CE
S1131CF0FF90EF900895CF92DF92EF92FF920F93AF
S1131D001F93CF93DF93EC017B018A016901FC01EE
S1131D10EA5AFF4F8081813089F028F08230C9F07F
S1131D20833011F12BC0FE01EA5BFF4F0190F0817B
S1131D30E02DCE010995080F191F20C0FE01EA5BB2
S1131D40FF4F0190F081E02DCE010995E81AF90AC0
S1131D5015C0FE01EA5BFF4F0190F081E02DCE013A
S1131D600995081B190B0AC0FE01EA5BFF4F01909D
S1131D70F081E02DCE010995E80EF91EFE01E65B27
S1131D80FF4FF182E082329611830083B601CE01C7
S1131D900E94E70D009741F0BC01CE010E94FE0CA9
S1131DA0082E000C990B02C080E090E0DF91CF91E7
S1131DB01F910F91FF90EF90DF90CF9008958F9235
S1131DC09F92AF92BF92CF92DF92EF92FF920F93C6
S1131DD01F93CF93DF93EC015B016A01E22EF32E94
S1131DE00E9402120E2D1F2DE12CF12C4E0126E52E
S1131DF0820E911CF80161918F01EA81FB81CE0171
S1131E0009958F3FFFEF9F0719F18E3F2FEF920740
S1131E1089F39C01A601B501CE010E947B0E9C01B1
S1131E20F4019081913049F028F0923049F09330D8
S1131E3051F00BC0A20EB31E08C0C20ED31E05C0C3
S1131E40A21AB30A02C0C21AD30AE20EF31ED2CFF8
S1131E50C701DF91CF911F910F91FF90EF90DF9019
S1131E60CF90BF90AF909F908F900895E5EFF1E1F0
S1131E70DC011396FC93EE9312970E94DF0E0895F3
S1131E80FC01EC5BFF4F20813181232BE1F1B09603
S1131E9020813C9620833B9740813C964083329737
S1131EA03081332381F1313079F43997308123172C
S1131EB014F43A963083FC01E959FF4F208124172A
S1131EC014F53A9620830895FC01EF59FF4FE08101
S1131ED0DC01AD59BF4F5C91022E000C330B652F12
S1131EE0052E000C770B6E0F711DE7FD7A952617F2
S1131EF037071CF41D96E50FEC93541724F4FC01EA
S1131F00EF58FF4F508308958A5B9F4F2CE83BE0C6
S1131F10FC01318320830895CF93DF93FC01EC5BB4
S1131F20FF4F208131812617370751F0EC0171836F
S1131F306083895A9F4F0E948F0BCE010E94400FED
S1131F40DF91CF9108950F93DC019A96ED91FC9166
S1131F509B974E1B5F0B5E96ED91FC915F970995E5
S1131F600F910895EF92FF920F931F93CF93DF93F6
S1131F70DA01FC01E259FF4F5081552309F483C073
S1131F802115310509F47FC02230310570F002308B
S1131F9029F46F5F7F4F621B730B0BC0033029F46E
S1131FA01196A21BB30BF1E037C0F02FF17000FDC6
S1131FB033C0EC0148AD59ADA417B50708F463C0AC
S1131FC04AAD5BADA417B50708F05DC04EA95FA983
S1131FD0ECA9FDA9260F371F2617370740F464170D
S1131FE0750720F49A012150310905C0BF01641717
S1131FF0750708F048C0E217F30708F044C06E17ED
S11320007F0708F4BF012417350708F4A9019A01D2
S1132010261B370BF0E02DC0EC014CA95DA9641719
S1132020750788F14EA95FA96417750760F54AAD75
S11320305BAD08AD19AD2A0F3B1F2A173B0740F4CF
S1132040A417B50720F49A012150310904C0D8011E
S1132050A417B507C0F402171307A8F4A017B10713
S113206008F4D8012417350708F4A9019A012A1B9A
S11320703B0BEC0148A159A1EA01EC80FD800F2F34
S1132080AD01F7010995DF91CF911F910F91FF9059
S1132090EF9008954617570748F48217930778F08E
S11320A081E02417350770F080E0089582179307C4
S11320B040F481E02417350728F080E0089581E09A
S11320C0089580E00895CF92DF92EF92FF920F93EC
S11320D01F93CF93DF93EC017B01690198016AADF3
S11320E07BAD88AD99AD0E944A10882341F06EA95A
S11320F07FA99601A7018CA99DA90E944A10DF918E
S1132100CF911F910F91FF90EF90DF90CF900895A2
S1132110CF92DF92FF920F931F93CF93DF936C01C3
S1132120D901342F377081E090E0032E02C0880F6C
S1132130991F0A94E2F7182FF601EC58FF4F2081FB
S1132140223020F4213021F0282F04C020E002C0E6
S1132150282F10E0487FE6018AA19BA1E881F9813C
S1132160F088F49EF001F59EF00D11246E0F7F1F90
S1132170FC01E60FF71F01110AC0AE0FBF1F8081DB
S1132180822B81278193EA17FB07C9F722C0A60196
S11321904C585F4F9081922B912790833F5F37700B
S11321A0119731110EC0E6018EA19FA1E80FF91F0E
S11321B0EA019881923040F4913041F011E021E03D
S11321C006C0220F110F03C011E001C021E01097D7
S11321D009F7DF91CF911F910F91FF90DF90CF907E
S11321E00895CF93DF93FC01A081B18184A190E095
S11321F09C01220F331F220F331F220F331F31A7DD
S113220020A750962C91509730E0220F331F220FB5
S1132210331F220F331F37A326A375A1472F50E086
S11322209A01220F331F220F331F220F331F33A7AC
S113223022A751966C915197480F591FC62FD0E091
S1132240C417D50718F4CE01871B910935A724A715
S1132250880F991F880F991F880F991F820F931F4A
S113226097A786A754968D919C91559791AB80AB77
S113227056968D919C91579793AB82ABDF91CF91FA
S113228008950E94F11008950F931F93CF93DF9345
S1132290EC01FC01EE5BFF4F008111812EAD3FADDF
S11322A03297408151816CAD7DAD0E9463108111E4
S11322B004C0C259DF4F18822FC081E0FE01E259E9
S11322C0FF4F80838CAD9DAD2CA93DA928173907FC
S11322D010F49DAB8CAB8EAD9FAD2EA93FA9821798
S11322E0930710F49FAB8EABFE01E05CFF4F80813F
S11322F0918128AD39AD2817390710F499AF88AF0B
S1132300FE01EE5BFF4F808191812AAD3BAD8217C8
S1132310930710F49BAF8AAFDF91CF911F910F9178
S11323200895FC0115AA14AA80A991A997AB86ABBC
S113233084A595A591AF80AF86A597A593AF82AFED
S1132340CF010E94441108950F930E94A30F0F918F
S11323500895DC01DD961C921E92DC97FC01E05C82
S1132360FF4F118210822FEF3FEFFC0137AF26AFF2
S1132370EE5BFF4F318320839096ED91FC91919712
S11323800280F381E02D099508950F931F93CF9355
S1132390DF93EC01FC01EC5BFF4F118210823F8F55
S11323A02E8F7BA36AA34CA31DA23F961082B096E6
S11323B0108234971082359681E080833196808331
S11323C019A308A3D801ED91FC91CE010995CE0182
S11323D00E94A911CE010E94840FCA5ADF4F1882AD
S11323E0DF91CF911F910F910895662329F06A30F0
S11323F031F0862F90E008958FEF9FEF08958FEFCF
S11324009FEF0895FC01108E08959A01DC0118963F
S1132410ED91FC911997462F67E109950895CF93A3
S1132420DF931F92CDB7DEB76983AE014F5F5F4F75
S113243061E00E9405120F90DF91CF910895DC01B5
S11324401896ED91FC91199720E030E040E068E1A6
S113245009950895DC011896ED91FC91199720E0F7
S113246030E040E069E109950895D9016831F1F05F
S113247028F4643139F0673139F028C06931D1F07A
S1132480603221F581E00895442311F180913005F3
S1132490480F9D91E82FF0E0E05FFA4F90838F5F43
S11324A04813F7CF4093300581E00895109230052A
S11324B081E008954091300550E0FC01868960E197
S11324C075E090E00E94A80881E0089580E00895F6
S11324D081E00895EF92FF921F93CF93DF93EC0175
S11324E0162F7A010E941F1260E4CE010E940F127F
S11324F0E885F9859701412F67E1CE010995CE0161
S11325000E942A12DF91CF911F91FF90EF900895BE
S1132510462FDC011696ED91FC91179720E030E0F0
S113252065E109950895462FDC011696ED91FC911D
S1132530179720E030E066E1099508959A01DC01DF
S11325401696ED91FC911797462F67E1099508952A
S1132550DC011696ED91FC91179720E030E040E005
S113256068E109950895DC011696ED91FC911797A1
S113257020E030E040E069E109950895EF92FF9290
S11325800F931F93CF93DF931F92CDB7DEB77C01D8
S11325908B01D8016C916731C1F018F4653130F4C6
S11325A038C06A31F8F06E3F51F133C0F80141810F
S11325B04983D7011696ED91FC91179720E030E0FE
S11325C0C70109950E5F1F4FE4CFF801818189830C
S11325D0AE014F5F5F4F61E0C7010E949E120E5F24
S11325E01F4FD7CF0F5F1F4FD7011696ED91FC9168
S11325F0179720E030E040E0C7010995CACFF80101
S11326004181498369E2C7010E94CD140E5F1F4FC7
S1132610C0CF0F90DF91CF911F910F91FF90EF905A
S11326200895EF92FF920F931F93CF937C01C42FD1
S11326308901663129F130F4643109F442C065310D
S113264049F062C0683109F450C0F8F0693109F406
S113265050C05AC080913105882319F0C7010E94E7
S11326602A12C7010E941F1260E0C7010E940F12C4
S11326706C2FC7010E940F1281E08093310545C081
S1132680642F0E940F1281E040C08091310588239D
S113269019F0C7010E942A12C93150F0A80168E15B
S11326A0C7010E946A12C851085E1F4FC931B0F7B2
S11326B0A8016C2FC7010E946A121092310581E0B3
S11326C024C0DC0156968C9156978F3F19F488E705
S11326D056968C93D7011896ED91FC911997980111
S11326E04C2F64E1C701099510C01092310581E0B7
S11326F00CC080913105882319F0C7010E942A1269
S11327001092310581E001C080E0CF911F910F91BB
S1132710FF90EF900895FC0171836083FB0122898F
S1132720FC01248B0895CF93DF93EC01EA85FB85AC
S113273020E030E040E068E20995EE81FF8120E08E
S113274030E040E064E1CE01099541E06BE4CE0164
S11327500E94CD14E881F981448169E2CE010E948E
S1132760CD1440E06BE4CE010E94CD14E881F981E0
S1132770448169E2CE010E94CD1441E06BE4CE01B4
S11327800E94CD14E881F981458169E2CE010E945D
S1132790CD14DF91CF9108950F931F93CF93DF93BF
S11327A000D000D01F92CDB7DEB76C834D832B834E
S11327B01A830983DC011496ED91FC9115979E010F
S11327C02F5F3F4F41E06FE009950F900F900F90FE
S11327D00F900F90DF91CF911F910F910895DC011D
S11327E01496ED91FC91159720E030E040E069E00B
S11327F009950895DC011496ED91FC91159720E05C
S113280030E040E06AE009950895462FDC01149613
S1132810ED91FC91159720E030E06BE00995089567
S1132820462FDC011496ED91FC91159720E030E0E1
S11328306DE009950895462FDC011496ED91FC9105
S1132840159720E030E06EE009950895DC011496B8
S1132850ED91FC91159720E030E040E060E10995AE
S11328600895EF92FF920F931F93CF93DF938C0100
S1132870C42F79016D3019F128F46A3049F06B30B6
S113288081F078C06E30B9F16F3009F443C072C082
S11328900E94931363E572E0C8010E94BE1281E0B6
S11328A06AC0411106C06EE472E00E94BE1281E06B
S11328B062C069E472E00E94BE1281E05CC0411112
S11328C00DC062E472E00E94BE12D801ED91FC9149
S11328D01197828954968C9381E04DC06BE372E02A
S11328E00E94BE12D801ED91FC91119783895496F0
S11328F08C9381E040C00E94A81261E8C8010E9444
S113290088126C2FC8010E949312C8010E94B3124E
S113291081E031C00E94A812F701D381DD0FDD0FE1
S1132920DD0FD80154968C91D80F6D2F62956F707E
S11329306061C8010E9488126D2F6F70C8010E94E7
S11329408812F7016481606BC8010E948812D70164
S11329504D915C91119712966C91660F660F660FFC
S1132960C8010E949E12C15091F7C8010E94B3127F
S113297081E001C080E0DF91CF911F910F91FF9022
S1132980EF900895693031F463E272E00E948B1392
S113299081E008950E9431140895DC011A96ED91A6
S11329A0FC911B9720E030E00995089580E008959C
S11329B0FC011182108286ED94E1958384839783D0
S11329C086839187808793878287158A108E1486E1
S11329D01586168617868FEF868B828F0895AF92A1
S11329E0BF92CF92DF92EF92FF920F931F93CF93F8
S11329F0DF93EC015B016A0179010E94D814BD8266
S1132A00AC82DF82CE82F986E8861B870A87CE01F4
S1132A100E94EF13DF91CF911F910F91FF90EF90E0
S1132A20DF90CF90BF90AF9008950E94891588F0F1
S1132A309F5798F0B92F9927B751B0F0E1F0660F7E
S1132A40771F881F991F1AF0BA95C9F714C0B130BF
S1132A5091F00E94A315B1E008950C94A315672F7B
S1132A60782F8827B85F39F0B93FCCF386957795EE
S1132A706795B395D9F73EF49095809570956195D7
S1132A807F4F8F4F9F4F0895E89409C097FB3EF402
S1132A9090958095709561957F4F8F4F9F4F9923A7
S1132AA0A9F0F92F96E9BB279395F6958795779525
S1132AB06795B795F111F8CFFAF4BB0F11F460FFE5
S1132AC01BC06F5F7F4F8F4F9F4F16C0882311F03D
S1132AD096E911C0772321F09EE8872F762F05C051
S1132AE0662371F096E8862F70E060E02AF09A95EC
S1132AF0660F771F881FDAF7880F9695879597F9E1
S1132B00089557FD9058440F551F59F05F3F71F0D9
S1132B104795880F97FB991F61F09F3F79F0879540
S1132B200895121613061406551FF2CF4695F1DFC9
S1132B3008C0161617061806991FF1CF8695710559
S1132B40610508940895E894BB2766277727CB018D
S1132B5097F908950E94BD150C942E160E94201614
S1132B6038F00E94271620F0952311F00C941716C4
S1132B700C941D1611240C94A4150E94811570F355
S1132B80959FC1F3950F50E0551F629FF001729F0E
S1132B90BB27F00DB11D639FAA27F00DB11DAA1F1D
S1132BA0649F6627B00DA11D661F829F2227B00D6A
S1132BB0A11D621F739FB00DA11D621F839FA00DF5
S1132BC0611D221F749F3327A00D611D231F849F45
S1132BD0600D211D822F762F6A2F11249F5750409C
S1132BE09AF0F1F088234AF0EE0FFF1FBB1F661F17
S1132BF0771F881F91505040A9F79E3F510580F0E0
S1132C000C9417160C94A4155F3FE4F3983ED4F388
S1132C10869577956795B795F795E7959F5FC1F783
S1132C20FE2B880F911D9695879597F9089597F92E
S1132C309F6780E870E060E008959FEF80EC08955E
S1132C4000240A9416161706180609060895002487
S1132C500A9412161306140605060895092E039401
S1132C60000C11F4882352F0BB0F40F4BF2B11F475
S1132C7060FF04C06F5F7F4F8F4F9F4F0895AA1B63
S1132C80BB1B51E107C0AA1FBB1FA617B70710F053
S1132C90A61BB70B881F991F5A95A9F78095909585
S1132CA0BC01CD01089597FB072E16F4009407D0BC
S1132CB077FD09D00E943F1607FC05D03EF490959D
S1132CC081959F4F0895709561957F4F0895A1E276
S1132CD01A2EAA1BBB1BFD010DC0AA1FBB1FEE1F92
S1132CE0FF1FA217B307E407F50720F0A21BB30BDD
S1132CF0E40BF50B661F771F881F991F1A9469F759
S1132D0060957095809590959B01AC01BD01CF01B4
S1132D100895A29FB001B39FC001A39F700D811DB0
S1132D201124911DB29F700D811D1124911D0895D0
S1132D300E948916A59F900DB49F900DA49F800DAD
S1132D40911D11240895B7FF0C9498160E949816AB
S1132D50821B930B0895DC0101C06D9341505040D8
S1132D60E0F70895AEE0B0E0E8EBF6E10C947319F7
S1132D700D891E8986E08C831A8309838FEF9FE770
S1132D809E838D83AE01475E5F4F6F89788DCE0140
S1132D9001960E94D416EF81F885E00FF11F10828E
S1132DA02E96E4E00C948F19ABE0B0E0EAEDF6E186
S1132DB00C9465196C017B018A01FC01178216824F
S1132DC0838181FFCCC1CE0101963C01F601938140
S1132DD0F70193FD859193FF81917F01882309F485
S1132DE0BAC1853239F493FD859193FF81917F01B6
S1132DF0853229F4B60190E00E94CB18E7CF912CDC
S1132E00212C312CFFE1F315D8F08B3279F038F412
S1132E10803279F08332A1F4232D20611DC08D32DC
S1132E2061F0803369F4232D216016C0832D826004
S1132E30382EE32DE4603E2E2AC0F32DF8601DC029
S1132E4037FC2DC020ED280F2A3040F08E32B9F423
S1132E5036FC81C1232D2064322E19C036FE06C0F3
S1132E608AE0989E200D1124922E11C0EAE02E9E35
S1132E70200D1124222EF32DF0623F2E08C08C3633
S1132E8021F4832D8068382E02C0883641F4F7017E
S1132E9093FD859193FF81917F018111B3CF982F89
S1132EA09F7D9554933028F40C5F1F4F9FE39983C3
S1132EB00DC0833631F0833771F0833509F059C082
S1132EC021C0F801808189830E5F1F4F8824839479
S1132ED0912C530113C02801F2E04F0E511CF8014C
S1132EE0A080B18036FE03C0692D70E002C06FEF90
S1132EF07FEFC5010E94C0184C018201F32DFF77BA
S1132F003F2E16C0280122E0420E511CF801A08079
S1132F10B18036FE03C0692D70E002C06FEF7FEF11
S1132F20C5010E94B5184C01F32DF0683F2E8201B3
S1132F3033FC1BC0822D90E088169906B0F4B601CC
S1132F4080E290E00E94CB182A94F4CFF50137FC7C
S1132F50859137FE81915F01B60190E00E94CB1804
S1132F6021102A9421E0821A91088114910471F7A6
S1132F70E8C0843611F0893641F5F80137FE07C000
S1132F8060817181828193810C5F1F4F08C06081D1
S1132F907181072E000C880B990B0E5F1F4FF32DC8
S1132FA0FF763F2E97FF09C09095809570956195A7
S1132FB07F4F8F4F9F4FF0683F2E2AE030E0A301F0
S1132FC00E940719882E861845C0853731F4232DB1
S1132FD02F7EB22E2AE030E025C0932D997FB92EA2
S1132FE08F36C1F018F4883579F0B5C0803719F000
S1132FF0883721F0B0C0E92FE061BE2EB4FE0DC0C9
S1133000FB2DF460BF2E09C034FE0AC0292F2660B0
S1133010B22E06C028E030E005C020E130E002C056
S113302020E132E0F801B7FE07C06081718182813E
S113303093810C5F1F4F06C06081718180E090E036
S11330400E5F1F4FA3010E940719882E8618FB2DBF
S1133050FF773F2E36FE0DC0232D2E7FA22E89141E
S113306058F434FE0BC032FC09C0832D8E7EA82E8A
S113307005C0B82CA32C03C0B82C01C0B92CA4FEE5
S11330800FC0FE01E80DF11D8081803321F49A2DDB
S1133090997EA92E09C0A2FE06C0B394B39404C0BD
S11330A08A2D867809F0B394A3FC11C0A0FE06C053
S11330B0B21488F4280C922C9B180EC0B21460F43D
S11330C0B60180E290E00E94CB18B394F7CFB2141B
S11330D018F42B1802C0982C212CA4FE10C0B601A1
S11330E080E390E00E94CB18A2FE17C0A1FC03C0AD
S11330F088E790E002C088E590E0B6010CC08A2D14
S1133100867859F0A1FE02C08BE201C080E2A7FCE0
S11331108DE2B60190E00E94CB18891438F4B60110
S113312080E390E00E94CB189A94F7CF8A94F3013D
S1133130E80DF11D8081B60190E00E94CB1881104A
S1133140F5CF222009F442CEB60180E290E00E943D
S1133150CB182A94F6CFF6018681978102C08FEFAF
S11331609FEF2B96E2E10C948119FC0105906150CC
S113317070400110D8F7809590958E0F9F1F089589
S1133180FC016150704001900110D8F78095909532
S11331908E0F9F1F08950F931F93CF93DF93FB010F
S11331A0238121FD03C08FEF9FEF2CC022FF16C0A7
S11331B046815781248135814217530744F4A08105
S11331C0B1819D012F5F3F4F318320838C932681F2
S11331D037812F5F3F4F3783268314C08B01EC0167
S11331E0FB010084F185E02D0995892BE1F6D801D6
S11331F016968D919C911797019617969C938E9392
S11332001697CE01DF91CF911F910F910895FA0186
S1133210AA27283051F1203181F1E8946F936E7F11
S11332206E5F7F4F8F4F9F4FAF4FB1E03ED0B4E002
S11332303CD0670F781F891F9A1FA11D680F791F43
S11332408A1F911DA11D6A0F711D811D911DA11D54
S113325020D009F468943F912AE0269F1124301964
S1133260305D3193DEF6CF010895462F4770405DFF
S11332704193B3E00FD0C9F7F6CF462F4F70405DAE
S11332804A3318F0495D31FD4052419302D0A9F709
S1133290EACFB4E0A6959795879577956795BA9503
S11332A0C9F700976105710508959B01AC010A2EC9
S11332B006945795479537952795BA95C9F7620FA0
S11332C0731F841F951FA01D08952F923F924F9244
S11332D05F926F927F928F929F92AF92BF92CF92A2
S11332E0DF92EF92FF920F931F93CF93DF93CDB7AB
S11332F0DEB7CA1BDB0B0FB6F894DEBF0FBECDBF23
S113330009942A88398848885F846E847D848C84F3
S11333109B84AA84B984C884DF80EE80FD800C81FC
S11333201B81AA81B981CE0FD11D0FB6F894DEBFDF
S10F33300FBECDBFED010895F894FFCF4F
S113333C012500002800022E000240002E00022865
S113334C00012E0003F801010034101B0A170006BB
S113335C2500052B00052800032B000200000002A9
S113336C000000007A09000000001F1C1F1E1F1E15
S113337C1F1F1E1F1E1F0000000000000000000085
S113338C000000000000000000000000000000002D
S113339C000000000000000000000000000000001D
S11333AC000000000000000000000000000000000D
S11333BC00000000000000000000000000000000FD
S11333CC00000000000000000000000000000000ED
S11333DC00000000000000000000000000000000DD
S11333EC00000000000000000000000000000000CD
S11333FC0000000000000D52656164790A0D005252
S113340C58204D4F44554C4500446174653A202571
S113341C3032642D253032642D3230253032640044
S113342C54696D653A20253032643A253032643A59
S113343C25303264004241543A202530336400551F
S113344C4E49582074696D6520256C7500411191A5
S113345C11A4110001140A6464323200127A0000BF
S113346C04289610040000800020001815A015C034
S113347C19FF1815A115C819FF1815AE19FF181541
S113348CAF19FF1815AE15D5168015A8161F15D330
S113349C16001540158D16141520160015A115C807
S11334AC15DA16021581168F15D916F115DB16408F
S10B34BC152E15A415A619FF35
S9030000FC
