S02600006D33323870625F6E65775F636F6E74726F6C6C65725F74656D706C6174652E737265631B
S11300000C9407050C947A0D0C9424050C94240587
S11300100C9424050C9424050C9424050C942405B8
S11300200C9424050C9424050C9424050C942405A8
S11300300C9424050C9424050C9424050C94240598
S11300400C9424050C9424050C946D0C0C94240538
S11300500C94B70C0C9426050C9424050C942405DC
S11300600C9424050C9424050C9424050C94240568
S11300700C9424050C9424050C9424050C94240558
S11300800C9424050C9424050C9424050C94240548
S11300900C9424050C9424050C9424050C94460912
S11300A00C94FA090C9424050C9424050C9424054E
S11300B00C942405BF0203020304010204060A008F
S11300C0FE07FE0700017602F9093C2007D6F8F97D
S11300D02300210AD6F891B43B985300220BD6F89A
S11300E0932CC9929C37002310D6F8932C890629A7
S11300F0890629C9929C00240DD6F891704AC23110
S113010089C69C02250DD6F8A3A429092B51D294A3
S113011013260ED6F8C3244BC24A53A6E430002754
S113012009D6F891B4CE23002809D6F8A1B05AAE66
S1130130132909D6F8E36AB14E022A0ED6F8D12C57
S11301404AA2414AA22CA7022B0AD6F8F1341BB4C6
S113015034672C09D6F87913EB18002D09D6F8D991
S1130160069D1B002E09D6F8790BC71C022F0AD650
S1130170F8B134EC9AD3003010D6F8913089B22417
S11301804BB22809730A00310CD6F891504BD2B601
S1130190418701320CD6F8A72CCDB4301D74183326
S11301A00CD6B807350CE5248B7602340DD6F8A1AD
S11301B0504BA2D220A63901350DD6B807254D24BF
S11301C0294DB26827360DD6F8112D4C13494AB281
S11301D06827370BD6B807354CC36A4E02380DD69C
S11301E0F8A72CC9A2294BB26827390DD6F8A72C39
S11301F0892C6998E914003A0CD6F8F170CCC170D6
S1130200CC21003B0BD6F8F170CC41B18E013C09F6
S1130210D6F8B1B0B91D063D0AD6F889833EE88CFC
S1130220003E09D6F8E3C67612003F0BD6F8A72C99
S1130230ACE6604E01400CD6F8A72C89942E52BC33
S1130240134110D6F8913089B2244B06254BB21CC9
S113025006420CD6B8872C6ADAA2962127430BD61D
S1130260F8A72C49DBA29D00440BD6B8872CEA5F83
S1130270869C00450DD6B807254D87284D071D06D9
S1130280460CD6B807254D8728ADD300470CD6F8C1
S1130290A72C494B4A16ED044810D6B8B3244BB2E8
S11302A06450B2244BB21C064908D6F8C7B4E34ED6
S11302B04A0BD6F891316DAAE914004B0ED6B8B3A7
S11302C024AA64629245B51C064C09D6B8D35E07CD
S11302D01D064D0ED6B8B3244B2CDD922CC97218D2
S11302E04E0FD6B8B3244BA4A4939225590E034FB2
S11302F00ED6F8A72CC9922CC9922CDA09500DD627
S1130300B887284BB26488D23A0D510ED6F8A72C80
S1130310C9922CC992A639075210D6B887284BB275
S11303206488922CAAE53000530CD6F8A72C89E7F0
S1130330248B76025409D6B8072DED9D02550FD6AD
S1130340B8B3244BB2244BB2248B76025610D6B8E1
S1130350B3244BB228C9922C09730A00570ED6B89D
S1130360B3244BB2A42F962C8701580FD6B8B324CC
S11303708B92B012654996C300590CD6B8B3248B3E
S113038092306DA7005A0BD6B80735EC3AE8300026
S11303905B08D6F8B7B4EB4E5C09D6B8D3B86B0E8D
S11303A0035D08D6F8D7DE76025E0BD6F891308965
S11303B0B29C27005F08D6F8F93CE8006008D6B87C
S11303C0E29C5F00610DD6F8A97334245934E430FB
S11303D000620DD6B8D38A2425592225894E630B91
S11303E0D6F8A95396A459B413640ED6F8B134526E
S11303F04A4A9644961C06650BD6F8A953960C4AAD
S1130400BC13660CD6F8112D2A0E595A2701670F12
S1130410D6F8A94392255934A449164D00680ED63E
S1130420B8D38A2425599225590E03690AD6F8911E
S11304301C531B77026A0BD6F8B11C539BBA4900B4
S11304406B0DD6B8D35A12455B54CB61006C08D6F9
S1130450F8D51E77026D0BD6F8894A94F46F390CDF
S11304606E0ED6F889892425599225590E036F0CEE
S1130470D6F8A95396644916ED04700FD6F8898905
S113048024255922258994A600710DD6F8A94A4934
S1130490C992C8925600720BD6F889892425699DA1
S11304A006730AD6F8A9533C27434E740BD6F8D3E7
S11304B070C8D252A613750DD6F8895992255912CF
S11304C0597218760DD6F88959924549968439059A
S11304D0770CD6F8895992257D4A7202780DD6F8A0
S11304E0895994849528CB6100790ED6F88959925C
S11304F02591254DB268027A0BD6F88983D838E85D
S113050030007B0CD6F8212DCEE430D661007C0976
S1130510D6F891B4EF14007D0BD6F8E530D6E24C52
S1130520A7007E0AD6F8A3A453CE1B00A007D6F8D2
S1130530F92300A10AD6F8911C4CBB5300A20FD694
S1130540F8F170486A49968443964300A30DD6F89F
S1130550112D2A8E6994243A01A40DD6F88959B430
S113056025D994E53000A50ED6B8B3248B92301B60
S1130570B4B40E01A60BD6F891B40EA6750A00A762
S11305800DD6F8A7748BB2285BA31D01A807D678F3
S1130590EAFC01A90CD6F8A72C6991926ED14EAA57
S11305A00DD6F891A9454B7264C8A900AB0ED6F8D4
S11305B0C9511225511665518E02AC09D6F8198716
S11305C0346704AD09D6F819879C1B00AE0ED6F823
S11305D0A72C59122991922CDA09AF08D638069D16
S11305E09F01B00AD6F8913009731E01B10CD6F8F8
S11305F0F1341BB4341B7418B20BD6B8B4282C0EC7
S1130600393700B30AD678E64C8E768E00B408D615
S1130610F8C29C9F00B50FD6F88959922559222516
S113062089948300B610D6F88764499648C9922CF9
S1130630C9921C06B708D6F85973AE00B808D6F8A4
S1130640F929CC00B909D6B842B5B87304BA0CD6A6
S1130650F8112D6AD3A121A702BB0DD6F889511632
S113066065511225514EBC0DD67842B538855A12C3
S11306700D690CBD0DD67842B5B884491A8633008D
S1130680BE0ED638E430CEA4504BA221CD01BF0B10
S1130690D6F8911C4CC35AB413C00FD678E270CA72
S11306A0922C19942CC97218C10FD6F8C270CA9230
S11306B02C19942CC97218C210D6B8C2249BB22427
S11306C04B06254BB21C06C311D678A224D1A62C06
S11306D0C99241C9922C8701C410D678EAD09425D6
S11306E05932285992E53000C510D6B8C2249BB2BD
S11306F0244B06254BB21C06C60ED6F8912129358B
S11307000D43D4B4A300C70BD6F8A72C49DBA2B180
S113071008C80ED678C24149D3214AD3418701C9BA
S11307200ED6F8A24149D3214AD3418701CA0ED635
S1130730B8B24149D3214AD3418701CB0ED6784A76
S11307408392A64394A6830E03CC0AD678E2704C17
S11307501B7702CD0AD6F8C2704C1B7702CE0BD69B
S1130760B8C2241BD3C69D00CF0AD678EAD09836E7
S1130770EE04D00CD6B8872C6A59A22E434ED11160
S1130780D6B8922889B2444A3A295992E53000D21F
S11307900ED678E270CA922CC9922CDA09D30ED6FE
S11307A0F8C270CA922CC9922CDA09D40FD6B8C2F6
S11307B0249BB2244BB2248B7602D510D6B892284F
S11307C0C9A62CC9922CC9A29D00D60ED678EAD00F
S11307D0942559922559B413D70DD6F88959948480
S11307E09528CB6100D80ED6F8A74889941629918C
S11307F0A29D00D90ED678E2AC922559922559B41F
S113080013DA0ED6F8C2AC922559922559B413DBEB
S11308100FD6B8C22447B2244BB2248B7602DC0F25
S1130820D678EA4896644996644916ED04DD0DD6F7
S1130830F8C2AC92454998D62900DE0DD6B8D3212A
S1130840CA92214AEB3400DF0ED6F8A72C892A5924
S1130850544B129D00E00ED678E21C9BA321C9A242
S1130860218701E10ED6F8C21C9BA321C9A22187CE
S113087001E20FD6B8C22487E66848B268C86100AE
S1130880E30FD6B89228C9A1391A922C1A7218E427
S11308900ED6F8931C9AA321C9A2218701E50FD68D
S11308A0B8C2240CE76848B268C86100E60DD6F8FF
S11308B0A9439824C3940D3A0AE70CD6F8A9539691
S11308C0A459341601E80DD678E21C9BB26450E2B8
S11308D09D00E90DD6F8C21C9BB26450E29D00EA6B
S11308E00DD6B8C22487A62C19947827EB0DD6F818
S11308F0931C9AB26450E29D00EC0AD678E21C5331
S11309001B7702ED0AD6B8C21C541B7702EE0BD635
S1130910B8C22487D4C69D00EF0AD6F8931C521B94
S11309207702F00CD6B86D5396644916ED04F111B4
S1130930D6B89228C9914492922CC9922C8701F27C
S11309400DD678E21C9BB2244BB26827F30DD6F87F
S1130950C21C9BB2244BB26827F40ED6B8C22487BB
S1130960A62CC9922CDA09F50FD6B89228C9A12968
S11309704BB2248B7602F60DD6F8931C9AB2244B14
S1130980B26827F70AD6F8F11C1A742867F80DD64E
S1130990F8A94312292D5232E404F90FD678E21C47
S11309A0CA922CC992C892C300FA0FD6F8C21CCAC4
S11309B0922CC992C892C300FB10D6B8C22447B285
S11309C0244BB224B2E43000FC0FD6F8931CC99235
S11309D02CC992C892C300FD0FD6F8A130AB64496C
S11309E06449932C9A00FE0FD6F8D17488B2244B34
S11309F0B26488D214FF10D6F8931CC9922C892CA7
S1130A00699245130000000004FFFF000000112458
S1130A101FBECFEFD8E0DEBFCDBF12E0A0E0B1E053
S1130A20EEEFF3E502C005900D92A439B107D9F7B2
S1130A3027E0A4E9B2E001C01D92A83DB207E1F7A6
S1130A400E94920D0C94FD290C9400001F920F92A9
S1130A5000905F000F9211248F93CF93DF93CDB753
S1130A60DEB781E0809300010000DF91CF918F9188
S1130A700F9000925F000F901F901895CF93DF9313
S1130A80CDB7DEB78CE790E02CE730E0F9012081A8
S1130A90206CFC0120838AE790E02AE730E0F9012A
S1130AA020812F68FC0120830000DF91CF910895FD
S1130AB0CF93DF931F92CDB7DEB789838CE790E0A5
S1130AC02CE730E0F9012081207FFC0120838CE7B2
S1130AD090E02CE730E0F90130812981232BFC01DF
S1130AE0208300000F90DF91CF910895CF93DF937F
S1130AF000D0CDB7DEB78AE790E02AE730E0F9010D
S1130B0020812068FC01208319821A82109200013E
S1130B108AE790E02AE730E0F90120812064FC01B3
S1130B2020830000809100018823E1F388E790E0AE
S1130B30FC018081898389E790E0FC0180818A83BC
S1130B408AE790E02AE730E0F90120812F77FC0161
S1130B5020838A81882F90E0382F22278981882F4B
S1130B6090E0822B932B0F900F90DF91CF910895FB
S1130B70CF93DF931F92CDB7DEB7898389810E941B
S1130B8058050E947605CC01A0E0B0E0BC01CD017F
S1130B900E947425DC01CB012DEC3EE148E95FE3C2
S1130BA0BC01CD010E940326DC01CB01BC01CD01B7
S1130BB00E944525DC01CB010F90DF91CF91089570
S1130BC0CF93DF9300D000D000D0CDB7DEB79A83A7
S1130BD089836B834C833E832D838B81882F90E0A4
S1130BE08831910501F18931910534F484319105FD
S1130BF021F1479739F01FC089319105C1F08097E1
S1130C0051F019C08C81282F30E08D819E81B9016B
S1130C100E94B20913C081E09C81992309F480E009
S1130C200E944E060BC080E00E945E0607C081E071
S1130C300E945E0603C080E002C0000081E02696A8
S1130C400FB6F894DEBF0FBECDBFDF91CF910895EC
S1130C50CF93DF93CDB7DEB761E087E091E00E94E8
S1130C60D40661E081E091E00E94D40661E084E072
S1130C7091E00E94D40661E087E091E00E9485063D
S1130C8061E081E091E00E94850661E084E091E00A
S1130C900E9485060000DF91CF910895CF93DF93E2
S1130CA01F92CDB7DEB78983698184E091E00E9409
S1130CB0850600000F90DF91CF910895CF93DF93C5
S1130CC01F92CDB7DEB78983698181E091E00E94EC
S1130CD0850600000F90DF91CF910895CF93DF93A5
S1130CE000D000D000D0CDB7DEB79A8389836B8360
S1130CF04C833E832D8380E026960FB6F894DEBFA6
S1130D000FBECDBFDF91CF910895CF93DF9300D075
S1130D101F92CDB7DEB79A8389836B838B81882337
S1130D20F1F089819A81FC018081918129813A8144
S1130D30F90120813181F9012081622F29813A81D1
S1130D40F9012281422F50E021E030E002C0220F5D
S1130D50331F4A95E2F7262BFC0120831EC08981AC
S1130D609A81FC018081918129813A81F901208154
S1130D703181F9012081622F29813A81F90122818F
S1130D80422F50E021E030E002C0220F331F4A9589
S1130D90E2F720952623FC01208300000F900F909A
S1130DA00F90DF91CF910895CF93DF9300D000D0BF
S1130DB01F92CDB7DEB79C838B836D838B819C811F
S1130DC0FC018081918101979A8389838D81882F89
S1130DD090E08130910501F182309105B1F1892BC8
S1130DE009F06BC089819A81FC018081482F8B8135
S1130DF09C81FC018281282F30E081E090E002C0D8
S1130E00880F991F2A95E2F780958423282F8981DA
S1130E109A81FC01208351C089819A81FC018081DF
S1130E20482F8B819C81FC018281282F30E081E056
S1130E3090E002C0880F991F2A95E2F7842B282F8F
S1130E4089819A81FC01208338C089819A81FC01BF
S1130E508081482F8B819C81FC018281282F30E086
S1130E6081E090E002C0880F991F2A95E2F78095EF
S1130E708423282F89819A81FC0120838B819C8182
S1130E80FC01808191812B813C81F9012081318198
S1130E90F9012081622F2B813C81F9012281422FAB
S1130EA050E021E030E002C0220F331F4A95E2F700
S1130EB020952623FC012083000000000F900F9052
S1130EC00F900F900F90DF91CF910895CF93DF9300
S1130ED000D000D0CDB7DEB79A8389837C836B833F
S1130EE08091950280618093950280919402816142
S1130EF08093940222E030E04AE051E06BE082E328
S1130F000E94BE0B21E030E044E952E06DE082E350
S1130F100E94BE0B21E030E045E952E06FE082E33D
S1130F200E94BE0B00000F900F900F900F90DF9166
S1130F30CF910895CF93DF93CDB7DEB729970FB63E
S1130F40F894DEBF0FBECDBF9987888727E030E0D5
S1130F50CE010196AC0160E082E30E94180B898106
S1130F600E94F007282F88859985FC0120838A81B7
S1130F700E94F007282F88859985FC0121838B81A5
S1130F800E94F007282F88859985FC0122832C81F3
S1130F9088859985FC0127838D810E94F007282F7D
S1130FA088859985FC0123838E810E94F007282F70
S1130FB088859985FC0124838F810E94F007282F5E
S1130FC030E088859985FC013683258300002996C5
S1130FD00FB6F894DEBF0FBECDBFDF91CF91089559
S1130FE0CF93DF931F92CDB7DEB789838981829532
S1130FF08F70880F982F990F990F980F89818F7090
S1131000890F0F90DF91CF910895CF93DF93CDB7E0
S1131010DEB76A970FB6F894DEBF0FBECDBF9A8FC6
S1131020898F898D9A8DFC01858196818F83898D25
S11310309A8DFC0184818887898D9A8DFC01838136
S11310408987898D9A8DFC0182818A87898D9A8D01
S1131050FC0181818B87898D9A8DFC0180818C872D
S11310608CE0E6E5F1E0DE011D9601900D928A9593
S1131070E1F78F818370882381F49F8189E2989FAF
S1131080812D112482958F7024E6829F802D112456
S1131090F92FF81B8F2F882351F48F81882F90E02C
S11310A020E931E0B9010E94BC26892B11F48DE1BD
S11310B08E8719821A821B821C828C85882F90E06D
S11310C0A0E0B0E029813A814B815C81820F931FBB
S11310D0A41FB51F89839A83AB83BC838B85282F78
S11310E030E04CE3429FC001439F900D1124092E30
S11310F0000CAA0BBB0B29813A814B815C81820FC6
S1131100931FA41FB51F89839A83AB83BC838A85ED
S1131110482F50E020E13EE0429FC001439F900DE4
S1131120529F900D1124092E000CAA0BBB0B298190
S11311303A814B815C81820F931FA41FB51F898361
S11311409A83AB83BC831D8229C08D81882F90E054
S11311509E01235F3F4F820F931FFC018081882FE4
S113116090E0A0E0B0E09C01AD0160E871E581E0B1
S113117090E00E949826DC01CB019C01AD0189819D
S11311809A81AB81BC81820F931FA41FB51F8983F1
S11311909A83AB83BC838D818F5F8D838D81282F50
S11311A030E08885882F90E00197281739076CF282
S11311B01E8239C08E818370882381F49E8189E2E6
S11311C0989F812D112482958F7024E6829F802D13
S11311D01124F92FF81B8F2F882351F48E81882F27
S11311E090E020E931E0B9010E94BC26892B61F42A
S11311F089819A81AB81BC819B57AD41BE4F898364
S11312009A83AB83BC830CC089819A81AB81BC81F6
S113121080589C4CAE41BE4F89839A83AB83BC8378
S11312208E818F5F8E839E818F81981718F28985B6
S1131230882F90E00197092E000CAA0BBB0B9C0190
S1131240AD0160E871E581E090E00E949826DC0140
S1131250CB019C01AD0189819A81AB81BC81820F54
S1131260931FA41FB51F89839A83AB83BC83898191
S11312709A81AB81BC81BC01CD016A960FB6F8940A
S1131280DEBF0FBECDBFDF91CF9108951F920F92A5
S113129000905F000F9211248F939F93EF93FF931D
S11312A0CF93DF93CDB7DEB78DEA90E0FC01808168
S11312B0882F90E080749927892B21F081E0809316
S11312C0960203C081E0809396020000DF91CF91E3
S11312D0FF91EF919F918F910F9000925F000F907B
S11312E01F901895CF93DF93CDB7DEB761E08CE004
S11312F091E00E94D40661E08CE091E00E948506B2
S113130061E082E191E00E94D40661E082E191E033
S11313100E94850661E08FE091E00E94D40660E0BF
S11313208FE091E00E9485068CEA90E02CEA30E0A0
S1131330F9012081206DFC0120838CEA90E02CEAE5
S113134030E0F9012081FC0120838DEA90E02DEA50
S113135030E0F90120812160FC0120830000DF914D
S1131360CF910895CF93DF9300D000D000D0CDB7B4
S1131370DEB79C838B837E836D831A8219820DC0B2
S11313802B813C8189819A81820F931F0E94DE09FF
S113139089819A8101969A83898329813A818D81F1
S11313A09E812817390760F3000026960FB6F8943B
S11313B0DEBF0FBECDBFDF91CF910895CF93DF93F2
S11313C000D0CDB7DEB79A838983109296028EEA55
S11313D090E029813A81F9012081FC0120830000F9
S11313E0809196028823E1F300000F900F90DF9123
S11313F0CF9108951F920F9200905F000F921124D5
S11314008F939F93EF93FF93CF93DF93CDB7DEB783
S113141089ED90E0FC018081887F809315010000B4
S1131420DF91CF91FF91EF919F918F910F90009257
S11314305F000F901F901895CF93DF9300D0CDB726
S1131440DEB71A8219828CED90E025EAFC01208334
S11314500CC089819A8101969A83898389819A81B2
S11314608034964010F081E005C0809115018830E9
S113147081F780E00F900F90DF91CF910895CF9383
S1131480DF93CDB7DEB78CED90E025E9FC01208336
S11314900000DF91CF910895CF93DF9300D0CDB7B3
S11314A0DEB71A8219828CED90E025EAFC012083D4
S11314B00CC089819A8101969A83898389819A8152
S11314C08034964010F081E005C080911501803190
S11314D081F780E00F900F90DF91CF910895CF9323
S11314E0DF9300D0CDB7DEB71A8219828CED90E07D
S11314F025E8FC0120830CC089819A8101969A8396
S1131500898389819A818034964010F081E005C0F6
S113151080911501883181F780E00F900F90DF9161
S1131520CF910895CF93DF9300D0CDB7DEB71A8261
S113153019828CED90E025E8FC0120830CC08981A0
S11315409A8101969A83898389819A81803496400D
S113155010F081E005C080911501883281F780E0A8
S11315600F900F90DF91CF910895CF93DF9300D028
S1131570CDB7DEB71A8219828CED90E025E8FC0124
S113158020830CC089819A8101969A8389838981F9
S11315909A818034964010F081E005C08091150155
S11315A0803481F780E00F900F90DF91CF91089500
S11315B0CF93DF9300D01F92CDB7DEB78B831A820F
S11315C019828B818823B9F08CED90E025ECFC0125
S11315D020830CC089819A8101969A8389838981A9
S11315E09A818034964010F081E01CC080911501EE
S11315F0803581F716C08CED90E025E8FC0120834E
S11316000CC089819A8101969A83898389819A8100
S11316108034964010F081E005C080911501883532
S113162081F780E00F900F900F90DF91CF91089594
S1131630CF93DF93CDB7DEB729970FB6F894DEBF0B
S11316400FBECDBF8C836D835F834E83398728871C
S11316501A8219821B820E941C0A8B838B81882325
S113166021F00E943F0A8B8180C08BED90E02C8199
S1131670220FFC0120830E946F0A8B838B818823B5
S113168021F00E943F0A8B8170C08BED90E02D8188
S1131690FC0120830E94920A8B838B81882321F092
S11316A00E943F0A8B8161C00E944C0A8B838B810C
S11316B0882321F00E943F0A8B8157C08BED90E074
S11316C02C81222F30E0220F331F2160FC01208364
S11316D00E94B50A8B838B81882321F00E943F0AE4
S11316E08B8143C01A8219821CC081E00E94D80AEF
S11316F08B838B81882321F00E943F0A8B8135C024
S11317002E813F8189819A81820F931F2BED30E0D6
S1131710F9012081FC01208389819A8101969A83B1
S11317208983888599859C012150310989819A8111
S113173082179307D0F280E00E94D80A8B838B81B2
S1131740882321F00E943F0A8B810FC02E813F81A4
S113175089819A81820F931F2BED30E0F90120815A
S1131760FC0120830E943F0A8B8129960FB6F894CE
S1131770DEBF0FBECDBFDF91CF910895CF93DF932E
S1131780CDB7DEB729970FB6F894DEBF0FBECDBF35
S11317908C836D835F834E83398728871A821982ED
S11317A01B820E941C0A8B838B81882321F00E9458
S11317B03F0A8B8147C08BED90E02C81220FFC0106
S11317C020830E946F0A8B838B81882321F00E94DF
S11317D03F0A8B8137C08BED90E02D81FC01208383
S11317E00E94920A8B838B81882321F00E943F0AF6
S11317F08B8128C01A8219821BC08BED90E04E8128
S11318005F8129813A81240F351FF9012081FC0170
S113181020830E94920A8B838B81882321F00E946B
S11318203F0A8B810FC089819A8101969A838983AB
S113183029813A818885998528173907F0F20E9411
S11318403F0A8B8129960FB6F894DEBF0FBECDBF39
S1131850DF91CF910895CF93DF93CDB7DEB728976B
S11318600FB6F894DEBF0FBECDBF6D837E838F832A
S1131870988719821A821B821C8280E094E2A4EF6A
S1131880B0E02D813E814F815885BC01CD010E947D
S1131890D026DA01C9014097A109B109B695A795E7
S11318A0979587959927AA27BB2789839A83AB8322
S11318B0BC8388ED90E02981FC0120838CED90E0CD
S11318C025E0FC012083000028960FB6F894DEBFC3
S11318D00FBECDBFDF91CF9108951F920F9200905C
S11318E05F000F9211242F933F938F939F93EF9355
S11318F0FF93CF93DF93CDB7DEB78091970290919A
S1131900980226EC30E0F901208187569D4FFC01B6
S11319102083809197029091980287569D4FFC01F5
S113192080818D3061F481E080931701809197026A
S113193090919802019687569D4FFC0110828091E8
S1131940970290919802019690939802809397023F
S11319500000DF91CF91FF91EF919F918F913F9183
S11319602F910F9000925F000F901F9018951F9277
S11319700F9200905F000F9211248F93CF93DF9307
S1131980CDB7DEB781E0809316010000DF91CF91DF
S11319908F910F9000925F000F901F901895CF9336
S11319A0DF9300D000D000D0CDB7DEB76A837B834D
S11319B08C839D834E8380E189838E81882359F0B3
S11319C088E0898380EC90E020EC30E0F90120810C
S11319D02260FC0120838981282F30E040E050E020
S11319E08A819B81AC81BD81BC01CD010E94982676
S11319F09B01AC0180E094E2A4EFB0E0BC01CD0116
S1131A000E94D026DA01C9010197A109B1098A838C
S1131A109B83AC83BD8325EC30E08A819B81AC81C0
S1131A20BD8188279F70AA27BB27892F9A2FAB2FA8
S1131A30BB27F901808384EC90E02A81FC01208398
S1131A4081EC90E021EC30E0F9012081286DFC016B
S1131A50208382EC90E026E8FC0120830000269697
S1131A600FB6F894DEBF0FBECDBFDF91CF910895BE
S1131A70CF93DF931F92CDB7DEB7898300008091A7
S1131A8016018823E1F31092160186EC90E0298177
S1131A90FC01208300000F90DF91CF910895CF9334
S1131AA0DF9300D000D0CDB7DEB79C838B831A823E
S1131AB019822B813C8189819A81820F931FFC01B9
S1131AC080810E94380D89819A8101969A83898345
S1131AD02B813C8189819A81820F931FFC01808133
S1131AE0882339F700000F900F900F900F90DF912B
S1131AF0CF9108951F920F9200905F000F921124CE
S1131B008F93CF93DF93CDB7DEB781E08093190332
S1131B100000DF91CF918F910F9000925F000F90A2
S1131B201F901895CF93DF93CDB7DEB7C259D10973
S1131B300FB6F894DEBF0FBECDBF8091B90190916E
S1131B40BA019C8B8B8B2EE7CE014596FC01322F7C
S1131B5011923A95E9F741E060E970ED83E090E095
S1131B600E94CF0C60E87AE186E090E00E942B0CA2
S1131B7061E089E291E00E94D40660E089E291E0AC
S1131B800E94850661E08CE291E00E94D40660E048
S1131B908CE291E00E94850661E08FE291E00E9470
S1131BA0D40660E08FE291E00E94850660E086E260
S1131BB091E00E94D40689E690E029E630E0F9013C
S1131BC020812260FC0120838DE390E021E0FC0170
S1131BD02083789488E191E09093D5078093D4078B
S1131BE060E070E082E391E00E9466070E943E0597
S1131BF00E9472090E9428062EE636E040EE55E067
S1131C0069E372E08CE197E00E94A81083E590E01C
S1131C1023E530E0F90120812160FC01208383E584
S1131C2090E023E530E0F9012081217F2460FC016C
S1131C30208382E691E00E944F0D8CE197E00E94A0
S1131C40C92260E08CE197E00E94E42261E08CE12B
S1131C5097E00E94022368E78CE197E00E9420232A
S1131C608CE197E00E94AA0F64EB70E08CE197E0AE
S1131C700E94DB192BE631E04AE050E061E070E0BD
S1131C808CE197E00E94C5188CE197E00E948010D7
S1131C9080911903882309F45BC182E391E00E94D7
S1131CA09A0785E00E94B80590931B0380931A035A
S1131CB010921903409137015091380180913601F7
S1131CC0282F30E080913501882F90E0652F6F93A5
S1131CD04F93432F4F932F93292F2F938F9385E760
S1131CE091E0892F8F9385E791E08F93CE014396FE
S1131CF0292F2F938F930E9413272DB73EB7265F6A
S1131D003F4F0FB6F894DEBF0FBECDBFCE01439652
S1131D109C014AE050E061E070E08CE197E00E94B1
S1131D20C51880913201482F50E080913301282F4B
S1131D3030E080913401882F90E0652F6F934F93AA
S1131D40432F4F932F93292F2F938F938CE891E058
S1131D50892F8F938CE891E08F93CE014396292F9E
S1131D602F938F930E9413278DB79EB70A960FB6B1
S1131D70F894DEBF0FBECDBFCE0143969C0144E173
S1131D8050E061E070E08CE197E00E94C51880911A
S1131D901A0390911B03292F2F938F9381EA91E0CB
S1131DA0892F8F9381EA91E08F93CE014396292F57
S1131DB02F938F930E9413270F900F900F900F90E3
S1131DC00F900F90CE0143969C014EE150E061E0EC
S1131DD070E08CE197E00E94C51882E391E00E94D4
S1131DE00508DC01CB0189839A83AB83BC838C8196
S1131DF08F938B818F938A818F9389818F938BEAC1
S1131E0091E0892F8F938BEA91E08F93CE014396D3
S1131E10292F2F938F930E941327EDB7FEB738967F
S1131E200FB6F894DEBF0FBECDBFCE0143969C0122
S1131E3048E250E061E070E08CE197E00E94C51850
S1131E4080911A0390911B038237914008F072C06D
S1131E5080E090E0A0E4B0E48D839E83AF83B887F4
S1131E6020E030E04AE755E46D817E818F819885DA
S1131E700E940326DC01CB0189879A87AB87BC8744
S1131E8020E030E040E85FE369857A858B859C85B6
S1131E900E94402588232CF481E090E09E878D8762
S1131EA03FC020E03FEF4FE757E469857A858B8593
S1131EB09C850E94FE2518164CF520E030E040E297
S1131EC051E46D817E818F8198850E940326DC0117
S1131ED0CB01BC01CD010E944525DC01CB019E87CD
S1131EE08D870FC080E991E0988B8F878F859889C3
S1131EF00197F1F7988B8F878D859E8501979E8733
S1131F008D878D859E85892B69F714C069857A85AF
S1131F108B859C850E944525DC01CB019E878D879E
S1131F208D859E859A8B898B89899A890197F1F78A
S1131F309A8B898B61E08CE291E00E9485068CE1AA
S1131F4097E00E94801060E08CE291E00E94850698
S1131F5088959ECECF93DF9300D000D0CDB7DEB767
S1131F609C838B838B819C81FC0180819181FC010A
S1131F708089882F90E09A8389838B819C81FC01DE
S1131F8084A1282F30E049815A81429FC001439F98
S1131F90900D529F900D11249A83898389819A818F
S1131FA0880F991F880F991F880F991F9A83898317
S1131FB08B819C81FC0182A193A129813A81A90191
S1131FC060E070E00E940C2700000F900F900F90CB
S1131FD00F90DF91CF9108950F931F93CF93DF93C9
S1131FE0CDB7DEB729970FB6F894DEBF0FBECDBFCD
S1131FF09F838E83688749878E819F81FC018081BE
S11320009181FC01808989838885882F90E09B8356
S11320108A838E819F81FC0182A193A19D838C83FD
S11320208981282F30E04A815B81429FC001439F10
S1132030900D529F900D11249B838A838A819B81EA
S1132040880F991F880F991F880F991F9B838A8374
S11320502C813D818A819B81820F931F9D838C8378
S11320602C813D818E819F8189012981498560E090
S11320700E947722000029960FB6F894DEBF0FBEA7
S1132080CDBFDF91CF911F910F910895CF93DF932F
S113209000D000D000D0CDB7DEB79E838D831982E7
S11320A08D819E81FC0184A18B838D819E81FC01A5
S11320B085A18A838D819E81FC0180819181FC01AF
S11320C081898C838D819E814A8169810E94EC0F74
S11320D089818F5F89838A818F5F8A8399818B81CC
S11320E0981720F49A818C81981760F30000269643
S11320F00FB6F894DEBF0FBECDBFDF91CF91089528
S1132100CF93DF9300D0CDB7DEB79A8389838981DB
S11321109A810E94461089819A810E943E23000080
S11321200F900F90DF91CF910895CF93DF9300D05C
S1132130CDB7DEB79A83898389819A8128E0FC012F
S113214020838CE193E00F900F90DF91CF9108955D
S11321500F931F93CF93DF93CDB7DEB72B970FB6B3
S1132160F894DEBF0FBECDBF9D838C837F836E83C7
S1132170598748873B872A874A855B85288539851F
S11321808C819D818A0146E951E264E174E20E94F6
S1132190FA24CE0103960E9495109A8389834B8179
S11321A02E813F8169817A818C819D8189012EE311
S11321B03CE10E94661D00002B960FB6F894DEBF2A
S11321C00FBECDBFDF91CF911F910F910895CF9393
S11321D0DF9300D000D000D0CDB7DEB79D838C83D1
S11321E06E838E81882F90E02C813D81820F931F16
S11321F09D838C838C819D819A83898389819A8133
S1132200FC0184918B838B8126960FB6F894DEBFF4
S11322100FBECDBFDF91CF910895CF93DF93CDB79C
S1132220DEB72B970FB6F894DEBF0FBECDBF9A87EB
S113223089876B878B85882F90E029853A85820F63
S1132240931F9A87898789859A859A838983898147
S11322509A81FC0184918B838B81882F90E09D83EC
S11322608C8389859A8501969A8789878C819D813B
S1132270982F88279D838C8389859A859F838E8355
S11322808E819F81FC01849188878885882F90E0C6
S11322902C813D81820F931F9D838C838C819D8132
S11322A02B960FB6F894DEBF0FBECDBFDF91CF9152
S11322B00895CF93DF9300D000D0CDB7DEB79A83D3
S11322C089837C836B838B819C8160E00E94E7100F
S11322D0282F89819A81FC0120838B819C8161E074
S11322E00E94E710282F89819A81FC0121838B8128
S11322F09C8162E00E94E710282F89819A81FC0169
S113230022838B819C8163E00E94E710282F8981BE
S11323109A81FC0123838B819C8164E00E94E710F5
S1132320282F89819A81FC0124838B819C8165E01B
S11323300E94E710282F89819A81FC0125838B81D3
S11323409C8166E00E94E710282F89819A81FC0114
S113235026838B819C8167E00E94E710282F898166
S11323609A81FC0127838B819C8168E00E94E7109D
S1132370282F89819A81FC0120878B819C8169E0C7
S11323800E94E710282F89819A81FC0121878B8183
S11323909C816AE00E94E710282F89819A81FC01C0
S11323A022878B819C816BE00E94E710282F898112
S11323B09A81FC0123878B819C816CE00E94E71049
S11323C0282F89819A81FC0124878B819C816DE06F
S11323D00E94E710282F89819A81FC0125878B812F
S11323E09C816EE00E94E710282F89819A81FC016C
S11323F026878B819C816FE00E94E710282F8981BA
S11324009A81FC0127878B819C8160E10E94E710FF
S1132410282F89819A81FC01208B8B819C8161E129
S11324200E940D119C0189819A81FC01328B218BC0
S11324308B819C8163E10E940D119C0189819A81A9
S1132440FC01348B238B8B819C8165E10E940D11EF
S11324509C0189819A81FC01368B258B00000F90A9
S11324600F900F900F90DF91CF910895CF93DF934A
S1132470CDB7DEB72D970FB6F894DEBF0FBECDBF34
S11324809C878B876D878B859C85FC0182858B83DC
S11324908B859C85FC01808191819D838C838C81BB
S11324A09D81FC0184918E838E8189838981882F0B
S11324B090E02B81222F30E002C0959587952A95D4
S11324C0E2F789838B818A839A818D85890F8A8338
S11324D08A81883098F188E08F839F818B81F92FDE
S11324E0F81B8F2F8F838B859C85FC0180819181C4
S11324F09C012F5F3F4F8B859C85FC01318320839A
S11325008B859C85FC01808191819987888788854A
S11325109985FC0184918A878A85882F90E02F8190
S1132520222F30E002C0880F991F2A95E2F7982FD6
S11325308981892B89838A8188508A838D85282F74
S113254030E081E090E002C0880F991F2A95E2F7FD
S113255081509981892389838B859C852A81FC01FB
S1132560228789812D960FB6F894DEBF0FBECDBFAA
S1132570DF91CF910895CF93DF9300D000D01F92C5
S1132580CDB7DEB79C838B836D838B819C816D81FA
S11325900E943612898381E08A838D8181508D83E4
S11325A08A81082E000C990B2D81222F30E002C065
S11325B0880F991F2A95E2F78A8399818A81292FA6
S11325C0281B822F898389810F900F900F900F9081
S11325D00F90DF91CF910895CF93DF9300D000D077
S11325E01F92CDB7DEB79A8389836B834C832D8387
S11325F08D81882F90E08130910581F082309105A2
S1132600C1F0892B19F58C81082E000C990B2981B6
S11326103A81820F931F9A83898325C08B81082E68
S1132620000C990B29813A81820F931F9A83898325
S11326301AC08C81082E000C990B29813A81A901BA
S1132640481B590BCA019A8389830DC08B81082EBC
S1132650000C990B29813A81A901481B590BCA0125
S11326609A838983000089819A810F900F900F903B
S11326700F900F90DF91CF910895CF93DF9300D007
S113268000D01F92CDB7DEB79A8389836B834C83C6
S11326902D838D81882F90E08130910581F08230E7
S11326A09105D1F0892B29F58B81082E000C990B0B
S11326B029813A81820F931F9A83898325C08C8153
S11326C0082E000C990B29813A81A901481B590B4A
S11326D0CA019A83898318C08B81082E000C990B38
S11326E029813A81A901481B590BCA019A8389831C
S11326F00BC08C81082E000C990B29813A81820F22
S1132700931F9A838983000089819A810F900F9087
S11327100F900F900F90DF91CF9108950F93CF9367
S1132720DF93CDB7DEB72F970FB6F894DEBF0FBE99
S1132730CDBF9D878C876E874F878C859D85885BF1
S11327409F4F9E838D838E8589838D819E81DC013D
S113275016968C918B838D819E81FC0187818C835D
S11327608D819E81DC0118968C918F839F818B8152
S1132770B92FB81B8B2F8F838F818A8399818F8187
S1132780981710F489818A838D819E81FC0182814E
S11327909381998788878D819E81DC0114968D9120
S11327A09C9115979B878A878D819E81FC01268544
S11327B04C813B8188859985632F0E943D139987BD
S11327C088878D819E81DC011E962C914C813B81F2
S11327D08A859B85632F0E94EC129B878A878F854D
S11327E08823E1F08D819E81FC0124858C859D8563
S11327F08C589F4FDC012C938D819E81DC011E96A9
S1132800EC918A81282F30E04A855B85688579853B
S11328108C859D850E2F0E94DC1A22C08D819E819D
S1132820FC0183858823E1F48D819E81DC011D9662
S11328302C918C859D858C589F4FFC0120838D8124
S11328409E81DC011E96EC918A81282F30E04A8516
S11328505B85688579858C859D850E2F0E94DC1AA1
S113286099818F81981758F099818F81B92FB81B5E
S11328708B2F89831B828C818F5F8C8371CF0000A7
S11328809B818981890F8B832B818D819E81FC01A2
S113289026832C818D819E81DC0117962C93000068
S11328A02F960FB6F894DEBF0FBECDBFDF91CF9148
S11328B00F910895CF93DF9300D000D000D0CDB70F
S11328C0DEB79C838B837E836D838B819C81885B45
S11328D09F4F9A83898389819A812D813E81FC014E
S11328E03183208389819A81FC0112868B819C81AA
S11328F0855A9F4FFC01208189819A81622F0E9411
S11329003612282F89819A81FC0120878B819C8132
S1132910845A9F4FFC01208189819A81622F0E94F1
S11329203612282F89819A81FC0121878B819C8111
S11329308C589F4FFC01208189819A81FC01248756
S113294089819A81FC01948581E0992309F080E0D2
S1132950282F89819A81FC012587000026960FB6CD
S1132960F894DEBF0FBECDBFDF91CF9108950F93D2
S11329701F93CF93DF93CDB7DEB764970FB6F89468
S1132980DEBF0FBECDBF9A8B898B7C8B6B8B898905
S11329909A89885B9F4F9A8789872B893C89898983
S11329A09A89B9010E945A1489899A898F5A9F4F2A
S11329B0FC0180818B8789899A89835A9F4FFC0106
S11329C0208189859A85622F0E94BB128C87898910
S11329D09A89825A9F4FFC01208189859A85622FAA
S11329E00E94BB128D8789899A89815A9F4FFC0165
S11329F0208189859A85622F0E94BB128E878985E2
S1132A009A85FC01808518160CF044C189859A8545
S1132A10FC0126859B858D85890F8195382F8985B5
S1132A209A85FC0182819381432F6C850E943D131A
S1132A309C0189859A85FC013383228389859A8543
S1132A40FC0126859B858D85890F8195382F898585
S1132A509A85FC0184819581432F6C850E94EC1238
S1132A609C0189859A85FC013583248389859A850F
S1132A70FC01828193819A83898389859A85FC01EB
S1132A80848195819E838D8389819A819C838B83A4
S1132A908D819E8198878F8389859A85FC0186859F
S1132AA0882F90E08130910531F1823091051CF43A
S1132AB0892B49F098C08230910509F440C00397EE
S1132AC009F46DC090C089859A85FC018085082E23
S1132AD0000C990B2B813C81820F931F9C838B8369
S1132AE08B85082E000C990B2F813885820F931F3C
S1132AF098878F8378C08B85082E000C990B2981C9
S1132B003A81A901481B590BCA019A838983898197
S1132B109A8101969A8389838B819C8101969C83F7
S1132B208B8389859A85FC018085082E000C990B7E
S1132B302F813885820F931F98878F8354C089858E
S1132B409A85FC018085082E000C990B29813A8115
S1132B50A901481B590BCA019A83898389819A81E7
S1132B6001969A8389838B819C8101969C838B83B4
S1132B708B85082E000C990B2D813E81F901E81BF1
S1132B80F90BCF019E838D838D819E8101969E8357
S1132B908D838F819885019698878F8324C08B8538
S1132BA0082E000C990B2B813C81820F931F9C8370
S1132BB08B8389859A85FC018085082E000C990BEE
S1132BC02D813E81A901481B590BCA019E838D8327
S1132BD08D819E8101969E838D838F819885019638
S1132BE098878F830000EF81F8852B813C814D818C
S1132BF05E8169817A8189899A898F010E94F91B92
S1132C00882311F48E8547C089859A85FC01168234
S1132C1089859A85FC01178289899A89875A9F4FE9
S1132C20FC01208189859A85622F0E9436128F8744
S1132C3089899A89865A9F4FFC01208189859A85C2
S1132C40622F0E943612888B89899A8940E06F85A9
S1132C500E948E1389899A8941E068890E948E13A3
S1132C6089859A8561E00E943612882369F78985EF
S1132C709A85FC0197818B8598170CF4CDCF0000C1
S1132C8089859A85FC01248589899A898C589F4F66
S1132C90FC0120838E8564960FB6F894DEBF0FBEC8
S1132CA0CDBFDF91CF911F910F910895CF93DF9303
S1132CB0CDB7DEB76C970FB6F894DEBF0FBECDBFAD
S1132CC09A8F898F7C8F6B8F898D9A8D8C5B9F4FA8
S1132CD0FC01808191819A83898389819A814796B5
S1132CE09A8389838B8D9C8D8F3F910511F008F019
S1132CF05CC08B8D9C8D8136910570F0898D9A8D89
S1132D0086599F4FFC018081918129813A81820FEC
S1132D10931F9A83898312C08B8D9C8D8134910576
S1132D2068F0898D9A8D88599F4FFC01808191812B
S1132D3029813A81820F931F9A83898389819A8199
S1132D4001969E838D838D819E81FC0184918F8366
S1132D508F81882309F4A3C089819A819987888700
S1132D6088859985FC0184918A878A85282F30E09B
S1132D708B8D9C8D2817390721F489819A810296BD
S1132D8093C089819A8101969C878B878B859C85CA
S1132D90FC0184918D878D85882F90E029813A816B
S1132DA0820F931F9A838983C9CF898D9A8D845901
S1132DB09F4FFC018081918129813A81820F931F69
S1132DC09A83898389819A819C838B838B819C815B
S1132DD060E00E940D119C0189819A81820F931FEA
S1132DE09A8389838B819C8162E00E940D119F8765
S1132DF08E878B819C8104969C838B832E853F8553
S1132E008B8D9C8D2817390708F389819A81998BBA
S1132E10888B88899989FC0184918A8B8A89882F77
S1132E2090E09F878E878E859F85982F88279F8720
S1132E308E8789819A8101969C8B8B8B8B899C8947
S1132E40FC0184918D8B8D89882F90E02E853F85A0
S1132E50822B932B9F878E878E859F85892B09F1E3
S1132E602E853F858B8D9C8D2817390721F4898108
S1132E709A81039619C089819A8102969F8B8E8BC1
S1132E808E899F89FC018491888F888D882F90E09A
S1132E9029813A81820F931F9A838983B6CF0000D8
S1132EA001C0000080E090E06C960FB6F894DEBF9D
S1132EB00FBECDBFDF91CF910895CF93DF93CDB7F0
S1132EC0DEB72C970FB6F894DEBF0FBECDBF9E833E
S1132ED08D8378876F835A8749873C872B871A822B
S1132EE019828D819E81865B9F4F2F813885FC01DD
S1132EF0318320838D819E81845B9F4F29853A8510
S1132F00FC01318320832B853C858D819E81B90111
S1132F100E9456169C838B838B819C81892B61F044
S1132F202B813C818D819E81B9010E94B714082EAA
S1132F30000C990B9A83898389819A812C960FB608
S1132F40F894DEBF0FBECDBFDF91CF910895CF932C
S1132F50DF93CDB7DEB728970FB6F894DEBF0FBE68
S1132F60CDBF9A8389837C836B835E834D8338874B
S1132F702F8389819A818A5A9F4FFC018081882FEF
S1132F8090E081309105F9F0823091051CF4892B91
S1132F9039F052C08230910549F10397D1F14CC008
S1132FA089819A818A5B9F4FFC01208131818981CB
S1132FB09A81F90109959C018D819E81820F931F4D
S1132FC09E838D8339C089819A818A5B9F4FFC01DE
S1132FD02081318189819A81F90109959C018B8134
S1132FE09C81821B930B9C838B8326C089819A814D
S1132FF08A5B9F4FFC012081318189819A81F9018B
S113300009959C018D819E81821B930B9E838D83E8
S113301013C089819A818A5B9F4FFC012081318191
S113302089819A81F90109959C018B819C81820F88
S1133030931F9C838B8300002F8138854D815E8193
S11330406B817C8189819A810E945D1728960FB6D5
S1133050F894DEBF0FBECDBFDF91CF910895CF931B
S1133060DF93CDB7DEB72E970FB6F894DEBF0FBE51
S1133070CDBF98878F837A8769875C874B873E8724
S11330802D878F8198850E9401201A8219828F8151
S11330909885FC01228133818D859E85FC014081C8
S11330A08F819885642FF90109959C838B838B818B
S11330B09C81019609F45DC08D859E8501969E874D
S11330C08D878B819C81029611F32B813C814B85EA
S11330D05C8569857A858F8198850E94A7179E8370
S11330E08D838F8198858A5A9F4FFC018081882F18
S11330F090E081309105A9F0823091051CF4892B70
S113310039F02EC082309105A9F00397F1F028C060
S113311029853A858D819E81820F931F9A8789879D
S11331201FC02B853C858D819E81820F931F9C87B8
S11331308B8716C029853A858D819E81A901481BFC
S1133140590BCA019A8789870BC02B853C858D81D1
S11331509E81F901E81BF90BCF019C878B87000046
S113316029813A818D819E81820F931F9A8389835D
S11331708ECF000089819A812E960FB6F894DEBF17
S11331800FBECDBFDF91CF910895CF93DF93CDB71D
S1133190DEB728970FB6F894DEBF0FBECDBF9A8373
S11331A089837C836B835E834D8338872F838981F6
S11331B09A8122E130E2FC01338322832F81388516
S11331C04D815E816B817C8189819A810E942F1857
S11331D028960FB6F894DEBF0FBECDBFDF91CF9116
S11331E00895CF93DF9300D0CDB7DEB79A83898358
S11331F089819A818C5B9F4FFC0180819181892B0D
S113320009F4AFC089819A818C599F4FFC012081B8
S113321089819A8180599F4FFC01208389819A81F9
S11332208B599F4FFC01208189819A818F589F4F30
S1133230FC01208389819A8181599F4FFC018081FF
S1133240882309F48FC089819A8181599F4FFC0199
S113325080818130B1F589819A8180599F4FFC0129
S1133260208189819A818A599F4FFC018081281786
S113327064F489819A818A599F4FFC012081898154
S11332809A8180599F4FFC01208389819A818F58AC
S11332909F4FFC01208189819A8189599F4FFC01AC
S11332A0808182170CF05EC089819A8189599F4F71
S11332B0FC01208189819A818F589F4FFC012083D2
S11332C051C089819A8180599F4FFC018081282FA8
S11332D0880F330B89819A818F599F4FFC0180811C
S11332E0482F880F550B89819A818D599F4FFC0176
S11332F08081082E000C990B840F951F281739071D
S1133300ACF489819A818F599F4FFC018081282FC9
S113331089819A818D599F4FFC018081820F282FCA
S113332089819A8180599F4FFC01208389819A81E8
S11333308F589F4FFC01208189819A818D599F4F1D
S1133340FC018081821774F489819A818D599F4F81
S1133350FC01208189819A818F589F4FFC01208331
S113336001C000000F900F90DF91CF910895CF938B
S1133370DF9300D0CDB7DEB79A83898380E090E0F5
S11333800F900F90DF91CF910895CF93DF9300D0EA
S1133390CDB7DEB79A83898389819A818A5B9F4FEF
S11333A027EB39E1FC013183208300000F900F905B
S11333B0DF91CF910895CF93DF9300D000D0CDB7A4
S11333C0DEB79A8389837C836B8389819A818C5B42
S11333D09F4FFC01208131818B819C812817390703
S11333E0B1F089819A818C5B9F4F2B813C81FC01D8
S11333F03183208389819A81895A9F4F2B813C8113
S1133400B9010E94591189819A810E94F118000022
S11334100F900F900F900F90DF91CF910895CF935D
S1133420DF93CDB7DEB72C970FB6F894DEBF0FBE8F
S1133430CDBF9E838D8378876F835A8749873C8766
S11334402B878D819E81FC01808191819A83898360
S113345089819A819C838B838F819885FC018081EB
S113346091812B813C81820F931F9C838B832981C3
S11334703A818B819C8182179307A8F429813A8130
S11334808B859C852817390750F48B859C859C83F4
S11334908B838B819C8101979C838B8304C089855A
S11334A09A859A83898329813A818B859C852817FB
S11334B0390710F080E038C02B813C8189859A85DA
S11334C08217930710F080E02FC029813A81898503
S11334D09A852817390720F489859A859A838983E0
S11334E02B813C818B859C858217930720F48B85E7
S11334F09C859C838B838D819E8129813A81FC01EB
S1133500318320832B813C8189819A81A901481BC5
S1133510590BCA019C838B838F8198852B813C81B5
S1133520FC013183208381E02C960FB6F894DEBF32
S11335300FBECDBFDF91CF9108950F93CF93DF934B
S1133540CDB7DEB729970FB6F894DEBF0FBECDBF57
S11335509A8389837C836B835E834D8338872F832F
S1133560098789819A81DC019A968D919C919B9718
S11335702D813E81F901E81BF90BCF019E838D83D8
S113358089819A81DC015E96ED91FC915F972F8190
S113359038854D815E816B817C8189819A81098521
S11335A00995000029960FB6F894DEBF0FBECDBF73
S11335B0DF91CF910F9108950F93CF93DF93CDB700
S11335C0DEB729970FB6F894DEBF0FBECDBF9A833E
S11335D089837C836B835E834D8338872F8309873C
S11335E089819A8182599F4FDC018C91882309F447
S11335F0ADC08F819885892B09F4A8C08F819885E7
S1133600029728F18985823081F42B813C818F8156
S11336109885F901E81BF90BCF019C838B838B817F
S11336209C8101969C838B8312C08985833079F4B5
S11336302D813E818F819885A901481B590BCA01B0
S11336409E838D838D819E8101969E838D83898542
S1133650817089878985882371F589819A81DC0144
S1133660D8962D913C91D9978D819E81821793078D
S113367008F463C089819A81FC0122AD33AD8D8148
S11336809E818217930708F05AC089819A81DC01D0
S1133690D6962D913C91D79789819A81FC0144A9B2
S11336A055A9BE01695F7F4FCE0103960E940F1A90
S11336B0882361F54BC089819A81DC01D4962D91D0
S11336C03C91D5978B819C8182179307D0F1898196
S11336D09A81FC0126A937A98B819C8182179307C3
S11336E090F589819A81DC01DA962D913C91DB97E2
S11336F089819A81FC0140AD51ADBE01695F7F4F64
S1133700CE0105960E940F1A8823F9F089819A81C7
S1133710DC0190968D919C919197DC011496ED912A
S1133720FC9115972F8138854D815E816B817C8159
S113373089819A810985099509C0000007C00000A4
S113374005C0000003C0000001C0000029960FB6A8
S1133750F894DEBF0FBECDBFDF91CF910F910895D6
S1133760CF93DF93CDB7DEB728970FB6F894DEBFBB
S11337700FBECDBF9A8389837C836B835E834D8325
S113378038872F832D813E818B819C8128173907AF
S1133790A0F42F81388589819A818217930710F4C8
S11337A081E01EC02D813E818F8198858217930709
S11337B010F481E015C080E013C02F813885898121
S11337C09A818217930758F42D813E818F819885C1
S11337D08217930710F481E003C080E001C080E009
S11337E028960FB6F894DEBF0FBECDBFDF91CF9100
S11337F008950F931F93CF93DF93CDB7DEB72A9726
S11338000FB6F894DEBF0FBECDBF9A8389837C8345
S11338106B835E834D8338872F831A870987898159
S11338209A81FC0162AD73AD89819A81FC0180ADFE
S113383091AD29853A854D815E810E94B01B882314
S113384011F480E010C089819A81FC0166A977A9EE
S113385089819A81FC0184A995A92F8138854B819E
S11338605C810E94B01B2A960FB6F894DEBF0FBE8F
S1133870CDBFDF91CF911F910F9108950F93CF93F7
S1133880DF93CDB7DEB761970FB6F894DEBF0FBEF6
S1133890CDBF9A8789877C876B875E874D87388BF6
S11338A02F87098B8D858B838B8187708B8381E038
S11338B08E838E81882F90E02B81222F30E002C0EE
S11338C0880F991F2A95E2F78E831C821D828985B1
S11338D09A858C589F4FFC018081823010F48E8130
S11338E08C8389859A858C589F4FFC018081813017
S11338F011F08E818D838D859E8598878F838F812E
S11339009885887F98878F8389859A85FC01808133
S11339109181FC018089282F30E04F815885429F96
S1133920C001439F900D529F900D112498878F835F
S113393089859A85FC0182A193A19A83898329812F
S11339403A818F819885820F931F9A838983298175
S11339503A818B859C85820F931F9A8389838989F9
S1133960882329F589819A81FC0190818C81292FF2
S1133970282B89819A81FC01208389819A81FC0109
S113398090818D81292F282789819A81FC012083A8
S113399089819A8101969A8389838F859889019771
S11339A0988B8F878F859889892BE1F64FC0898101
S11339B09A81FC0190818C81292F282B89819A81FD
S11339C0FC01208389819A81FC0190818D81292FBA
S11339D0282789819A81FC0120838B818F5F8B83C7
S11339E08B8187708B838F8598890197988B8F87BC
S11339F08B81882301F589859A85FC0186A197A18D
S1133A0029813A81820F931F9A83898389859A85B4
S1133A108C589F4FFC018081823010F481E08C83AC
S1133A2089859A858C589F4FFC018081813049F0AB
S1133A3081E08D8306C08C81880F8C838D81880FF3
S1133A408D838F859889892B09F0B1CF0000619609
S1133A500FB6F894DEBF0FBECDBFDF91CF910F91AB
S1133A600895CF93DF9300D0CDB7DEB79A838983CF
S1133A7089819A81FC0115AE14AE89819A81805C9A
S1133A809F4FFC011182108289819A812FEF3FEFB1
S1133A90FC0137AF26AF89819A818E5B9F4F2FEF50
S1133AA03FEFFC013183208389819A81FC0180A14D
S1133AB091A1FC012281338189819A81F9010995BF
S1133AC000000F900F90DF91CF9108950F931F93F3
S1133AD0CF93DF93CDB7DEB729970FB6F894DEBF47
S1133AE00FBECDBF9A8389837C836B834D833F83D1
S1133AF02E831987088789819A818C5B9F4FFC01EB
S1133B001182108289819A812E813F81FC01378F35
S1133B10268F89819A812B813C81FC0133A322A3C6
S1133B2089819A812D81FC0124A389819A81FC01D8
S1133B3015A289819A818D5A9F4FFC011082898137
S1133B409A818D589F4FFC01108289819A818159F5
S1133B509F4FFC01108289819A818C589F4F21E0EC
S1133B60FC01208389819A818B589F4F21E0FC01BD
S1133B70208389819A8128853985FC0131A320A37A
S1133B8089819A81FC0180A191A1FC01208131816C
S1133B9089819A81F901099589819A810E94311D4F
S1133BA089819A810E94C51989819A818A5A9F4F75
S1133BB0FC011082000029960FB6F894DEBF0FBEF8
S1133BC0CDBFDF91CF911F910F910895CF93DF93D4
S1133BD000D000D000D0CDB7DEB79E838D838D8119
S1133BE09E81FC01808191819C838B838D819E8148
S1133BF0FC0184A1882F90E09A83898389819A812A
S1133C00880F991F880F991F880F991F9A8389839A
S1133C108D819E8129813A81FC0131A720A78B8166
S1133C209C81FC018089882F90E09A838983898113
S1133C309A81880F991F880F991F880F991F9A835B
S1133C4089838D819E8129813A81FC0137A326A332
S1133C508D819E81FC0185A1882F90E09A838983C0
S1133C6089819A81880F991F880F991F880F991F3E
S1133C709A8389838D819E8129813A81FC0133A7AE
S1133C8022A78D819E81FC0184A1882F90E09A83D4
S1133C9089838D819E81FC0185A1282F30E0898153
S1133CA09A81280F391F8B819C81FC018189882F7F
S1133CB090E08217930790F48B819C81FC018189A9
S1133CC0282F30E08D819E81FC0185A1882F90E012
S1133CD0A901481B590BCA019A83898389819A8156
S1133CE0880F991F880F991F880F991F9A838983BA
S1133CF08D819E81FC0122A533A58D819E81FC01CD
S1133D0035A724A78D819E81FC0124A535A58D812D
S1133D109E81FC0137A726A78D819E81FC0126A5E3
S1133D2037A589819A81280F391F8D819E81FC01D5
S1133D3037A726A78B819C81FC01248935898D8135
S1133D409E81FC0131AB20AB8B819C81FC012689D7
S1133D5037898D819E81FC0133AB22AB000026960E
S1133D600FB6F894DEBF0FBECDBFDF91CF9108959B
S1133D700F931F93CF93DF9300D0CDB7DEB79A8311
S1133D80898389819A818E5B9F4FDC01ED91FC913F
S1133D9089819A81DC01DE962D913C91DF9789819E
S1133DA09A81805C9F4FDC014D915C9189819A815D
S1133DB0DC01DC966D917C91DD9789819A818F017C
S1133DC00E94F91B882339F489819A8182599F4F73
S1133DD0FC01108277C089819A8182599F4F21E02A
S1133DE0DC012C9389819A81FC0124A935A989815C
S1133DF09A81DC01DC968D919C91DD972817390717
S1133E0060F489819A81FC0124AD35AD89819A8160
S1133E10DC01D5963C932E93D49789819A81FC0139
S1133E2026A937A989819A81DC01DE968D919C911E
S1133E30DF978217930760F489819A81FC0126AD8C
S1133E4037AD89819A81DC01D7963C932E93D6971E
S1133E5089819A81FC0120AD31AD89819A81805C90
S1133E609F4FDC018D919C912817390770F489814B
S1133E709A81805C9F4FFC012081318189819A81E4
S1133E80DC01D9963C932E93D89789819A81FC01C1
S1133E9022AD33AD89819A818E5B9F4FDC018D9178
S1133EA09C918217930770F489819A818E5B9F4F4E
S1133EB0FC012081318189819A81DC01DB963C936C
S1133EC02E93DA9700000F900F90DF91CF911F91FE
S1133ED00F910895CF93DF9300D0CDB7DEB79A83C7
S1133EE0898389819A810E94E61D00000F900F90BA
S1133EF0DF91CF910895CF93DF9300D0CDB7DEB794
S1133F009A83898389819A81FC0115AA14AA8981DB
S1133F109A81FC0120A931A989819A81FC0137ABDE
S1133F2026AB89819A81FC0124A535A589819A81D2
S1133F30FC0131AF20AF89819A81FC0126A537A508
S1133F4089819A81FC0133AF22AF89819A810E94D1
S1133F50B81E00000F900F90DF91CF9108950F933A
S1133F60CF93DF93CDB7DEB72B970FB6F894DEBFB0
S1133F700FBECDBF9C838B837E836D8358874F8315
S1133F803A8729870B878B819C81FC0182A993A99D
S1133F909A83898329813A818F819885A901481B55
S1133FA0590BCA019A8389838B85882F90E081708D
S1133FB09927892B59F029813A8189859A85F901B4
S1133FC0E81BF90BCF019A83898305C089819A8103
S1133FD001979A83898329853A8549815A816D811C
S1133FE07E818B819C810B850E949D1A00002B96FB
S1133FF00FB6F894DEBF0FBECDBFDF91CF910F9106
S11340000895CF93DF9300D0CDB7DEB79A83898329
S113401089819A81FC01108E00000F900F90DF912E
S1134020CF910895CF93DF9300D01F92CDB7DEB721
S11340309A8389836B838B81882319F08B818A30DF
S113404019F48FEF9FEF03C08B81882F90E00F90BE
S11340500F900F90DF91CF910895CF93DF9300D00D
S11340601F92CDB7DEB79A8389836B8389819A8146
S1134070DC011896ED91FC91199789819A8120E0D1
S113408030E04B8160E209950F900F900F90DF9123
S1134090CF910895CF93DF9300D000D01F92CDB776
S11340A0DEB79A8389836B835D834C8389819A818C
S11340B0DC011896ED91FC9119972C813D81898141
S11340C09A814B8167E109950F900F900F900F90A3
S11340D00F90DF91CF910895CF93DF9300D01F927B
S11340E0CDB7DEB79A8389836B839E012D5F3F4FE3
S11340F089819A81A90161E00E944A200F900F9062
S11341000F90DF91CF910895CF93DF9300D01F924A
S1134110CDB7DEB79A8389836B8389819A81DC0169
S11341201696ED91FC91179789819A8120E030E0F1
S11341304B8165E109950F900F900F90DF91CF911E
S11341400895CF93DF9300D01F92CDB7DEB79A8343
S113415089836B8389819A81DC011696ED91FC91A8
S1134160179789819A8120E030E04B8166E10995B7
S11341700F900F900F90DF91CF910895CF93DF931D
S113418000D000D01F92CDB7DEB79A8389836B83AA
S11341905D834C8389819A81DC011696ED91FC91B3
S11341A017972C813D8189819A814B8167E109951B
S11341B00F900F900F900F900F90DF91CF91089573
S11341C0CF93DF9300D0CDB7DEB79A8389838981FB
S11341D09A81DC011696ED91FC91179789819A8159
S11341E020E030E040E068E109950F900F90DF9106
S11341F0CF910895CF93DF9300D0CDB7DEB79A83E4
S1134200898389819A81DC011696ED91FC91179737
S113421089819A8120E030E040E069E109950F90BE
S11342200F90DF91CF910895CF93DF9300D000D00A
S113423000D0CDB7DEB79C838B837E836D838D8165
S11342409E81DC018C9189838D819E8101969E8360
S11342508D838981882F90E08731910539F18831E8
S1134260910524F445970CF457C007C08A31910591
S11342708CF18E3F9105E9F14FC08D819E81FC0147
S113428080818A838B819C81DC011696ED91FC915F
S113429017974A818B819C8120E030E069810995E0
S11342A08D819E8101969E838D8335C08D819E81F3
S11342B0FC0180818A839E012E5F3F4F8B819C810C
S11342C0A90161E00E94BE208D819E8101969E839A
S11342D08D8321C08B819C81DC011696ED91FC912C
S11342E017978B819C8120E030E040E0698109953B
S11342F012C08D819E81FC0180818A832A818B81F9
S11343009C81422F69E20E947C248D819E810196CA
S11343109E838D83000093CF000026960FB6F894F9
S1134320DEBF0FBECDBFDF91CF910895CF93DF9352
S113433000D000D000D0CDB7DEB79A8389836B83D9
S11343404C833E832D838B81882F90E086319105A9
S1134350D1F08731910534F48431910521F14597E9
S113436039F030C087319105C9F04A975CF51BC01C
S113437089819A8160E00E942D2089819A816C81D3
S11343800E946C2021C089819A8160E00E942D20C6
S113439089819A816C810E946C2016C089819A81DE
S11343A061E00E942D2089819A81DC011896ED91AB
S11343B0FC9119972D813E8189819A814C816B8171
S11343C0099503C080E001C081E026960FB6F894F9
S11343D0DEBF0FBECDBFDF91CF910895CF93DF93A2
S11343E000D000D0CDB7DEB79A8389837C836B83FA
S11343F089819A812B813C81FC01318320838981CD
S11344009A81FC0180819181FC01228989819A81B0
S1134410FC01248B00000F900F900F900F90DF9100
S1134420CF910895CF93DF9300D0CDB7DEB79A83B1
S1134430898389819A81DC011A96ED91FC911B97FD
S113444089819A8120E030E040E068E20995898121
S11344509A81DC011696ED91FC91179789819A81D6
S113446020E030E040E064E1099589819A8141E0EF
S11344706BE40E947C2489819A81FC018081918172
S1134480DC0114962C9189819A81422F69E20E9461
S11344907C2489819A8140E06BE40E947C24898198
S11344A09A81FC0180819181DC0114962C9189818F
S11344B09A81422F69E20E947C2489819A8141E099
S11344C06BE40E947C2489819A81FC018081918122
S11344D0DC0115962C9189819A81422F69E20E9410
S11344E07C2400000F900F90DF91CF9108950F93DB
S11344F01F93CF93DF93CDB7DEB72C970FB6F89405
S1134500DEBF0FBECDBF9F838E83688749872A870E
S11345101C870B8788858C8389858D838A858B830B
S11345208B859C859A8389838E819F81DC01149677
S1134530ED91FC9115978E819F819E012F5F3F4FD6
S113454041E06FE009952C960FB6F894DEBF0FBEDC
S1134550CDBFDF91CF911F910F910895CF93DF933A
S113456000D0CDB7DEB79A83898389819A81DC0133
S11345701496ED91FC91159789819A8120E030E0A1
S113458040E069E0099500000F900F90DF91CF9112
S11345900895CF93DF9300D0CDB7DEB79A83898394
S11345A089819A81DC011496ED91FC91159789819A
S11345B09A8120E030E040E06AE0099500000F9025
S11345C00F90DF91CF910895CF93DF9300D01F9286
S11345D0CDB7DEB79A8389836B8389819A81DC01A5
S11345E01496ED91FC91159789819A8120E030E031
S11345F04B816BE0099500000F900F900F90DF91B5
S1134600CF910895CF93DF9300D01F92CDB7DEB73B
S11346109A8389836B8389819A81DC011496ED9155
S1134620FC91159789819A8120E030E04B816DE0FF
S1134630099500000F900F900F90DF91CF9108958E
S1134640CF93DF9300D01F92CDB7DEB79A838983CF
S11346506B8389819A81DC011496ED91FC91159705
S113466089819A8120E030E04B816EE00995000059
S11346700F900F900F90DF91CF910895CF93DF9318
S113468000D0CDB7DEB79A83898389819A81DC0112
S11346901496ED91FC91159789819A8120E030E080
S11346A040E060E1099500000F900F90DF91CF91F9
S11346B00895CF93DF93CDB7DEB72A970FB6F8945A
S11346C0DEBF0FBECDBF9E838D836F8348873A873D
S11346D029878F81882F90E08E30910509F481C05D
S11346E08F30910521F00B9709F46AC091C08D8138
S11346F09E810E94E02089859A85FC0183818A83BA
S11347008A81880F880F880F8A838D819E81FC019E
S113471084899A81890F8A838A8182958F70282F50
S113472020618D819E81622F0E9484208A81282F9E
S11347302F708D819E81622F0E94842089859A85A5
S1134740FC018481282F206B8D819E81622F0E9421
S1134750842089859A85FC01828189838981880FD7
S1134760880F880F898389859A85FC0180819181CE
S11347709C838B838981282F30E08A81882F90E065
S1134780820F931F8538910540F084E889839981CD
S11347908A81F92FF81B8F2F89832B813C818D818E
S11347A09E81A90169810E94BE20888581508887E5
S11347B08885882391F78D819E810E94FA202AC0E2
S11347C08885882339F48D819E816FE372E00E948D
S11347D0142120C08D819E8166E472E00E94142120
S11347E019C08D819E810E94E0208D819E8161E8A7
S11347F00E9484208885282F269526958D819E8168
S1134800622F0E94A1208D819E810E94FA2002C005
S113481080E001C081E02A960FB6F894DEBF0FBE97
S1134820CDBFDF91CF910895CF93DF9300D000D017
S113483000D0CDB7DEB79A8389836B834C833E83E4
S11348402D832D813E8189819A814C816B810E94C7
S11348505923882309F046C08B81882F90E08A3041
S1134860910561F08D309105A1F00997C9F5898111
S11348709A816BE572E00E94EE2134C089819A81AD
S11348800E94122289819A8163E772E00E941421B6
S113489029C08C81882391F489819A816DE472E026
S11348A00E94142189819A81FC0180819181FC01FB
S11348B0228989819A81FC01248B14C089819A817F
S11348C064E572E00E94142189819A81FC0180814F
S11348D09181FC01238989819A81FC01248B02C086
S11348E080E001C081E026960FB6F894DEBF0FBECB
S11348F0CDBFDF91CF910895CF93DF9300D000D047
S1134900CDB7DEB79A8389836B834C8389819A817F
S1134910DC011A96ED91FC911B9789819A8120E024
S113492030E04C816B81099500000F900F900F903F
S11349300F90DF91CF910895CF93DF9300D000D0F3
S113494000D0CDB7DEB79A8389836B834C833E83D3
S11349502D8380E026960FB6F894DEBF0FBECDBF40
S1134960DF91CF910895CF93DF9300D0CDB7DEB719
S11349709A83898389819A81FC01118210828981B9
S11349809A812CE934E2FC013583248389819A815C
S11349902CE934E2FC013783268389819A812CE94E
S11349A034E2FC013187208789819A812CE934E241
S11349B0FC013387228789819A81FC01158A8981C8
S11349C09A81FC01108E89819A81FC0114861586D6
S11349D01686178689819A812FEFFC01268B89819F
S11349E09A812FEFFC01228F00000F900F90DF912E
S11349F0CF9108950F931F93CF93DF93CDB7DEB775
S1134A002A970FB6F894DEBF0FBECDBF9A83898371
S1134A107C836B835E834D8338872F831A87098752
S1134A2089819A810E94B32489819A812B813C8156
S1134A30FC013583248389819A812D813E81FC0187
S1134A403783268389819A812F813885FC013187B8
S1134A50208789819A8129853A85FC0133872287B9
S1134A6089819A810E94AE2200002A960FB6F8949A
S1134A70DEBF0FBECDBFDF91CF911F910F9108957F
S1134A800E94B12508F481E008950E94DD2588F094
S1134A909F5798F0B92F9927B751B0F0E1F0660FFE
S1134AA0771F881F991F1AF0BA95C9F714C0B1303F
S1134AB091F00E94F725B1E008950C94F725672F33
S1134AC0782F8827B85F39F0B93FCCF3869577956E
S1134AD06795B395D9F73EF4909580957095619557
S1134AE07F4F8F4F9F4F0895E89409C097FB3EF482
S1134AF090958095709561957F4F8F4F9F4F992327
S1134B00A9F0F92F96E9BB279395F69587957795A4
S1134B106795B795F111F8CFFAF4BB0F11F460FF64
S1134B201BC06F5F7F4F8F4F9F4F16C0882311F0BC
S1134B3096E911C0772321F09EE8872F762F05C0D0
S1134B40662371F096E8862F70E060E02AF09A956B
S1134B50660F771F881FDAF7880F9695879597F960
S1134B600895990F0008550FAA0BE0E8FEEF1616FA
S1134B701706E807F907C0F012161306E407F5074D
S1134B8098F0621B730B840B950B39F40A2661F0C1
S1134B90232B242B252B21F408950A2609F4A14064
S1134BA0A6958FEF811D811D089557FD9058440FE0
S1134BB0551F59F05F3F71F04795880F97FB991F78
S1134BC061F09F3F79F08795089512161306140635
S1134BD0551FF2CF4695F1DF08C0161617061806C2
S1134BE0991FF1CF86957105610508940895E8949D
S1134BF0BB2766277727CB0197F908950E94B12533
S1134C0008F48FEF08950E9416260C9487260E94BC
S1134C10792638F00E94802620F0952311F00C9418
S1134C2070260C94762611240C94F8250E94D52520
S1134C3070F3959FC1F3950F50E0551F629FF001EB
S1134C40729FBB27F00DB11D639FAA27F00DB11D04
S1134C50AA1F649F6627B00DA11D661F829F22278D
S1134C60B00DA11D621F739FB00DA11D621F839F14
S1134C70A00D611D221F749F3327A00D611D231FEA
S1134C80849F600D211D822F762F6A2F11249F5738
S1134C9050409AF0F1F088234AF0EE0FFF1FBB1F3B
S1134CA0661F771F881F91505040A9F79E3F5105FA
S1134CB080F00C9470260C94F8255F3FE4F3983E42
S1134CC0D4F3869577956795B795F795E7959F5FA4
S1134CD0C1F7FE2B880F911D9695879597F9089536
S1134CE097F99F6780E870E060E008959FEF80EC9B
S1134CF0089500240A94161617061806090608953E
S1134D0000240A9412161306140605060895092EA3
S1134D100394000C11F4882352F0BB0F40F4BF2B12
S1134D2011F460FF04C06F5F7F4F8F4F9F4F089552
S1134D30DB018F939F930E940127BF91AF91A29FA4
S1134D40800D911DA39F900DB29F900D1124089585
S1134D50AA1BBB1B51E107C0AA1FBB1FA617B7079D
S1134D6010F0A61BB70B881F991F5A95A9F78095B9
S1134D709095BC01CD01089597FB072E16F400947D
S1134D8007D077FD09D00E94A82607FC05D03EF481
S1134D90909581959F4F0895709561957F4F0895E3
S1134DA0A1E21A2EAA1BBB1BFD010DC0AA1FBB1F2B
S1134DB0EE1FFF1FA217B307E407F50720F0A21B9D
S1134DC0B30BE40BF50B661F771F881F991F1A940A
S1134DD069F760957095809590959B01AC01BD0134
S1134DE0CF010895A29FB001B39FC001A39F700D8E
S1134DF0811D1124911DB29F700D811D1124911DDF
S1134E0008950E94F226A59F900DB49F900DA49F33
S1134E10800D911D11240895DC0101C06D93415052
S1134E205040E0F70895AEE0B0E0E9E1F7E20C9419
S1134E30D4290D891E8986E08C831A8309838FEF18
S1134E409FE79E838D83AE01475E5F4F6F89788DA8
S1134E50CE0101960E943527EF81F885E00FF11FFE
S1134E6010822E96E4E00C94F029ABE0B0E0EBE382
S1134E70F7E20C94C6296C017B018A01FC011782BC
S1134E801682838181FFCCC1CE0101963C01F601DB
S1134E909381F70193FD859193FF81917F0188238D
S1134EA009F4BAC1853239F493FD859193FF819158
S1134EB07F01853229F4B60190E00E942C29E7CFC6
S1134EC0912C212C312CFFE1F315D8F08B3279F0A1
S1134ED038F4803279F08332A1F4232D20611DC08F
S1134EE08D3261F0803369F4232D216016C0832D47
S1134EF08260382EE32DE4603E2E2AC0F32DF86044
S1134F001DC037FC2DC020ED280F2A3040F08E3212
S1134F10B9F436FC81C1232D2064322E19C036FE2B
S1134F2006C08AE0989E200D1124922E11C0EAE05A
S1134F302E9E200D1124222EF32DF0623F2E08C048
S1134F408C3621F4832D8068382E02C0883641F4D3
S1134F50F70193FD859193FF81917F018111B3CF77
S1134F60982F9F7D9554933028F40C5F1F4F9FE337
S1134F7099830DC0833631F0833771F0833509F09E
S1134F8059C021C0F801808189830E5F1F4F882496
S1134F908394912C530113C02801F2E04F0E511C4D
S1134FA0F801A080B18036FE03C0692D70E002C014
S1134FB06FEF7FEFC5010E9421294C018201F32D7F
S1134FC0FF773F2E16C0280122E0420E511CF80143
S1134FD0A080B18036FE03C0692D70E002C06FEF7F
S1134FE07FEFC5010E9416294C01F32DF0683F2E76
S1134FF0820133FC1BC0822D90E088169906B0F420
S1135000B60180E290E00E942C292A94F4CFF501A5
S113501037FC859137FE81915F01B60190E00E94D3
S11350202C2921102A9421E0821A910881149104D8
S113503071F7E8C0843611F0893641F5F80137FE7E
S113504007C060817181828193810C5F1F4F08C00A
S113505060817181072E000C880B990B0E5F1F4F26
S1135060F32DFF763F2E97FF09C09095809570959C
S113507061957F4F8F4F9F4FF0683F2E2AE030E0BD
S1135080A3010E946829882E861845C0853731F40B
S1135090232D2F7EB22E2AE030E025C0932D997F58
S11350A0B92E8F36C1F018F4883579F0B5C0803741
S11350B019F0883721F0B0C0E92FE061BE2EB4FEAC
S11350C00DC0FB2DF460BF2E09C034FE0AC0292F89
S11350D02660B22E06C028E030E005C020E130E0B2
S11350E002C020E132E0F801B7FE07C0608171819F
S11350F0828193810C5F1F4F06C06081718180E0C3
S113510090E00E5F1F4FA3010E946829882E861825
S1135110FB2DFF773F2E36FE0DC0232D2E7FA22EB2
S1135120891458F434FE0BC032FC09C0832D8E7EE2
S1135130A82E05C0B82CA32C03C0B82C01C0B92CD0
S1135140A4FE0FC0FE01E80DF11D8081803321F41F
S11351509A2D997EA92E09C0A2FE06C0B394B394D9
S113516004C08A2D867809F0B394A3FC11C0A0FE74
S113517006C0B21488F4280C922C9B180EC0B214EA
S113518060F4B60180E290E00E942C29B394F7CF3A
S1135190B21418F42B1802C0982C212CA4FE10C0B1
S11351A0B60180E390E00E942C29A2FE17C0A1FC66
S11351B003C088E790E002C088E590E0B6010CC027
S11351C08A2D867859F0A1FE02C08BE201C080E2EC
S11351D0A7FC8DE2B60190E00E942C29891438F4D2
S11351E0B60180E390E00E942C299A94F7CF8A9428
S11351F0F301E80DF11D8081B60190E00E942C2995
S11352008110F5CF222009F442CEB60180E290E06D
S11352100E942C292A94F6CFF6018681978102C038
S11352208FEF9FEF2B96E2E10C94E229FC010590AD
S1135230615070400110D8F7809590958E0F9F1F94
S11352400895FC016150704001900110D8F78095D9
S113525090958E0F9F1F08950F931F93CF93DF9305
S1135260FB01238121FD03C08FEF9FEF2CC022FFA0
S113527016C046815781248135814217530744F46F
S1135280A081B1819D012F5F3F4F318320838C9397
S1135290268137812F5F3F4F3783268314C08B01CC
S11352A0EC01FB010084F185E02D0995892BE1F6E1
S11352B0D80116968D919C911797019617969C93F9
S11352C08E931697CE01DF91CF911F910F91089580
S11352D0FA01AA27283051F1203181F1E8946F9323
S11352E06E7F6E5F7F4F8F4F9F4FAF4FB1E03ED0C9
S11352F0B4E03CD0670F781F891F9A1FA11D680F67
S1135300791F8A1F911DA11D6A0F711D811D911D99
S1135310A11D20D009F468943F912AE0269F11240E
S11353203019305D3193DEF6CF010895462F477072
S1135330405D4193B3E00FD0C9F7F6CF462F4F70CD
S1135340405D4A3318F0495D31FD4052419302D02B
S1135350A9F7EACFB4E0A6959795879577956795D1
S1135360BA95C9F700976105710508959B01AC01D1
S11353700A2E06945795479537952795BA95C9F7F8
S1135380620F731F841F951FA01D08952F923F92D3
S11353904F925F926F927F928F929F92AF92BF9241
S11353A0CF92DF92EF92FF920F931F93CF93DF93ED
S11353B0CDB7DEB7CA1BDB0B0FB6F894DEBF0FBE4A
S11353C0CDBF09942A88398848885F846E847D8497
S11353D08C849B84AA84B984C884DF80EE80FD8099
S11353E00C811B81AA81B981CE0FD11D0FB6F8940F
S11153F0DEBF0FBECDBFED010895F894FFCFD0
S11353FE012E000228000225000040002E00032882
S113540E00012E0002F8010100000002000000005D
S113541E380D000000002B00022800032B00052588
S113542E0005001200120A17000153756E004D6F2D
S113543E6E005475650057656400546875004672B5
S113544E6900536174001F1C1F1E1F1E1F1F1E1F89
S113545E1E1F0D52656164790A0D005258204D4F7E
S113546E44554C4500446174653A20253032642D10
S113547E253032642D3230253032640054696D6526
S113548E3A20253032643A253032643A253032647B
S113549E004241543A202530336400554E49582079
S11354AE74696D6520256C75000000000000000015
S11354BE00000000000000000000000000000000DA
S11354CE00000000000000000000000000000000CA
S11354DE00000000000000000000000000000000BA
S11354EE00000000000000000000000000000000AA
S11354FE000000000000000000000000000000009A
S113550E0000000000000000000000000000000089
S113551E0000000000000000000000000000000079
S113552E0000000000000000006A1F7B1FAF1F1860
S113553E15A415AF19FF1815AE15A519FF1815A149
S113554E15C819FF1815A015C019FF0001963201D0
S113555E01327800093D0000042850100800048030
S113556E0040001815E215AE154015A115C815A674
S113557E15A2152F15F8160015271581160715AE49
S107558E15A519FF43
S9030000FC
