:100000000C9488050C943F0A0C94A5050C94A50546
:100010000C94A5050C94A5050C94A5050C94A505B8
:100020000C94A5050C94A5050C94A5050C94A505A8
:100030000C94A5050C94A5050C94A5050C94A50598
:100040000C94A5050C94A5050C94B0090C94A50579
:100050000C94E7090C94A7050C94A5050C94A50530
:100060000C94A5050C94A5050C94A5050C94A50568
:100070000C94A5050C94A5050C94A5050C94A50558
:100080000C94A5050C94A5050C94A5050C94A50548
:100090000C94A5050C94A5050C94A5050C94E907F2
:1000A0000C945B080C94A5050C94A5050C94A5056F
:1000B0000C94A5056E616E00696E660000407A10B2
:1000C000F35A00A0724E18090010A5D4E80000E809
:1000D0007648170000E40B54020000CA9A3B000067
:1000E00000E1F505000080969800000040420F00F6
:1000F0000000A08601000000102700000000E803B7
:10010000000000006400000000000A000000000081
:100110000100000000002C76D888DC674F0823DF40
:10012000C1DFAE59E1B1B796E5E3E453C63AE65113
:10013000997696E8E6C28426EB898C9B62ED407C3A
:100140006FFCEFBC9C9F40F2BAA56FA5F490055AD6
:100150002AF75C936B6CF9676DC11BFCE0E40D47FB
:10016000FEF520E6B500D0ED902E0300943577051E
:100170000080841E080000204E0A000000C80C33D6
:100180003333330F986E12831141EF8D2114893B65
:10019000E65516CFFEE6DB18D1844B381BF77C1DE5
:1001A000901DA4BBE424203284725E228100C9F138
:1001B00024ECA1E53D27BF0203020304010204066B
:1001C0000A00FE07FE0700017602F9093C2007D667
:1001D000F8F92300210AD6F891B43B985300220B7A
:1001E000D6F8932CC9929C37002310D6F8932C890B
:1001F0000629890629C9929C00240DD6F891704AD7
:10020000C23189C69C02250DD6F8A3A429092B5119
:10021000D29413260ED6F8C3244BC24A53A6E43018
:10022000002709D6F891B4CE23002809D6F8A1B04A
:100230005AAE132909D6F8E36AB14E022A0ED6F84F
:10024000D12C4AA2414AA22CA7022B0AD6F8F1349B
:100250001BB434672C09D6F87913EB18002D09D696
:10026000F8D9069D1B002E09D6F8790BC71C022F62
:100270000AD6F8B134EC9AD3003010D6F891308910
:10028000B2244BB22809730A00310CD6F891504BB6
:10029000D2B6418701320CD6F8A72CCDB4301D74EC
:1002A00018330CD6B807350CE5248B7602340DD6FE
:1002B000F8A1504BA2D220A63901350DD6B807259A
:1002C0004D24294DB26827360DD6F8112D4C13490F
:1002D0004AB26827370BD6B807354CC36A4E023886
:1002E0000DD6F8A72CC9A2294BB26827390DD6F82C
:1002F000A72C892C6998E914003A0CD6F8F170CC37
:10030000C170CC21003B0BD6F8F170CC41B18E010D
:100310003C09D6F8B1B0B91D063D0AD6F889833E2E
:10032000E88C003E09D6F8E3C67612003F0BD6F8FB
:10033000A72CACE6604E01400CD6F8A72C89942E71
:1003400052BC134110D6F8913089B2244B06254B8C
:10035000B21C06420CD6B8872C6ADAA29621274333
:100360000BD6F8A72C49DBA29D00440BD6B8872CEE
:10037000EA5F869C00450DD6B807254D87284D07B6
:100380001D06460CD6B807254D8728ADD300470C6F
:10039000D6F8A72C494B4A16ED044810D6B8B3241A
:1003A0004BB26450B2244BB21C064908D6F8C7B40D
:1003B000E34E4A0BD6F891316DAAE914004B0ED6E4
:1003C000B8B324AA64629245B51C064C09D6B8D3CA
:1003D0005E071D064D0ED6B8B3244B2CDD922CC9FA
:1003E00072184E0FD6B8B3244BA4A4939225590E7D
:1003F000034F0ED6F8A72CC9922CC9922CDA0950BB
:100400000DD6B887284BB26488D23A0D510ED6F873
:10041000A72CC9922CC992A639075210D6B88728A2
:100420004BB26488922CAAE53000530CD6F8A72C66
:1004300089E7248B76025409D6B8072DED9D025525
:100440000FD6B8B3244BB2244BB2248B760256108D
:10045000D6B8B3244BB228C9922C09730A00570EA0
:10046000D6B8B3244BB2A42F962C8701580FD6B818
:10047000B3248B92B012654996C300590CD6B8B319
:10048000248B92306DA7005A0BD6B80735EC3AE8AA
:1004900030005B08D6F8B7B4EB4E5C09D6B8D3B8D9
:1004A0006B0E035D08D6F8D7DE76025E0BD6F891A8
:1004B0003089B29C27005F08D6F8F93CE800600854
:1004C000D6B8E29C5F00610DD6F8A9733424593484
:1004D000E43000620DD6B8D38A2425592225894EEE
:1004E000630BD6F8A95396A459B413640ED6F8B189
:1004F00034524A4A9644961C06650BD6F8A9539680
:100500000C4ABC13660CD6F8112D2A0E595A270135
:10051000670FD6F8A94392255934A449164D0068AF
:100520000ED6B8D38A2425599225590E03690AD6C6
:10053000F8911C531B77026A0BD6F8B11C539BBA77
:1005400049006B0DD6B8D35A12455B54CB61006C91
:1005500008D6F8D51E77026D0BD6F8894A94F46F49
:10056000390C6E0ED6F889892425599225590E0327
:100570006F0CD6F8A95396644916ED04700FD6F89F
:10058000898924255922258994A600710DD6F8A9B8
:100590004A49C992C8925600720BD6F88989242517
:1005A000699D06730AD6F8A9533C27434E740BD6AF
:1005B000F8D370C8D252A613750DD6F88959922572
:1005C0005912597218760DD6F88959924549968470
:1005D0003905770CD6F8895992257D4A7202780D33
:1005E000D6F8895994849528CB6100790ED6F8897C
:1005F00059922591254DB268027A0BD6F88983D895
:1006000038E830007B0CD6F8212DCEE430D66100DE
:100610007C09D6F891B4EF14007D0BD6F8E530D6FE
:10062000E24CA7007E0AD6F8A3A453CE1B00A00775
:10063000D6F8F92300A10AD6F8911C4CBB5300A2AE
:100640000FD6F8F170486A49968443964300A30D8B
:10065000D6F8112D2A8E6994243A01A40DD6F88972
:1006600059B425D994E53000A50ED6B8B3248B92A1
:10067000301BB4B40E01A60BD6F891B40EA6750AC1
:1006800000A70DD6F8A7748BB2285BA31D01A8079D
:10069000D678EAFC01A90CD6F8A72C6991926ED104
:1006A0004EAA0DD6F891A9454B7264C8A900AB0EAD
:1006B000D6F8C9511225511665518E02AC09D6F8EB
:1006C0001987346704AD09D6F819879C1B00AE0E54
:1006D000D6F8A72C59122991922CDA09AF08D638EE
:1006E000069D9F01B00AD6F8913009731E01B10C26
:1006F000D6F8F1341BB4341B7418B20BD6B8B42836
:100700002C0E393700B30AD678E64C8E768E00B4BC
:1007100008D6F8C29C9F00B50FD6F8895992255982
:10072000222589948300B610D6F88764499648C973
:10073000922CC9921C06B708D6F85973AE00B808B7
:10074000D6F8F929CC00B909D6B842B5B87304BABD
:100750000CD6F8112D6AD3A121A702BB0DD6F889BA
:10076000511665511225514EBC0DD67842B53885CB
:100770005A120D690CBD0DD67842B5B884491A8657
:100780003300BE0ED638E430CEA4504BA221CD01AA
:10079000BF0BD6F8911C4CC35AB413C00FD678E2E5
:1007A00070CA922C19942CC97218C10FD6F8C27055
:1007B000CA922C19942CC97218C210D6B8C2249BA4
:1007C000B2244B06254BB21C06C311D678A224D105
:1007D000A62CC99241C9922C8701C410D678EAD0C0
:1007E00094255932285992E53000C510D6B8C22454
:1007F0009BB2244B06254BB21C06C60ED6F891219F
:1008000029350D43D4B4A300C70BD6F8A72C49DB78
:10081000A2B108C80ED678C24149D3214AD3418734
:1008200001C90ED6F8A24149D3214AD3418701CA52
:100830000ED6B8B24149D3214AD3418701CB0ED657
:10084000784A8392A64394A6830E03CC0AD678E214
:10085000704C1B7702CD0AD6F8C2704C1B7702CEC3
:100860000BD6B8C2241BD3C69D00CF0AD678EAD0D7
:100870009836EE04D00CD6B8872C6A59A22E434E77
:10088000D111D6B8922889B2444A3A295992E53012
:1008900000D20ED678E270CA922CC9922CDA09D313
:1008A0000ED6F8C270CA922CC9922CDA09D40FD68F
:1008B000B8C2249BB2244BB2248B7602D510D6B892
:1008C0009228C9A62CC9922CC9A29D00D60ED67812
:1008D000EAD0942559922559B413D70DD6F88959E1
:1008E00094849528CB6100D80ED6F8A74889941631
:1008F0002991A29D00D90ED678E2AC922559922575
:1009000059B413DA0ED6F8C2AC922559922559B4CF
:1009100013DB0FD6B8C22447B2244BB2248B760225
:10092000DC0FD678EA4896644996644916ED04DDF2
:100930000DD6F8C2AC92454998D62900DE0DD6B83E
:10094000D321CA92214AEB3400DF0ED6F8A72C89B6
:100950002A59544B129D00E00ED678E21C9BA3212D
:10096000C9A2218701E10ED6F8C21C9BA321C9A20E
:10097000218701E20FD6B8C22487E66848B268C86A
:100980006100E30FD6B89228C9A1391A922C1A72C5
:1009900018E40ED6F8931C9AA321C9A2218701E579
:1009A0000FD6B8C2240CE76848B268C86100E60DEB
:1009B000D6F8A9439824C3940D3A0AE70CD6F8A9AF
:1009C0005396A459341601E80DD678E21C9BB26404
:1009D00050E29D00E90DD6F8C21C9BB26450E29D26
:1009E00000EA0DD6B8C22487A62C19947827EB0DFF
:1009F000D6F8931C9AB26450E29D00EC0AD678E2D5
:100A00001C531B7702ED0AD6B8C21C541B7702EEAA
:100A10000BD6B8C22487D4C69D00EF0AD6F8931C23
:100A2000521B7702F00CD6B86D5396644916ED044C
:100A3000F111D6B89228C9914492922CC9922C8770
:100A400001F20DD678E21C9BB2244BB26827F30D5D
:100A5000D6F8C21C9BB2244BB26827F40ED6B8C29B
:100A60002487A62CC9922CDA09F50FD6B89228C98A
:100A7000A1294BB2248B7602F60DD6F8931C9AB2BC
:100A8000244BB26827F70AD6F8F11C1A742867F8C5
:100A90000DD6F8A94312292D5232E404F90FD67865
:100AA000E21CCA922CC992C892C300FA0FD6F8C2AF
:100AB0001CCA922CC992C892C300FB10D6B8C2249B
:100AC00047B2244BB224B2E43000FC0FD6F8931C9A
:100AD000C9922CC992C892C300FD0FD6F8A130ABC1
:100AE00064496449932C9A00FE0FD6F8D17488B2F9
:100AF000244BB26488D214FF10D6F8931CC9922CF0
:100B0000892C699245130000000004FFFF000000DB
:100B100011241FBECFEFD8E0DEBFCDBF12E0A0E0B2
:100B2000B1E0E6E3FCE302C005900D92AC3CB107F6
:100B3000D9F726E0ACECB2E001C01D92A134B207B7
:100B4000E1F70E944E0A0C94191E0C9400001F92AB
:100B50000F920FB60F9211248F9381E080930001C2
:100B60008F910F900FBE0F901F901895ECE7F0E05B
:100B70008081806C8083EAE7F0E080818F688083E9
:100B80000895ECE7F0E09081907F90839081892B2D
:100B900080830895EAE7F0E0808180688083109286
:100BA0000001808180648083809100018823E1F3CB
:100BB0008091780020917900EAE7F0E090819F77BA
:100BC000908390E0922B08950E94C1050E94CA056F
:100BD000BC0180E090E00E947D172DEC3EE148E9E9
:100BE0005FE30E940B180E944E17CB010895CF932C
:100BF000DF9300D0CDB7DEB78093CC0293E099832A
:100C00009FEF9A8322E030E0AE014F5F5F4F60E0DC
:100C10000E940C090F900F90DF91CF910895CF9310
:100C2000DF9300D0CDB7DEB719821A8222E030E020
:100C3000AE014F5F5F4F682F8091CC020E946C081D
:100C4000898190E0982F88272A81822B0F900F901E
:100C5000DF91CF9108958F929F92AF92BF92CF92E2
:100C6000DF92EF92FF92CF93DF93EC0181E00E943D
:100C70000F06BC0180E090E00E947D1729E636EF68
:100C800049E55FE30E940B1820E030E0A9010E94D3
:100C900069166B017C0182E00E940F06BC0180E0B6
:100CA00090E00E947D172CE639E44DE95FE30E9455
:100CB0000B1820E030E0A9010E9469164B015C018D
:100CC0000E944E177D836C83C701B6010E944717AF
:100CD0007B836A83A5019401C701B6010E940B18AA
:100CE00020E034E244E759E40E94D5166E837F8306
:100CF0008887998720E030E041E655E40E94D516C8
:100D00009B01AC016A857B858C859D850E94691657
:100D10006A877B878C879D8781E0DF91CF91FF90E9
:100D2000EF90DF90CF90BF90AF909F908F900895FD
:100D300061E081E091E00E94E20661E087E091E0FD
:100D40000E94E20661E084E091E00E94E20661E038
:100D500081E091E00E94B90661E087E091E00E94A5
:100D6000B90661E084E091E00E94B906089580E050
:100D70000895662399F0DC01ED91FC91119721E033
:100D800030E0A90112960C9002C0440F551F0A943E
:100D9000E2F7CA019081892B80830895DC01ED91EF
:100DA000FC91119721E030E0A90112960C9002C04D
:100DB000440F551F0A94E2F7CA0180959081892358
:100DC00080830895FC0190818181613099F018F051
:100DD0006230F1F00895A92FB82F81E090E00280F1
:100DE00002C0880F991F0A94E2F780959E9189238B
:100DF0008C930895A92FB82F81E090E0028002C063
:100E0000880F991F0A94E2F79E91892B8C9308957D
:100E1000A92FB82F81E090E09C01028002C0220F30
:100E2000331F0A94E2F720953E9123232C93A0814F
:100E3000B181028002C0880F991F0A94E2F7809561
:100E40009C9189238C9308958091CD028061809339
:100E5000CD028091CE0281618093CE0222E030E00B
:100E60004AE051E06BE082E30E940C0921E030E0AF
:100E70004EEC52E06DE082E30E940C0921E030E08C
:100E80004DEC52E06FE082E30E940C090895982F28
:100E900092959F70990F292F220F220F920F8F701A
:100EA000890F08950F931F93CF93DF93CDB7DEB7CC
:100EB00027970FB6F894DEBF0FBECDBF8C0127E099
:100EC00030E0AE014F5F5F4F60E082E30E946C084C
:100ED00089810E944707F80180838A810E94470721
:100EE000F80181838B810E944707F80182838C81FE
:100EF00087838D810E944707F80183838E810E943A
:100F00004707F80184838F810E94470790E0F8012A
:100F10009683858327960FB6F894DEBF0FBECDBFAC
:100F2000DF91CF911F910F9108959DEC899F912D95
:100F30001124969596959695392F330F232F220FCE
:100F4000220F230F821B20E1929F800D1124089510
:100F50000F931F93CF93DF93CDB7DEB727970FB6CD
:100F6000F894DEBF0FBECDBF8C01FC0180810E94D2
:100F700095078983F80181810E9495078A83F8018A
:100F800082810E9495078B83F80187818C838381FE
:100F90000E9495078D83F80184810E9495078E83B6
:100FA000F80185810E9495078F8327E030E0AE012C
:100FB0004F5F5F4F60E082E30E940C0927960FB6F7
:100FC000F894DEBF0FBECDBFDF91CF911F910F917F
:100FD00008951F920F920FB60F9211248F93809154
:100FE000AD0086FF04C081E08093CF0203C081E0A2
:100FF0008093CF028F910F900FBE0F901F90189586
:1010000061E082E191E00E94E20661E082E191E02C
:101010000E94B90661E08CE091E00E94E20661E086
:101020008CE091E00E94B90661E08FE091E00E94BF
:10103000E20660E08FE091E00E94B906ECEAF0E0A1
:101040008081806D808380818083EDEAF0E0808103
:1010500081608083089585EA8093DC0080E496E0D7
:1010600002C0019731F0209115012830D1F780E0BE
:10107000089581E0089585E88093DC0080E496E09F
:1010800002C0019731F0209115012831D1F780E09D
:10109000089581E0089585E88093DC0080E496E07F
:1010A00002C0019731F0209115012832D1F780E07C
:1010B000089581E008951F920F920FB60F921124A8
:1010C0008F938091D900887F809315018F910F9025
:1010D0000FBE0F901F901895CF92DF92EF92FF9264
:1010E0000F931F93CF93DF93F82EE62E6A018901A9
:1010F0000E942B08882321F095E99093DC0083C09F
:101100008F2D880F8093DB000E943B08882321F0FD
:1011100095E99093DC0077C0E092DB000E944B08D9
:10112000882321F095E99093DC006DC085EA8093D7
:10113000DC0080E496E002C0019769F1209115017E
:101140002031D1F72DC0019709F43BC02091150142
:101150002034C9F730C0F60140E050E0ACEDB0E01B
:1011600025ECCBEDD0E02C9380E496E002C0019713
:1011700069F1309115013035D1F72DC085E88093A4
:10118000DC0080E496E002C0019771F12091150126
:101190002835D1F72EC085E98093DC0081E033C08B
:1011A0008F2D880F81608093DB0085E88093DC00C1
:1011B00080E496E0CBCF0150110969F640E050E0A1
:1011C000DDCF85E98093DC0081E01DC085E9809357
:1011D000DC0081E018C0888181934F5F5F4F40172A
:1011E000510708F4C0CFCACF85E98093DC0081E0C5
:1011F0000AC08091DB00E601C40FD51F888385E912
:101200008093DC0080E0DF91CF911F910F91FF90E0
:10121000EF90DF90CF900895EF92FF920F931F937E
:10122000CF93DF93C82FD62F7A0189010E942B0814
:10123000882321F095E99093DC0033C0CC0FC09354
:10124000DB000E943B08882321F095E99093DC00A5
:1012500028C0D093DB000E944B08811104C0011507
:10126000110529F41AC095E99093DC001AC0E70132
:101270000E0D1F1D0F2EFBEDEF2EF12CF02D899181
:10128000F70180830E944B08882321F095E9909311
:10129000DC0007C00C171D0791F785E98093DC007F
:1012A00080E0DF91CF911F910F91FF90EF90089513
:1012B000EF92FF920F931F93CF93DF93C82F7B0181
:1012C0008A010E942B08882321F095E99093DC0085
:1012D00029C0CC0FC093DB000E943B08811104C0E1
:1012E0000115110529F41AC095E99093DC001AC084
:1012F000E7010E0D1F1D0F2EFBEDEF2EF12CF02D33
:101300008991F70180830E944B08882321F095E999
:101310009093DC0007C00C171D0791F785E98093B7
:10132000DC0080E0DF91CF911F910F91FF90EF9053
:1013300008959B01AC0160E074E284EF90E00E94AC
:10134000F51BDA01C9014097A109B109B695A79526
:10135000979587958093D80085E08093DC00089569
:101360001F920F920FB60F9211248F939F93EF93BA
:10137000FF93E0915003F09151038091C600E05338
:10138000FD4F8083E0915003F0915103E053FD4FF6
:1013900080818D3051F481E080931601E0915003FB
:1013A000F0915103E053FD4F1182809150039091D1
:1013B000510301969093510380935003FF91EF9155
:1013C0009F918F910F900FBE0F901F9018951F92B5
:1013D0000F920FB60F9211248F9381E08093170123
:1013E0008F910F900FBE0F901F901895442339F0E6
:1013F000E0ECF0E0208122602083A8E001C0A0E1C1
:10140000B0E09B01AC010E94261C9B01AC0160E096
:1014100074E284EF90E00E94F51BBA01A9014150EB
:10142000510961097109DB01CA0188279F70AA2748
:10143000BB27892F9A2FAB2FBB278093C5004093E2
:10144000C400E1ECF0E08081886D808386E88093C1
:10145000C2000895909117019923E1F310921701AA
:101460008093C6000895CF93DF93EC0189910E9489
:101470002A0A88818111FACFDF91CF9108951F92B6
:101480000F920FB60F9211248F9381E08093540333
:101490008F910F900FBE0F901F901895CF93DF93F1
:1014A000CDB7DEB7C058D1090FB6F894DEBF0FBE76
:1014B000CDBF80913A0190913B019A838983FE01CF
:1014C00033968EE7DF011D928A95E9F741E060E9E6
:1014D00070ED83E090E00E94F60960E87AE186E032
:1014E00090E00E94990961E086E291E00E94E206A4
:1014F00060E086E291E00E94B90661E083E291E05B
:101500000E94E20660E083E291E00E94B90661E099
:1015100080E291E00E94E20660E080E291E00E94B9
:10152000B90660E089E291E00E94E206E9E6F0E0B7
:1015300080818260808381E08DBB78948CE291E031
:1015400090933E0680933D0688E191E00E94A807B3
:1015500060E070E088E191E00E9424070E94B605F7
:101560000E9400080E94980627EB36E048E853E105
:1015700061E672E087E795E00E94A80C8CE3809317
:101580008D0583B7816083BF83B7817F846083BF0C
:1015900080E40E94F7058AEB91E00E94330A87E716
:1015A00095E00E944D1560E087E795E00E94581590
:1015B00061E087E795E00E94631568E787E795E0BB
:1015C0000E946E1587E795E00E94810C66EB71E042
:1015D00087E795E00E94DF1023EC31E04AE050E01D
:1015E00061E070E087E795E00E94891087E795E069
:1015F0000E94970C0F2EFDEC8F2EF1E09F2EF02D08
:101600008E010F5F1F4F0F2EF1E0AF2EF2E0BF2EC5
:10161000F02D0F2EF8E1CF2EF2E0DF2EF02D0F2E61
:10162000FDE26F2EF2E07F2EF02D0F2EF7E34F2E0E
:10163000F2E05F2EF02D0F2EF1E42F2EF2E03F2E80
:10164000F02D80915403882309F40DC188E191E0C5
:101650000E94520785E00E94E40580935203909314
:101660005303109254039F938F930F2EF8E1EF2EA4
:10167000F1E0FF2EF02DF70180811F928F93818181
:101680001F928F9382811F928F9386818F93858182
:101690008F9384811F928F9383811F928F939F9248
:1016A0008F921F930F930E94991DD70116968C91CC
:1016B00016978F9315968C9115978F9314968C91FE
:1016C00014971F928F9313968C911F928F93BF92B2
:1016D000AF921F930F930E94991D87E795E00E9498
:1016E000810C66EB71E087E795E00E94DF109801BE
:1016F00048E050E061E070E087E795E00E948910E3
:10170000F70180811F928F9381811F928F93828135
:101710001F928F93DF92CF921F930F930E94991D78
:101720000FB6F894DEBF0FBECDBF980141E150E087
:1017300061E070E087E795E00E9489108091530393
:101740008F93809152038F937F926F921F930F9389
:101750000E94991D980149E150E061E070E087E73F
:1017600095E00E9489108DE296E00E942B060F2ED4
:10177000FDE2EF2EF6E0FF2EF02DD70115968C91AD
:1017800015978F9314968C918F935F924F921F931E
:101790000F930E94991D980142E250E061E070E0D1
:1017A00087E795E00E948910F70183818F938281FA
:1017B0008F933F922F921F930F930E94991D980130
:1017C0004AE250E061E070E087E795E00E9489100E
:1017D000D70119968C9119978F9318968C91189719
:1017E0008F9317968C9117978F9316968C918F9352
:1017F000EBE4F2E0FF93EF931F930F930E94991D88
:10180000980142E350E061E070E087E795E00E94D4
:101810008910D7011D968C911D978F931C968C91E2
:101820001C978F931B968C911B978F931A968C9174
:101830008F93E6E5F2E0FF93EF931F930F930E94DF
:10184000991D0FB6F894DEBF0FBECDBF98014BE3D4
:1018500050E061E070E087E795E00E94891087E73B
:1018600095E00E94970C8895ECCEAF92BF92CF92F4
:10187000DF92EF92FF920F931F93CF93DF937C0140
:10188000DC019496BC9094979596DC919597ED9198
:10189000FC91A188CD2FC12CD12CD701ED91FC91C9
:1018A0001197208992960D911C919397422F50E0A9
:1018B000440F551F440F551F440F551F4C9DC00129
:1018C0004D9D900D5C9D900D1124080F191F4C2FFC
:1018D00060E0C7010E941F15CF5F8C2F8D1B8B15F9
:1018E00028F4BFEFCB1ADB0ACA15B8F2DF91CF910B
:1018F0001F910F91FF90EF90DF90CF90BF90AF902E
:101900000895FC01A081B18150969C9144A1949FBF
:10191000A0011124440F551F440F551F440F551F9C
:1019200060E070E082A193A10E944B1D0895CF93C7
:10193000DF93EC010E94350CCE010E947915DF91F6
:10194000CF91089524E0FC01208385E593E008957C
:10195000CF92DF92EF92FF920F931F93CF93DF937B
:101960001F92CDB7DEB77C016B0189019A0144E675
:1019700054E165E176E10E944216CE0101960E9493
:10198000A20C86012BED31E14981BC01C7010E9407
:1019900018130F90DF91CF911F910F91FF90EF904F
:1019A000DF90CF900895FC01E60FF11D849190E047
:1019B000982F88273196E4918E0F911D089580E02D
:1019C00090E008950F931F93CF93DF93EC018B0169
:1019D000FB01849188833196E491E983FB0132967F
:1019E000E491EA83FB013396E491EB83FB013496A7
:1019F000E491EC83FB013596E491ED83FB0136968F
:101A0000E491EE83FB013796E491EF83FB01389676
:101A1000E491E887FB013996E491E987FB013A9666
:101A2000E491EA87FB013B96E491EB87FB013C964E
:101A3000E491EC87FB013D96E491ED87FB013E9636
:101A4000E491EE87FB013F96E491EF87FB017096EE
:101A5000E491E88B61E1C8010E94D30C9A8B898BD9
:101A600063E1C8010E94D30C9C8B8B8B65E1C8019C
:101A70000E94D30C9E8B8D8BDF91CF911F910F9184
:101A80000895DC011A969C911A97ED91FC9111979B
:101A9000249130E0092E02C0359527950A94E2F78B
:101AA000892F860F883010F4E22F0FC031961196DF
:101AB000FC93EE93E491F0E038E0391B02C0EE0FA6
:101AC000FF1F3A95E2F7E22B88501A968C9381E03B
:101AD00090E002C0880F991F6A95E2F781508E232B
:101AE00008950F931F93CF93DF938C01EC01C85B94
:101AF000DF4F798368831A86FC01E55AFF4F6081C6
:101B0000CE010E94410D8887F801E45AFF4F6081A1
:101B1000CE010E94410D8987F801EC58FF4F80816A
:101B20008C8791E0811190E09D87DF91CF911F918B
:101B30000F910895CF93C62F0E94410DC15021E00F
:101B400030E002C0220F331FCA95E2F7821BCF910B
:101B50000895213049F018F0223059F00FC0840F59
:101B6000911D47FD9A950895860F911D67FD9A95E1
:101B70000895841B910947FD93950895861B91094B
:101B800067FD93950895213049F018F0223059F0FF
:101B90000FC0860F911D67FD9A950895841B9109CA
:101BA00047FD93950895861B910967FD93950895C8
:101BB000840F911D47FD9A9508952F923F924F9261
:101BC0005F926F927F928F929F92AF92BF92CF92CD
:101BD000DF92EF92FF920F931F93CF93DF934C010D
:101BE000D62F342EFC01E85BFF4F568017817F0112
:101BF0003C01E4E76E0E711CF701C085C5192D2E5E
:101C0000CD1708F42C2EF701C480D5800685412E0F
:101C1000202F412F652D828193810E94C30D5C018D
:101C2000202F412F652DC6010E94A90D332061F0A0
:101C3000F7012485F3012083222D30E0AC01B501AA
:101C4000C4010E9405110EC0F701238521110AC0AD
:101C50002585F3012083222D30E0AC01B501C401BC
:101C60000E940511DC1720F0DC1B1F5F512CC4CF34
:101C7000F401E85BFF4FD50DD6834782DF91CF910A
:101C80001F910F91FF90EF90DF90CF90BF90AF909A
:101C90009F908F907F906F905F904F903F902F908C
:101CA00008956F927F928F929F92AF92BF92CF9240
:101CB000DF92EF92FF920F931F93CF93DF93EC018C
:101CC0007C0188E4E80EF11CCE010E94710DFE013A
:101CD000EF5AFF4F60803C966081C7010E949A0DC9
:101CE000982EFE01E25AFF4F6081C7010E949A0DB3
:101CF000182FFE01E15AFF4F6081C7010E949A0D23
:101D0000782EF701808418140CF0A4C00685160DF7
:101D10001195202F412F692D828193810E94C30D3F
:101D20006C01F70193838283202F412F692D8481D9
:101D300095810E94A90DF70195838483013089F074
:101D400028F00230F9F0033099F143C09601280DD4
:101D5000311D87FC3A958C01060D111D67FC1A9503
:101D60003AC041E050E04619510967FC539596018D
:101D70002F5F3F4F8C01080D111D87FC1A95C40E73
:101D8000D51E29C041E050E0BA016819710987FCED
:101D9000739596012F5F3F4F4619510967FC539584
:101DA0008C010F5F1F4F840F951FC60ED71E13C0E7
:101DB0009601260D311D67FC3A9541E050E0481927
:101DC000510987FC53958C010F5F1F4F840F951F9E
:101DD00002C08C019601AC01B601CE010E94B61181
:101DE0008823C1F1FE01E85BFF4F168217824E0186
:101DF000F9E58F0E911C5E018AE5A80EB11C6E01FB
:101E0000E8E4CE0ED11CF4016081C7010E94410DAF
:101E1000082FF5016081C7010E94410D182F40E095
:101E2000602FCE010E94DD0D41E0612FCE010E94A6
:101E3000DD0D61E0C7010E94410D8111F0CFF60177
:101E40008781861504F3FE01EC58FF4FC85BDF4F16
:101E50008C858083872DDF91CF911F910F91FF900B
:101E6000EF90DF90CF90BF90AF909F908F907F903A
:101E70006F900895EF92FF920F931F93CF93DF938C
:101E8000FC01EC5BFF4FC081D18167966F3F71050C
:101E900011F008F035C06136710530F0B6968081DA
:101EA0009181C80FD91F0AC06134710538F0FC0157
:101EB000E859FF4F80819181C80FD91FCE0101964B
:101EC000FC012491222309F45AC0FE01249130E040
:101ED0006217730751F406C0FE01249130E06217C7
:101EE000730719F4CE01029652C0FC018491C80F09
:101EF000D11DCE010196FC0124912111EDCF42C0EC
:101F00008B01FC01E459FF4F80819181C80FD91FDB
:101F10007E0160E0C7010E94D30CC80FD91F62E0A8
:101F2000C7010E94D30CF4E0EF0EF11C801791075B
:101F300080F3FE01849190E0982F88273196E491F8
:101F40008E2B009711F10817190739F403C00817F1
:101F5000190719F4CE0103961AC0FE013296E491D6
:101F6000CE0FD11DFE01849190E0982F88273196E5
:101F7000E4918E2B009759F780E090E008C080E054
:101F800090E005C080E090E002C080E090E0DF914A
:101F9000CF911F910F91FF90EF900895CF92DF9214
:101FA000EF92FF920F931F93CF93DF93EC017B018E
:101FB0008A016901FC01EA5AFF4F8081813089F072
:101FC00028F08230C9F0833011F12BC0FE01EA5BAA
:101FD000FF4F0190F081E02DCE010995080F191FE8
:101FE00020C0FE01EA5BFF4F0190F081E02DCE01A1
:101FF0000995E81AF90A15C0FE01EA5BFF4F019046
:10200000F081E02DCE010995081B190B0AC0FE01D5
:10201000EA5BFF4F0190F081E02DCE010995E80EBB
:10202000F91EFE01E65BFF4FF182E08232961183DA
:102030000083B601CE010E943A0F009741F0BC0127
:10204000CE010E94510E082E000C990B02C080E0B8
:1020500090E0DF91CF911F910F91FF90EF90DF9073
:10206000CF9008958F929F92AF92BF92CF92DF92BE
:10207000EF92FF920F931F93CF93DF93EC015B01DD
:102080006A01E22EF32E0E9455130E2D1F2DE12C16
:10209000F12C4E0126E5820E911CF80161918F0111
:1020A000EA81FB81CE0109958F3FFFEF9F0719F170
:1020B0008E3F2FEF920789F39C01A601B501CE0157
:1020C0000E94CE0F9C01F4019081913049F028F0DC
:1020D000923049F0933051F00BC0A20EB31E08C0ED
:1020E000C20ED31E05C0A21AB30A02C0C21AD30A76
:1020F000E20EF31ED2CFC701DF91CF911F910F9156
:10210000FF90EF90DF90CF90BF90AF909F908F9017
:102110000895E8E4F3E1DC011396FC93EE93129743
:102120000E9432100895FC01EC5BFF4F2081318149
:10213000232BE1F1B09620813C9620833B97408190
:102140003C96408332973081332381F1313079F4EA
:1021500039973081231714F43A963083FC01E959FA
:10216000FF4F2081241714F53A9620830895FC012F
:10217000EF59FF4FE081DC01AD59BF4F5C91022E5A
:10218000000C330B652F052E000C770B6E0F711DA5
:10219000E7FD7A95261737071CF41D96E50FEC939B
:1021A000541724F4FC01EF58FF4F508308958A5BC5
:1021B0009F4F2FED3CE0FC01318320830895CF93A6
:1021C000DF93FC01EC5BFF4F20813181261737073D
:1021D00051F0EC0171836083895A9F4F0E94E20C99
:1021E000CE010E949310DF91CF9108950F93DC01EF
:1021F0009A96ED91FC919B974E1B5F0B5E96ED912D
:10220000FC915F9709950F910895EF92FF920F93BC
:102210001F93CF93DF93DA01FC01E259FF4F508106
:10222000552309F483C02115310509F47FC02230FC
:10223000310570F0023029F46F5F7F4F621B730B22
:102240000BC0033029F41196A21BB30BF1E037C089
:10225000F02FF17000FD33C0EC0148AD59ADA4176B
:10226000B50708F463C04AAD5BADA417B50708F025
:102270005DC04EA95FA9ECA9FDA9260F371F26173F
:10228000370740F46417750720F49A01215031098B
:1022900005C0BF016417750708F048C0E217F307CF
:1022A00008F044C06E177F0708F4BF0124173507F4
:1022B00008F4A9019A01261B370BF0E02DC0EC01B0
:1022C0004CA95DA96417750788F14EA95FA9641729
:1022D000750760F54AAD5BAD08AD19AD2A0F3B1F20
:1022E0002A173B0740F4A417B50720F49A012150A0
:1022F000310904C0D801A417B507C0F402171307A9
:10230000A8F4A017B10708F4D8012417350708F47A
:10231000A9019A012A1B3B0BEC0148A159A1EA0132
:10232000EC80FD800F2FAD01F7010995DF91CF9172
:102330001F910F91FF90EF9008954617570748F4AB
:102340008217930778F081E02417350770F080E05A
:1023500008958217930740F481E02417350728F089
:1023600080E0089581E0089580E00895CF92DF92A3
:10237000EF92FF920F931F93CF93DF93EC017B01BA
:10238000690198016AAD7BAD88AD99AD0E949D1140
:10239000882341F06EA97FA99601A7018CA99DA968
:1023A0000E949D11DF91CF911F910F91FF90EF90AF
:1023B000DF90CF900895CF92DF92FF920F931F93FB
:1023C000CF93DF936C01D901342F377081E090E017
:1023D000032E02C0880F991F0A94E2F7182FF60106
:1023E000EC58FF4F2081223020F4213021F0282F9B
:1023F00004C020E002C0282F10E0487FE6018AA137
:102400009BA1E881F981F088F49EF001F59EF00D22
:1024100011246E0F7F1FFC01E60FF71F01110AC088
:10242000AE0FBF1F8081822B81278193EA17FB07A4
:10243000C9F722C0A6014C585F4F9081922B91277B
:1024400090833F5F3770119731110EC0E6018EA166
:102450009FA1E80FF91FEA019881923040F4913072
:1024600041F011E021E006C0220F110F03C011E07E
:1024700001C021E0109709F7DF91CF911F910F91D3
:10248000FF90DF90CF900895CF93DF93FC01A08160
:10249000B18184A190E09C01220F331F220F331FD2
:1024A000220F331F31A720A750962C91509730E070
:1024B000220F331F220F331F220F331F37A326A3F0
:1024C00075A1472F50E09A01220F331F220F331FAF
:1024D000220F331F33A722A751966C915197480FB3
:1024E000591FC62FD0E0C417D50718F4CE01871B9B
:1024F000910935A724A7880F991F880F991F880F66
:10250000991F820F931F97A786A754968D919C9130
:10251000559791AB80AB56968D919C91579793AB05
:1025200082ABDF91CF9108950E94441208950F93DA
:102530001F93CF93DF93EC01FC01EE5BFF4F008113
:1025400011812EAD3FAD3297408151816CAD7DAD93
:102550000E94B611811104C0C259DF4F18822FC0EA
:1025600081E0FE01E259FF4F80838CAD9DAD2CA927
:102570003DA92817390710F49DAB8CAB8EAD9FADEC
:102580002EA93FA98217930710F49FAB8EABFE01D3
:10259000E05CFF4F8081918128AD39AD2817390764
:1025A00010F499AF88AFFE01EE5BFF4F80819181FF
:1025B0002AAD3BAD8217930710F49BAF8AAFDF9132
:1025C000CF911F910F910895FC0115AA14AA80A91B
:1025D00091A997AB86AB84A595A591AF80AF86A551
:1025E00097A593AF82AFCF010E94971208950F93E2
:1025F0000E94F6100F910895DC01DD961C921E9248
:10260000DC97FC01E05CFF4F118210822FEF3FEF5F
:10261000FC0137AF26AFEE5BFF4F318320839096EE
:10262000ED91FC9191970280F381E02D0995089539
:102630000F931F93CF93DF93EC01FC01EC5BFF4FF3
:10264000118210823F8F2E8F7BA36AA34CA31DA201
:102650003F961082B096108234971082359681E0B2
:1026600080833196808319A308A3D801ED91FC9152
:10267000CE010995CE010E94FC12CE010E94D71016
:10268000CA5ADF4F1882DF91CF911F910F910895A1
:10269000662329F06A3031F0862F90E008958FEF9D
:1026A0009FEF08958FEF9FEF0895FC01108E08951E
:1026B0009A01DC011896ED91FC911997462F67E17C
:1026C00009950895CF93DF931F92CDB7DEB7698345
:1026D000AE014F5F5F4F61E00E9458130F90DF9192
:1026E000CF910895DC011896ED91FC91199720E0A7
:1026F00030E040E068E109950895DC011896ED911D
:10270000FC91199720E030E040E069E109950895D7
:10271000D9016831F1F028F4643139F0673139F0CA
:1027200028C06931D1F0603221F581E00895442359
:1027300011F180917505480F9D91E82FF0E0EB5A5B
:10274000FA4F90838F5F4813F7CF4093750581E070
:1027500008951092750581E008954091750550E047
:10276000FC01868965E575E090E00E94580981E0EA
:10277000089580E0089581E00895EF92FF921F93FD
:10278000CF93DF93EC01162F7A010E94721360E45D
:10279000CE010E946213E885F9859701412F67E118
:1027A000CE010995CE010E947D13DF91CF911F913B
:1027B000FF90EF900895462FDC011696ED91FC9165
:1027C000179720E030E065E109950895462FDC0178
:1027D0001696ED91FC91179720E030E066E109959F
:1027E00008959A01DC011696ED91FC911797462FFA
:1027F00067E109950895DC011696ED91FC91179714
:1028000020E030E040E068E109950895DC0116968B
:10281000ED91FC91179720E030E040E069E10995E7
:102820000895EF92FF920F931F93CF93DF931F9220
:10283000CDB7DEB77C018B01D8016C916731C1F057
:1028400018F4653130F438C06A31F8F06E3F51F158
:1028500033C0F80141814983D7011696ED91FC916F
:10286000179720E030E0C70109950E5F1F4FE4CFB6
:10287000F80181818983AE014F5F5F4F61E0C7013D
:102880000E94F1130E5F1F4FD7CF0F5F1F4FD7016D
:102890001696ED91FC91179720E030E040E0C701DB
:1028A0000995CACFF8014181498369E2C7010E94B5
:1028B00020160E5F1F4FC0CF0F90DF91CF911F9159
:1028C0000F91FF90EF900895EF92FF920F931F9357
:1028D000CF937C01C42F8901663129F130F4643132
:1028E00009F442C0653149F062C0683109F450C052
:1028F000F8F0693109F450C05AC0809176058823F8
:1029000019F0C7010E947D13C7010E94721360E095
:10291000C7010E9462136C2FC7010E94621381E0FD
:102920008093760545C0642F0E94621381E040C009
:1029300080917605882319F0C7010E947D13C93163
:1029400050F0A80168E1C7010E94BD13C851085E9C
:102950001F4FC931B0F7A8016C2FC7010E94BD13EA
:102960001092760581E024C0DC0156968C91569732
:102970008F3F19F488E756968C93D7011896ED91FE
:10298000FC91199798014C2F64E1C701099510C07B
:102990001092760581E00CC080917605882319F0AD
:1029A000C7010E947D131092760581E001C080E08E
:1029B000CF911F910F91FF90EF900895FC017183CB
:1029C0006083FB012289FC01248B0895CF93DF9360
:1029D000EC01EA85FB8520E030E040E068E2099503
:1029E000EE81FF8120E030E040E064E1CE01099516
:1029F00041E06BE4CE010E942016E881F981448118
:102A000069E2CE010E94201640E06BE4CE010E94F4
:102A10002016E881F981448169E2CE010E942016E6
:102A200041E06BE4CE010E942016E881F9814581E6
:102A300069E2CE010E942016DF91CF9108950F9395
:102A40001F93CF93DF9300D000D01F92CDB7DEB796
:102A50006C834D832B831A830983DC011496ED91DB
:102A6000FC9115979E012F5F3F4F41E06FE0099564
:102A70000F900F900F900F900F90DF91CF911F91BB
:102A80000F910895DC011496ED91FC91159720E0CB
:102A900030E040E069E009950895DC011496ED917D
:102AA000FC91159720E030E040E06AE00995089538
:102AB000462FDC011496ED91FC91159720E030E053
:102AC0006BE009950895462FDC011496ED91FC9179
:102AD000159720E030E06DE009950895462FDC0160
:102AE0001496ED91FC91159720E030E06EE0099589
:102AF0000895DC011496ED91FC91159720E030E0EB
:102B000040E060E109950895EF92FF920F931F93C3
:102B1000CF93DF938C01C42F79016D3019F128F424
:102B20006A3049F06B3081F078C06E30B9F16F30A7
:102B300009F443C072C00E94E61467E972E0C8015C
:102B40000E94111481E06AC0411106C062E972E07E
:102B50000E94111481E062C06DE872E00E941114BD
:102B600081E05CC041110DC066E872E00E94111462
:102B7000D801ED91FC911197828954968C9381E054
:102B80004DC06FE772E00E941114D801ED91FC91E5
:102B90001197838954968C9381E040C00E94FB1367
:102BA00061E8C8010E94DB136C2FC8010E94E61384
:102BB000C8010E94061481E031C00E94FB13F70196
:102BC000D381DD0FDD0FDD0FD80154968C91D80F26
:102BD0006D2F62956F706061C8010E94DB136D2FCD
:102BE0006F70C8010E94DB13F7016481606BC8013C
:102BF0000E94DB13D7014D915C91119712966C9155
:102C0000660F660F660FC8010E94F113C15091F75D
:102C1000C8010E94061481E001C080E0DF91CF91DD
:102C20001F910F91FF90EF900895693031F467E69E
:102C300072E00E94DE1481E008950E9484150895D8
:102C4000DC011A96ED91FC911B9720E030E009958C
:102C5000089580E00895FC011182108289E296E1D6
:102C600095838483978386839187808793878287E0
:102C7000158A108E14861586168617868FEF868B1A
:102C8000828F0895AF92BF92CF92DF92EF92FF9220
:102C90000F931F93CF93DF93EC015B016A017901DE
:102CA0000E942B16BD82AC82DF82CE82F986E88636
:102CB0001B870A87CE010E944215DF91CF911F9199
:102CC0000F91FF90EF90DF90CF90BF90AF9008955D
:102CD0005058BB27AA270E9480160C94D1170E9437
:102CE000C31738F00E94CA1720F039F49F3F19F437
:102CF00026F40C94C0170EF4E095E7FB0C94BA1779
:102D0000E92F0E94E21758F3BA1762077307840786
:102D1000950720F079F4A6F50C9404180EF4E095CC
:102D20000B2EBA2FA02D0B01B90190010C01CA0185
:102D3000A0011124FF27591B99F0593F50F4503E30
:102D400068F11A16F040A22F232F342F4427585F22
:102D5000F3CF469537952795A795F0405395C9F73A
:102D60007EF41F16BA0B620B730B840BBAF09150F2
:102D7000A1F0FF0FBB1F661F771F881FC2F70EC091
:102D8000BA0F621F731F841F48F487957795679564
:102D9000B795F7959E3F08F0B0CF9395880F08F050
:102DA0009927EE0F9795879508950E94E9160C9440
:102DB000D1170E94CA1758F00E94C31740F029F497
:102DC0005F3F29F00C94BA1751110C9405180C941C
:102DD000C0170E94E21768F39923B1F3552391F3CA
:102DE000951B550BBB27AA2762177307840738F07A
:102DF0009F5F5F4F220F331F441FAA1FA9F335D0D7
:102E00000E2E3AF0E0E832D091505040E695001C8A
:102E1000CAF72BD0FE2F29D0660F771F881FBB1F44
:102E2000261737074807AB07B0E809F0BB0B802D22
:102E3000BF01FF2793585F4F3AF09E3F510578F04E
:102E40000C94BA170C9405185F3FE4F3983ED4F342
:102E5000869577956795B795F7959F5FC9F7880F22
:102E6000911D9695879597F90895E1E0660F771F74
:102E7000881FBB1F621773078407BA0720F0621B05
:102E8000730B840BBA0BEE1F88F7E09508950E9430
:102E90004E176894B1110C94051808950E94EA1712
:102EA00088F09F5798F0B92F9927B751B0F0E1F00B
:102EB000660F771F881F991F1AF0BA95C9F714C0BB
:102EC000B13091F00E940418B1E008950C940418F8
:102ED000672F782F8827B85F39F0B93FCCF38695F4
:102EE00077956795B395D9F73EF490958095709551
:102EF00061957F4F8F4F9F4F0895E89409C097FBCE
:102F00003EF490958095709561957F4F8F4F9F4FC0
:102F10009923A9F0F92F96E9BB279395F695879504
:102F200077956795B795F111F8CFFAF4BB0F11F4C7
:102F300060FF1BC06F5F7F4F8F4F9F4F16C088236E
:102F400011F096E911C0772321F09EE8872F762FA4
:102F500005C0662371F096E8862F70E060E02AF0E5
:102F60009A95660F771F881FDAF7880F96958795D1
:102F700097F9089597F99F6780E870E060E00895F9
:102F80009FEF80EC089500240A9416161706180681
:102F90000906089500240A9412161306140605065D
:102FA0000895092E0394000C11F4882352F0BB0FEE
:102FB00040F4BF2B11F460FF04C06F5F7F4F8F4F51
:102FC0009F4F089557FD9058440F551F59F05F3F8C
:102FD00071F04795880F97FB991F61F09F3F79F03B
:102FE00087950895121613061406551FF2CF4695BD
:102FF000F1DF08C0161617061806991FF1CF86953F
:103000007105610508940895E894BB276627772722
:10301000CB0197F908950E941E180C94D1170E94B5
:10302000C31738F00E94CA1720F0952311F00C94B2
:10303000BA170C94C01711240C9405180E94E217BB
:1030400070F3959FC1F3950F50E0551F629FF001FB
:10305000729FBB27F00DB11D639FAA27F00DB11D14
:10306000AA1F649F6627B00DA11D661F829F22279D
:10307000B00DA11D621F739FB00DA11D621F839F24
:10308000A00D611D221F749F3327A00D611D231FFA
:10309000849F600D211D822F762F6A2F11249F5748
:1030A00050409AF0F1F088234AF0EE0FFF1FBB1F4B
:1030B000661F771F881F91505040A9F79E3F51050A
:1030C00080F00C94BA170C9405185F3FE4F3983E17
:1030D000D4F3869577956795B795F795E7959F5FB4
:1030E000C1F7FE2B880F911D9695879597F9089546
:1030F000A0E1B0E0EEE7F8E10C94311C7C011B018B
:103100006A01FC0117821682838181FF44C39E01FC
:103110002F5F3F4F3901F7019381F10193FD8591B5
:1031200093FF81911F01882309F431C3853239F45B
:1031300093FD859193FF81911F01853239F4B70189
:1031400090E00E945D1D56016501E5CF10E0512C15
:10315000912CFFE1F915D8F08B3279F038F48032F8
:1031600079F08332A1F4F92DF0612EC08D3261F037
:10317000803369F4292D21602DC0392D3260932EC2
:10318000892D8460982E2AC0E92DE86015C097FC2F
:103190002DC020ED280F2A3088F496FE06C03AE0B4
:1031A000139F200D1124122F19C08AE0589E200D64
:1031B0001124522EE92DE0629E2E10C08E3231F481
:1031C00096FCE5C2F92DF0649F2E08C08C3621F4E0
:1031D000292D2068922E02C0883641F4F10193FD1A
:1031E000859193FF81911F018111B3CF9BEB980FC4
:1031F000933020F4992D9061805E07C09BE9980F71
:10320000933008F066C1992D9F7E96FF16E09F735C
:10321000992E853619F49064992E08C0863621F4CB
:10322000392F3068932E02C01111115097FE07C03C
:103230001C3350F444244394410E27E00BC0183053
:1032400038F027E017E005C027E09CE3492E02C0D4
:10325000212F412C560184E0A80EB11CF60160819B
:10326000718182819381042DA3010E94681C6C01ED
:10327000F981FC87F0FF02C0F3FF06C091FC06C095
:1032800092FE06C000E205C00DE203C00BE201C0E1
:1032900000E08C858C7019F001115AC29BC297FE18
:1032A00010C04C0CFC85F4FF04C08A81813309F402
:1032B0004A94141474F528E0241578F588E0482E13
:1032C0002CC096FC2AC0812F90E08C159D059CF0A7
:1032D0003CEFC3163FEFD30674F0892D8068982E1B
:1032E0000AC0E2E0F0E0EC0FFD1FE10FF11D80816C
:1032F000803319F411501111F4CF97FE0EC04424FD
:103300004394410E812F90E0C816D9062CF41C1965
:1033100004C04424439401C010E097FE06C01C146E
:103320001D0434F4C601019605C085E090E002C09A
:1033300081E090E001110196112331F0212F30E05E
:103340002F5F3F4F820F931F252D30E08217930789
:1033500014F4581A01C0512C892D897049F4552054
:1033600039F0B70180E290E00E945D1D5A94F7CFDA
:10337000002329F0B701802F90E00E945D1D93FC8F
:1033800009C0552039F0B70180E390E00E945D1D2F
:103390005A94F7CF97FE4CC04601D7FE02C0812C4D
:1033A000912CC60188199909F301E80FF91FFE87CE
:1033B000ED87960124193109388B2F87012F10E0F2
:1033C0001195019511093FEF8316930629F4B70172
:1033D0008EE290E00E945D1DC814D9044CF08F85E8
:1033E00098898815990524F4ED85FE85818101C0B1
:1033F00080E3F1E08F1A91082D853E852F5F3F4FC6
:103400003E872D87801691062CF0B70190E00E9430
:103410005D1DD9CFC814D90441F49A81963320F4A4
:10342000953319F43C8534FF81E3B70190E04EC039
:103430008A81813319F09C859F7E9C87B70190E03B
:103440000E945D1D111105C094FC18C085E690E036
:1034500017C0B7018EE290E00E945D1D1E5F82E002
:1034600001E0080FF301E80FF11D8081B70190E042
:103470000E945D1D802F0113F3CFE6CF85E490E01D
:10348000B7010E945D1DD7FC06C0C114D10441F4F0
:10349000EC85E4FF05C0D194C194D1088DE201C050
:1034A0008BE2B70190E00E945D1D80E32AE0C21626
:1034B000D1042CF08F5FFAE0CF1AD108F7CFB70113
:1034C00090E00E945D1DB701C601C0960E945D1D7F
:1034D00054C1833631F0833779F0833509F056C013
:1034E00020C0560132E0A30EB11CF6018081898311
:1034F00001E010E0630112C05601F2E0AF0EB11C12
:10350000F601C080D18096FE03C0612F70E002C03A
:103510006FEF7FEFC6010E94521D8C01F92DFF77DE
:1035200014C0560122E0A20EB11CF601C080D18069
:1035300096FE03C0612F70E002C06FEF7FEFC601FF
:103540000E94401D8C01F92DF0689F2EF3FD1AC0DA
:10355000852D90E008171907A8F4B70180E290E0E4
:103560000E945D1D5A94F4CFF60197FC859197FE59
:1035700081916F01B70190E00E945D1D51105A9436
:10358000015011090115110579F7F7C0843611F0C2
:10359000893661F5560197FE09C024E0A20EB11CE0
:1035A000F60160817181828193810AC0F2E0AF0EE1
:1035B000B11CF60160817181072E000C880B990BFC
:1035C000F92DFF769F2E97FF09C0909580957095F5
:1035D00061957F4F8F4F9F4FF0689F2E2AE030E01C
:1035E000A3010E94BB1DC82EC6183FC0092D8537F8
:1035F00021F40F7E2AE030E01DC0097F8F3691F064
:1036000018F4883559F0C3C0803719F0883711F0A5
:10361000BEC0006104FF09C0046007C094FE08C07A
:10362000066006C028E030E005C020E130E002C0BE
:1036300020E132E0560107FF09C084E0A80EB11C6A
:10364000F601608171818281938108C0F2E0AF0E42
:10365000B11CF6016081718180E090E0A3010E94BD
:10366000BB1DC82EC6180F77902E96FE0BC0092DD5
:103670000E7FC11650F494FE0AC092FC08C0092DBA
:103680000E7E05C0DC2C092D03C0DC2C01C0D12E20
:1036900004FF0DC0FE01EC0DF11D8081803311F49B
:1036A000097E09C002FF06C0D394D39404C0802FC2
:1036B000867809F0D39403FD11C000FF06C01C2DCD
:1036C000D51480F4150D1D190DC0D51458F4B7018B
:1036D00080E290E00E945D1DD394F7CFD51410F4E2
:1036E0005D1801C0512C04FF10C0B70180E390E0C9
:1036F0000E945D1D02FF17C001FD03C088E790E036
:1037000002C088E590E0B7010CC0802F867859F0A0
:1037100001FF02C08BE201C080E207FD8DE2B7012C
:1037200090E00E945D1DC11638F4B70180E390E07F
:103730000E945D1D1150F7CFCA94F301EC0DF11DED
:103740008081B70190E00E945D1DC110F5CF15C0CA
:10375000F4E0F51560F584E0581A93FE1FC00111DE
:1037600027C02C8523FF2AC004EB10E0392D3071CF
:10377000932EF8018491811124C0552009F4E4CCE2
:10378000B70180E290E00E945D1D5A94F6CFF701E8
:103790008681978126C08FEF9FEF23C0B70180E21B
:1037A00090E00E945D1D5A945110F8CFD8CF512C53
:1037B000B701802F90E00E945D1DD3CF08EB10E091
:1037C000D5CF91108052B70190E00E945D1D0F5F30
:1037D0001F4FCFCF23E0251510F483E0BDCF512C30
:1037E000C0CF6096E2E10C944D1CA1E21A2EAA1BF8
:1037F000BB1BFD010DC0AA1FBB1FEE1FFF1FA217A1
:10380000B307E407F50720F0A21BB30BE40BF50B9D
:10381000661F771F881F991F1A9469F76095709526
:10382000809590959B01AC01BD01CF010895A29FA9
:10383000B001B39FC001A39F700D811D1124911D84
:10384000B29F700D811D1124911D08950E94171CB7
:10385000A59F900DB49F900DA49F800D911D1124E4
:1038600008952F923F924F925F926F927F928F9224
:103870009F92AF92BF92CF92DF92EF92FF920F93FF
:103880001F93CF93DF93CDB7DEB7CA1BDB0B0FB609
:10389000F894DEBF0FBECDBF09942A8839884888C6
:1038A0005F846E847D848C849B84AA84B984C8845C
:1038B000DF80EE80FD800C811B81AA81B981CE0F53
:1038C000D11D0FB6F894DEBF0FBECDBFED01089538
:1038D000283008F027E03327DA01990F311D87FDE2
:1038E000916000966105710539F432602E5F3D9359
:1038F00030E32A95E1F708959F3F30F08038710555
:10390000610509F03C5F3C5F3D93913008F08068B1
:10391000911DDF93CF931F930F93FF92EF92192F77
:10392000987F9695E92F96959695E90FFF27EA5E81
:10393000FE4F99273327EE24FF24A701E7010590C6
:103940000894079428F4360FE71EF81E491F511DEE
:10395000660F771F881F991F0694A1F7059007949B
:1039600028F4E70EF81E491F561FC11D770F881F48
:10397000991F661F0694A1F70590079428F4F80E86
:10398000491F561FC71FD11D880F991F661F771F1C
:103990000694A1F70590079420F4490F561FC71FFE
:1039A000D81F990F661F771F881F0694A9F7849167
:1039B0001095177041F0D695C79557954795F79490
:1039C000E7941A95C1F7ECEBF0E068941590159127
:1039D00035916591959105907FE27395E118F10A13
:1039E000430B560BC90BD009C0F7E10CF11E431F66
:1039F000561FC91FD01D7EF4703311F48A95E6CF8F
:103A0000E894015030F0080F0AF40027021708F478
:103A1000202F2395022F7A3328F079E37D932A957E
:103A2000E9F710C07D932A9589F6069497956795D6
:103A3000379517951794E118F10A430B560BC90BEC
:103A4000D00998F023957E9173957A3308F070E34E
:103A50007C932013B8F77E9170617D9330F083954D
:103A600071E37D9370E32A95E1F71124EF90FF90C5
:103A70000F911F91CF91DF91992787FD9095089520
:103A8000FC010590615070400110D8F78095909529
:103A90008E0F9F1F0895DC0101C06D93415050406F
:103AA000E0F70895FC016150704001900110D8F7D3
:103AB000809590958E0F9F1F08950F931F93CF931E
:103AC000DF93FB01238121FD03C08FEF9FEF2CC00B
:103AD00022FF16C046815781248135814217530742
:103AE00044F4A081B1819D012F5F3F4F318320833A
:103AF0008C93268137812F5F3F4F3783268314C0F5
:103B00008B01EC01FB010084F185E02D0995892BE7
:103B1000E1F6D80116968D919C911797019617960C
:103B20009C938E931697CE01DF91CF911F910F91A9
:103B30000895AEE0B0E0EFE9FDE10C943F1C0D8983
:103B40001E8986E08C831A8309838FEF9FE79E830B
:103B50008D83AE01475E5F4F6F89788DCE010196F0
:103B60000E947818EF81F885E00FF11F10822E96E1
:103B7000E4E00C945B1CFA01AA27283051F12031B3
:103B800081F1E8946F936E7F6E5F7F4F8F4F9F4FF1
:103B9000AF4FB1E03ED0B4E03CD0670F781F891F33
:103BA0009A1FA11D680F791F8A1F911DA11D6A0F01
:103BB000711D811D911DA11D20D009F468943F91B4
:103BC0002AE0269F11243019305D3193DEF6CF01B3
:103BD0000895462F4770405D4193B3E00FD0C9F779
:103BE000F6CF462F4F70405D4A3318F0495D31FDE6
:103BF0004052419302D0A9F7EACFB4E0A695979539
:103C0000879577956795BA95C9F70097610571050E
:103C100008959B01AC010A2E069457954795379558
:103C20002795BA95C9F7620F731F841F951FA01DB2
:063C30000895F894FFCF97
:103C3600012500002800022E000240002E00022866
:103C460000012E0003F801010034101B0A170006BC
:103C56002500052B00052800032B000200000002AA
:103C6600000000002A0A000000000000000000001A
:103C7600000000000000000000000000000000003E
:103C8600000000000000000000000000000000002E
:103C9600000000000000000000000000000000001E
:103CA600000000000000000000000000000000000E
:103CB60000000000000000000000000000000000FE
:103CC60000000000000000000000000000000000EE
:103CD60000000000000000000000000000000000DE
:103CE600000000000000000000000D5265616479CC
:103CF6000A0D005258204D4F44554C450054696DED
:103D0600653A20253032642D253032642D32302537
:103D16003032643B20253032643A253032643A250D
:103D26003032643B204241543A20253033640D0A38
:103D360000446174653A20253032642D25303264A2
:103D46002D3230253032640054696D653A202530B5
:103D560032643A253032643A2530326400424154A6
:103D66003A2025303364006D5620253035752020E5
:103D7600006D412025303564202000572020253352
:103D86002E356620200057682025332E35662020E4
:103D9600009412E412F7120001140A64643232002D
:103DA600127A0000042896100400008000200018F3
:103DB60015A015C019FF1815A115C819FF1815AEBD
:103DC60019FF1815AF19FF1815AE15D5168015A8C9
:103DD600161F15D316001540158D1614152016003E
:103DE60015A115C815DA16021581168F15D916F103
:0C3DF60015DB1640152E15A415A619FFAC
:00000001FF
