:100000000C94DB000C9429050C94F8000C94F80077
:100010000C94F8000C94F8000C94F8000C94F80080
:100020000C94F8000C94F8000C94F8000C94F80070
:100030000C94F8000C94F8000C94F8000C94F80060
:100040000C94F8000C94F8000C948D040C94F800B7
:100050000C94C4040C94FA000C94F8000C94F8006E
:100060000C94F8000C94F8000C94F8000C94F80030
:100070000C94F8000C94F8000C94F8000C94F80020
:100080000C94F8000C94F8000C94F8000C94F80010
:100090000C94F8000C94F8000C94F8000C94F80000
:1000A0000C949D030C94F8000C94F8000C94F80048
:1000B0000C94F8006E616E00696E660000407A1064
:1000C000F35A00A0724E18090010A5D4E80000E809
:1000D0007648170000E40B54020000CA9A3B000067
:1000E00000E1F505000080969800000040420F00F6
:1000F0000000A08601000000102700000000E803B7
:10010000000000006400000000000A000000000081
:100110000100000000002C76D888DC674F0823DF40
:10012000C1DFAE59E1B1B796E5E3E453C63AE65113
:10013000997696E8E6C28426EB898C9B62ED407C3A
:100140006FFCEFBC9C9F40F2BAA56FA5F490055AD6
:100150002AF75C936B6CF9676DC11BFCE0E40D47FB
:10016000FEF520E6B500D0ED902E0300943577051E
:100170000080841E080000204E0A000000C80C33D6
:100180003333330F986E12831141EF8D2114893B65
:10019000E65516CFFEE6DB18D1844B381BF77C1DE5
:1001A000901DA4BBE424203284725E228100C9F138
:1001B00024ECA1E53D2711241FBECFEFD8E0DEBF20
:1001C000CDBF11E0A0E0B1E0E4EAF9E102C00590A2
:1001D0000D92A038B107D9F722E0A0E8B1E001C044
:1001E0001D92AD30B207E1F70E9438050C94D00C97
:1001F0000C9400001F920F920FB60F9211248F9350
:1002000081E0809300018F910F900FBE0F901F909F
:100210001895ECE7F0E08081806C8083EAE7F0E0FD
:1002200080818F6880830895ECE7F0E09081907F73
:1002300090839081892B80830895EAE7F0E08081A4
:100240008068808310920001808180648083809127
:1002500000018823E1F32091780080917900EAE79A
:10026000F0E090819F77908390E0982F8827822BF1
:1002700008950E9414010E941D01BC0180E090E0DD
:100280000E9417062DEC3EE148E95FE30E947D06DF
:100290000E94E805CB010895662399F0DC01ED91F9
:1002A000FC91119721E030E0A90112960C9002C058
:1002B000440F551F0A94E2F7CA019081892B80836D
:1002C0000895DC01ED91FC91119721E030E0A90146
:1002D00012960C9002C0440F551F0A94E2F7CA010F
:1002E00080959081892380830895FC01308121814C
:1002F000613099F018F06230F1F0089581E090E0FB
:10030000028002C0880F991F0A94E2F7E32FF22FB0
:100310008095929189238083089581E090E0028006
:1003200002C0880F991F0A94E2F7E32FF22F9291EF
:10033000892B8083089581E090E0AC01028002C0A7
:10034000440F551F0A94E2F7A32FB22F40952E9128
:1003500042234C93A081B181028002C0880F991F73
:100360000A94E2F780959C9189238C93089580915B
:1003700080018061809380018091810181618093FF
:10038000810122E030E041E051E06BE082E30E9435
:10039000290421E030E041E851E06DE082E30E9471
:1003A000290421E030E040E851E06FE082E30E9460
:1003B00029040895982F92959F70990F292F220F45
:1003C000220F920F8F70890F08950F931F93CF9371
:1003D000DF93CDB7DEB727970FB6F894DEBF0FBE19
:1003E000CDBF8C0127E030E0AE014F5F5F4F60E092
:1003F00082E30E94AE0389810E94DA01F8018083C2
:100400008A810E94DA01F80181838B810E94DA01DE
:10041000F80182838C8187838D810E94DA01F80143
:1004200083838E810E94DA01F80184838F810E9488
:10043000DA0190E0F8019683858327960FB6F89449
:10044000DEBF0FBECDBFDF91CF911F910F910895F9
:100450006F927F928F929F92AF92BF92CF92DF92D4
:10046000EF92FF920F931F93CF93DF93CDB7DEB739
:100470002C970FB6F894DEBF0FBECDBFFC010581EF
:100480001681748063804281C18050818CE0E8E2F3
:10049000F1E0DE01119601900D928A95E1F7C80115
:1004A00083709927892BA1F4980136952795369565
:1004B0002795ABE7B4E10E94C50A9695879564E657
:1004C000689F9001699F300D112402171307C1F432
:1004D0009801329522952F7023273F702327AEE392
:1004E000BAE00E94C50A20E931E0BC01629FC00168
:1004F000639F900D729F900D11240817190711F436
:100500008DE18A837CE3C79E600111240D2C000CD1
:10051000EE08FF08D701C601850F911DA11DB11D71
:1005200020E13EE0429F6001439FD00C11240D2C3E
:10053000000CEE08FF08C80ED91EEA1EFB1E812C17
:10054000912C540117C0E1E0F0E0EC0FFD1FE80D25
:10055000F91DA081B0E020E831E541E050E00E94C3
:10056000D40AC60ED71EE81EF91E8FEF881A980A05
:10057000A80AB80A872D90E00197092E000CAA0B53
:10058000BB0B88169906AA06BB06E8F222EB37E0F9
:1005900024C0C90183709927892B39F4C90164E605
:1005A00070E00E948F0A892B39F4C90160E971E07B
:1005B0000E948F0A892B39F46BE7D61A6DE1E60A9F
:1005C0006EEFF60A08C070E8C71A7CECD70A7EE125
:1005D000E70A7EEFF70A2F5F3F4F20173107C8F277
:1005E000A62DB0E0119720E831E541E050E00E94EF
:1005F000DF0A6C0D7D1D8E1D9F1D2C960FB6F89485
:10060000DEBF0FBECDBFDF91CF911F910F91FF9045
:10061000EF90DF90CF90BF90AF909F908F907F90A2
:100620006F90089585EA8093DC0080E090E005C03B
:100630000196803426E0920730F42091030128309F
:10064000B9F780E0089581E0089585E98093DC00A2
:10065000089585EA8093DC0080E090E005C0019673
:10066000803426E0920730F4209103012031B9F75D
:1006700080E0089581E0089585E88093DC0080E0C3
:1006800090E005C00196803426E0920730F4209176
:1006900003012831B9F780E0089581E0089585E8E5
:1006A0008093DC0080E090E005C00196803426E075
:1006B000920730F4209103012832B9F780E00895C1
:1006C00081E0089585E88093DC0080E090E005C03B
:1006D0000196803426E0920730F420910301203403
:1006E000B9F780E0089581E00895882389F085ECCA
:1006F0008093DC0080E090E005C00196803426E025
:100700009207B8F4209103012035B9F780E00895ED
:1007100085E88093DC0080E090E005C0019680349D
:1007200026E0920740F4209103012835B9F780E0D4
:10073000089581E0089581E008951F920F920FB609
:100740000F9211248F938091D900887F80930301A9
:100750008F910F900FBE0F901F901895CF92DF9240
:10076000EF92FF920F931F93CF93D82EC62E7A014C
:1007700089010E941203C82F882321F00E942503BB
:100780008C2F5FC08D2D880F8093DB000E943C036F
:10079000C82F882321F00E9425038C2F52C0C092BD
:1007A000DB000E944F03C82F882321F00E942503FD
:1007B0008C2F47C00E942903C82F882321F00E9454
:1007C00025038C2F3EC08D2D90E0880F991F8160EE
:1007D0008093DB000E946203C82F8823C1F00E942F
:1007E00025038C2F2EC081E00E947503C82F88231B
:1007F00021F00E9425038C2F24C0F701EC0DFD1D74
:100800008091DB0080838FEFC81AD80A02C0C12C08
:10081000D12CC8010197C816D90628F380E00E94A0
:100820007503C82F882321F00E9425038C2F09C04F
:10083000F701EC0DFD1D8091DB0080830E942503F4
:100840008C2FCF911F910F91FF90EF90DF90CF9061
:100850000895CF92DF92EF92FF920F931F93CF9361
:10086000182F062F6A0179010E941203C82F8823CE
:1008700021F00E9425038C2F31C0110F1093DB0053
:100880000E943C03C82F882321F00E9425038C2F4F
:1008900025C00093DB000E944F03C82F8823B1F0CE
:1008A0000E9425038C2F1AC0F601E00FF11F8081F2
:1008B0008093DB000E944F03C82F882321F00E9401
:1008C00025038C2F0BC00F5F1F4F02C000E010E00C
:1008D0000E151F0548F30E9425038C2FCF911F9101
:1008E0000F91FF90EF90DF90CF9008959B01AC01A6
:1008F00060E072E18AE790E00E94A30ADA01C90190
:100900004097A109B109B695A795979587958093CA
:10091000D80085E08093DC0008951F920F920FB6F7
:100920000F9211248F939F93EF93FF93E091020214
:10093000F09103028091C600EE57FE4F8083E09154
:100940000202F0910302EE57FE4F80818D3051F488
:1009500081E080930401E0910202F0910302ED57DF
:10096000FE4F1082809102029091030201969093B3
:10097000030280930202FF91EF919F918F910F905C
:100980000FBE0F901F9018951F920F920FB60F92E7
:1009900011248F9381E0809305018F910F900FBEFA
:1009A0000F901F901895442339F0E0ECF0E020817F
:1009B00022602083A8E001C0A0E1B0E09B01AC016F
:1009C0000E94D40A9B01AC0160E072E18AE790E0EA
:1009D0000E94A30ABA01A901415051096109710994
:1009E000DB01CA0188279F70AA27BB27892F9A2F6E
:1009F000AB2FBB278093C5004093C400E1ECF0E02F
:100A00008081886D808386E88093C20008959091EC
:100A100005019923E1F3109205018093C600089522
:100A20000F931F93CF93DF938C01C0E0D0E0F801C8
:100A3000EC0FFD1F80810E9407052196F801EC0F45
:100A4000FD1F80818111F3CFDF91CF911F910F9115
:100A500008951F920F920FB60F9211248F9381E089
:100A6000809306028F910F900FBE0F901F901895E4
:100A700041E060E970ED83E090E00E94D30460E81B
:100A80007AE186E090E00E94760461E084E191E002
:100A90000E94750160E084E191E00E944C0161E0F8
:100AA00081E191E00E94750160E081E191E00E94A6
:100AB0004C0161E08EE091E00E94750160E08EE003
:100AC00091E00E944C0160E087E191E00E94750195
:100AD000E9E6F0E080818260808381E08DBB7894DC
:100AE0008AE191E090930A028093090260E070E04D
:100AF00086E091E00E94B7010E94090183B78160FE
:100B000083BF83B7817F846083BF84E391E00E94C9
:100B1000100580910602882309F458C086E091E010
:100B20000E94E50185E00E943901809304029093C0
:100B3000050210920602E6E0F1E0608151814281F7
:100B4000348123819F938F931F926F931F925F93A2
:100B50001F924F9386818F9385818F931F923F932E
:100B60001F922F938DE391E09F938F930E945C0CD3
:100B700086E091E00E9428029F938F937F936F936A
:100B800081E791E09F938F930E945C0C61E081E18B
:100B900091E00E944C0180910402909105022DB7D2
:100BA0003EB72A5E3F4F0FB6F8943EBF0FBE2DBF33
:100BB0008337914030F08FE697E10197F1F700C05D
:100BC000000060E081E191E00E944C018895A1CF96
:100BD0000E945C0688F09F5798F0B92F9927B7516B
:100BE000B0F0E1F0660F771F881F991F1AF0BA95D1
:100BF000C9F714C0B13091F00E947606B1E00895B3
:100C00000C947606672F782F8827B85F39F0B93FA4
:100C1000CCF3869577956795B395D9F73EF4909583
:100C20008095709561957F4F8F4F9F4F0895E89401
:100C300009C097FB3EF490958095709561957F4F24
:100C40008F4F9F4F9923A9F0F92F96E9BB279395D2
:100C5000F695879577956795B795F111F8CFFAF4E2
:100C6000BB0F11F460FF1BC06F5F7F4F8F4F9F4F13
:100C700016C0882311F096E911C0772321F09EE871
:100C8000872F762F05C0662371F096E8862F70E0D7
:100C900060E02AF09A95660F771F881FDAF7880FB1
:100CA0009695879597F9089557FD9058440F551FCD
:100CB00059F05F3F71F04795880F97FB991F61F0DE
:100CC0009F3F79F087950895121613061406551F55
:100CD000F2CF4695F1DF08C0161617061806991FC1
:100CE000F1CF86957105610508940895E894BB27B6
:100CF00066277727CB0197F908950E9490060C94F8
:100D000001070E94F30638F00E94FA0620F09523AE
:100D100011F00C94EA060C94F00611240C9477065A
:100D20000E94540670F3959FC1F3950F50E0551F34
:100D3000629FF001729FBB27F00DB11D639FAA2730
:100D4000F00DB11DAA1F649F6627B00DA11D661F7F
:100D5000829F2227B00DA11D621F739FB00DA11DA0
:100D6000621F839FA00D611D221F749F3327A00D5A
:100D7000611D231F849F600D211D822F762F6A2FF6
:100D800011249F5750409AF0F1F088234AF0EE0F5B
:100D9000FF1FBB1F661F771F881F91505040A9F788
:100DA0009E3F510580F00C94EA060C9477065F3F55
:100DB000E4F3983ED4F3869577956795B795F795C4
:100DC000E7959F5FC1F7FE2B880F911D969587953C
:100DD00097F9089597F99F6780E870E060E00895BB
:100DE0009FEF80EC089500240A9416161706180643
:100DF0000906089500240A9412161306140605061F
:100E00000895092E0394000C11F4882352F0BB0FAF
:100E100040F4BF2B11F460FF04C06F5F7F4F8F4F12
:100E20009F4F0895A0E1B0E0E8E1F7E00C94E70AF5
:100E30007C011B016A01FC0117821682838181FFFC
:100E400044C39E012F5F3F4F3901F7019381F101A8
:100E500093FD859193FF81911F01882309F431C38C
:100E6000853239F493FD859193FF81911F0185327D
:100E700039F4B70190E00E94200C56016501E5CFDE
:100E800010E0512C912CFFE1F915D8F08B3279F05C
:100E900038F4803279F08332A1F4F92DF0612EC05C
:100EA0008D3261F0803369F4292D21602DC0392DF8
:100EB0003260932E892D8460982E2AC0E92DE86037
:100EC00015C097FC2DC020ED280F2A3088F496FE1F
:100ED00006C03AE0139F200D1124122F19C08AE09A
:100EE000589E200D1124522EE92DE0629E2E10C036
:100EF0008E3231F496FCE5C2F92DF0649F2E08C0C5
:100F00008C3621F4292D2068922E02C0883641F4B7
:100F1000F10193FD859193FF81911F018111B3CF61
:100F20009BEB980F933020F4992D9061805E07C061
:100F30009BE9980F933008F066C1992D9F7E96FF2C
:100F400016E09F73992E853619F49064992E08C087
:100F5000863621F4392F3068932E02C011111150BA
:100F600097FE07C01C3350F444244394410E27E0FD
:100F70000BC0183038F027E017E005C027E09CE3ED
:100F8000492E02C0212F412C560184E0A80EB11C2D
:100F9000F6016081718182819381042DA3010E94F9
:100FA000320B6C01F981FC87F0FF02C0F3FF06C031
:100FB00091FC06C092FE06C000E205C00DE203C02F
:100FC0000BE201C000E08C858C7019F001115AC24F
:100FD0009BC297FE10C04C0CFC85F4FF04C08A81B4
:100FE000813309F44A94141474F528E0241578F533
:100FF00088E0482E2CC096FC2AC0812F90E08C15EA
:101000009D059CF03CEFC3163FEFD30674F0892D8D
:101010008068982E0AC0E2E0F0E0EC0FFD1FE10FBF
:10102000F11D8081803319F411501111F4CF97FE16
:101030000EC044244394410E812F90E0C816D90677
:101040002CF41C1904C04424439401C010E097FE02
:1010500006C01C141D0434F4C601019605C085E0C9
:1010600090E002C081E090E001110196112331F07F
:10107000212F30E02F5F3F4F820F931F252D30E04F
:101080008217930714F4581A01C0512C892D8970C6
:1010900049F4552039F0B70180E290E00E94200C1D
:1010A0005A94F7CF002329F0B701802F90E00E94D7
:1010B000200C93FC09C0552039F0B70180E390E083
:1010C0000E94200C5A94F7CF97FE4CC04601D7FEE1
:1010D00002C0812C912CC60188199909F301E80FEF
:1010E000F91FFE87ED87960124193109388B2F8768
:1010F000012F10E01195019511093FEF831693061A
:1011000029F4B7018EE290E00E94200CC814D904A3
:101110004CF08F8598898815990524F4ED85FE8516
:10112000818101C080E3F1E08F1A91082D853E8511
:101130002F5F3F4F3E872D87801691062CF0B70119
:1011400090E00E94200CD9CFC814D90441F49A81B0
:10115000963320F4953319F43C8534FF81E3B701CD
:1011600090E04EC08A81813319F09C859F7E9C87D8
:10117000B70190E00E94200C111105C094FC18C02A
:1011800085E690E017C0B7018EE290E00E94200C47
:101190001E5F82E001E0080FF301E80FF11D80817E
:1011A000B70190E00E94200C802F0113F3CFE6CF0F
:1011B00085E490E0B7010E94200CD7FC06C0C11462
:1011C000D10441F4EC85E4FF05C0D194C194D10869
:1011D0008DE201C08BE2B70190E00E94200C80E319
:1011E0002AE0C216D1042CF08F5FFAE0CF1AD108A2
:1011F000F7CFB70190E00E94200CB701C601C0965E
:101200000E94200C54C1833631F0833779F0833546
:1012100009F056C020C0560132E0A30EB11CF60101
:101220008081898301E010E0630112C05601F2E081
:10123000AF0EB11CF601C080D18096FE03C0612FB5
:1012400070E002C06FEF7FEFC6010E94150C8C01A9
:10125000F92DFF7714C0560122E0A20EB11CF60151
:10126000C080D18096FE03C0612F70E002C06FEF96
:101270007FEFC6010E940A0C8C01F92DF0689F2EA9
:10128000F3FD1AC0852D90E008171907A8F4B701DF
:1012900080E290E00E94200C5A94F4CFF60197FC73
:1012A000859197FE81916F01B70190E00E94200C1B
:1012B00051105A94015011090115110579F7F7C021
:1012C000843611F0893661F5560197FE09C024E095
:1012D000A20EB11CF60160817181828193810AC0E6
:1012E000F2E0AF0EB11CF60160817181072E000C97
:1012F000880B990BF92DFF769F2E97FF09C09095CB
:101300008095709561957F4F8F4F9F4FF0689F2E0E
:101310002AE030E0A3010E94720CC82EC6183FC01C
:10132000092D853721F40F7E2AE030E01DC0097FAA
:101330008F3691F018F4883559F0C3C0803719F012
:10134000883711F0BEC0006104FF09C0046007C007
:1013500094FE08C0066006C028E030E005C020E129
:1013600030E002C020E132E0560107FF09C084E00E
:10137000A80EB11CF601608171818281938108C041
:10138000F2E0AF0EB11CF6016081718180E090E067
:10139000A3010E94720CC82EC6180F77902E96FEDD
:1013A0000BC0092D0E7FC11650F494FE0AC092FCAA
:1013B00008C0092D0E7E05C0DC2C092D03C0DC2CD5
:1013C00001C0D12E04FF0DC0FE01EC0DF11D808186
:1013D000803311F4097E09C002FF06C0D394D39470
:1013E00004C0802F867809F0D39403FD11C000FF5C
:1013F00006C01C2DD51480F4150D1D190DC0D51473
:1014000058F4B70180E290E00E94200CD394F7CF0B
:10141000D51410F45D1801C0512C04FF10C0B701A1
:1014200080E390E00E94200C02FF17C001FD03C082
:1014300088E790E002C088E590E0B7010CC0802FFB
:10144000867859F001FF02C08BE201C080E207FDFF
:101450008DE2B70190E00E94200CC11638F4B7016C
:1014600080E390E00E94200C1150F7CFCA94F30162
:10147000EC0DF11D8081B70190E00E94200CC1109D
:10148000F5CF15C0F4E0F51560F584E0581A93FE29
:101490001FC0011127C02C8523FF2AC004EB10E0D8
:1014A000392D3071932EF8018491811124C055207B
:1014B00009F4E4CCB70180E290E00E94200C5A9439
:1014C000F6CFF7018681978126C08FEF9FEF23C06B
:1014D000B70180E290E00E94200C5A945110F8CF9E
:1014E000D8CF512CB701802F90E00E94200CD3CF91
:1014F00008EB10E0D5CF91108052B70190E00E9428
:10150000200C0F5F1F4FCFCF23E0251510F483E091
:10151000BDCF512CC0CF6096E2E10C94030B97FB3A
:10152000072E16F4009407D077FD09D00E941E0BF9
:1015300007FC05D03EF4909581959F4F08957095D6
:1015400061957F4F0895A1E21A2EAA1BBB1BFD01D6
:101550000DC0AA1FBB1FEE1FFF1FA217B307E40792
:10156000F50720F0A21BB30BE40BF50B661F771FEA
:10157000881F991F1A9469F76095709580959095CA
:101580009B01AC01BD01CF010895A29FB001B39FA3
:10159000C001A39F700D811D1124911DB29F700D7C
:1015A000811D1124911D08950E94C50AA59F900DCB
:1015B000B49F900DA49F800D911D11240895B7FF35
:1015C0000C94D40A0E94D40A821B930B08952F9284
:1015D0003F924F925F926F927F928F929F92AF92C3
:1015E000BF92CF92DF92EF92FF920F931F93CF9310
:1015F000DF93CDB7DEB7CA1BDB0B0FB6F894DEBFA7
:101600000FBECDBF09942A88398848885F846E84CC
:101610007D848C849B84AA84B984C884DF80EE8016
:10162000FD800C811B81AA81B981CE0FD11D0FB61F
:10163000F894DEBF0FBECDBFED010895AA1BBB1B02
:1016400051E107C0AA1FBB1FA617B70710F0A61BC2
:10165000B70B881F991F5A95A9F780959095BC01E3
:10166000CD010895283008F027E03327DA01990FDB
:10167000311D87FD916000966105710539F4326076
:101680002E5F3D9330E32A95E1F708959F3F30F0B8
:1016900080387105610509F03C5F3C5F3D939130F6
:1016A00008F08068911DDF93CF931F930F93FF92F3
:1016B000EF92192F987F9695E92F96959695E90FB9
:1016C000FF27EA5EFE4F99273327EE24FF24A70168
:1016D000E70105900894079428F4360FE71EF81EDA
:1016E000491F511D660F771F881F991F0694A1F788
:1016F0000590079428F4E70EF81E491F561FC11DD8
:10170000770F881F991F661F0694A1F7059007940D
:1017100028F4F80E491F561FC71FD11D880F991FA7
:10172000661F771F0694A1F70590079420F4490FD0
:10173000561FC71FD81F990F661F771F881F069453
:10174000A9F784911095177041F0D695C7955795D4
:101750004795F794E7941A95C1F7ECEBF0E068949D
:101760001590159135916591959105907FE273954E
:10177000E118F10A430B560BC90BD009C0F7E10C75
:10178000F11E431F561FC91FD01D7EF4703311F484
:101790008A95E6CFE894015030F0080F0AF400274C
:1017A000021708F4202F2395022F7A3328F079E3CB
:1017B0007D932A95E9F710C07D932A9589F60694C2
:1017C00097956795379517951794E118F10A430B8C
:1017D000560BC90BD00998F023957E9173957A33F7
:1017E00008F070E37C932013B8F77E9170617D93CD
:1017F00030F0839571E37D9370E32A95E1F711242E
:10180000EF90FF900F911F91CF91DF91992787FD66
:1018100090950895FC010590615070400110D8F733
:10182000809590958E0F9F1F0895FC016150704028
:1018300001900110D8F7809590958E0F9F1F089505
:101840000F931F93CF93DF93FB01238121FD03C0EF
:101850008FEF9FEF2CC022FF16C046815781248155
:1018600035814217530744F4A081B1819D012F5F58
:101870003F4F318320838C93268137812F5F3F4FE9
:101880003783268314C08B01EC01FB010084F185B2
:10189000E02D0995892BE1F6D80116968D919C9142
:1018A0001797019617969C938E931697CE01DF910A
:1018B000CF911F910F910895A0E0B0E0E2E6FCE027
:1018C0000C94F70AAE014B5F5F4FFA016191719181
:1018D000AF018091090290910A020E941207E2E092
:1018E0000C94130BFA01AA27283051F1203181F111
:1018F000E8946F936E7F6E5F7F4F8F4F9F4FAF4F18
:10190000B1E03ED0B4E03CD0670F781F891F9A1F2A
:10191000A11D680F791F8A1F911DA11D6A0F711DDE
:10192000811D911DA11D20D009F468943F912AE0EA
:10193000269F11243019305D3193DEF6CF010895D2
:10194000462F4770405D4193B3E00FD0C9F7F6CF03
:10195000462F4F70405D4A3318F0495D31FD4052CB
:10196000419302D0A9F7EACFB4E0A6959795879561
:1019700077956795BA95C9F7009761057105089540
:101980009B01AC010A2E06945795479537952795EC
:10199000BA95C9F7620F731F841F951FA01D089584
:0419A000F894FFCFE9
:1019A400014000F80101001200120A17000125008D
:1019B400052B00052800032B000200000002000094
:1019C40000000705000000001F1C1F1E1F1E1F1F14
:1019D4001E1F1E1F0D52656164790A0D0054696D46
:1019E400653A20253032642D253032642D3230257D
:1019F4003032643B20253032643A253032643A2553
:101A04003032643B204241543A20253033640D0A7D
:101A140000554E49582074696D652025750D0A00DE
:00000001FF
